:040000009CEF00F081
:100008004382FACF13F0FBCF14F0D9CF15F0DACF33
:1000180016F0F3CF17F0F4CF18F0F6CF19F0F7CFAA
:100028001AF0F8CF1BF0F5CF1CF0F2AC1EEF00F081
:1000380020EF00F086EF00F00E01C5AB26EF00F0D0
:1000480028EF00F03EEF00F0CDAB2DEF00F02FEFE2
:1000580000F03EEF00F002D83CEF00F00500FA6E29
:100068000101C651FD6EC751FE6EFF6AFA501200BB
:1000780086EF00F0C5A943EF00F045EF00F05AEF16
:1000880000F0CDA94AEF00F04CEF00F05AEF00F075
:1000980002D858EF00F00500FA6E3E50FD6E3F5052
:1000A800FE6EFF6AFA50120086EF00F0C5A15FEFFE
:1000B80000F061EF00F076EF00F0CDA166EF00F000
:1000C80068EF00F076EF00F002D874EF00F005005A
:1000D800FA6E3350FD6E3450FE6EFF6AFA5012000D
:1000E80086EF00F0C5A37BEF00F07DEF00F086EF10
:1000F80000F0CDA382EF00F084EF00F086EF00F06F
:1001080068EF00F01CC0F5FF1BC0F8FF1AC0F7FF2E
:1001180019C0F6FF18C0F4FF17C0F3FF16C0DAFFC6
:1001280015C0D9FF14C0FBFF13C0FAFF439211009A
:040138001CEF2CF09C
:100F000000BC6494648464F452D055B064BC584E00
:100F10006546653E6536652E6526651E65A4648258
:100F20005B57696E642053706565643A2025312EE5
:100F30003066206D562C2048756D69646974793A65
:100F40002025312E30662050524800494E46004E32
:100F5000414E00696E66006E616E006C66000D0A9F
:100F60000000000E0001AC6F000EAB6F87C0BDF03B
:100F700088C0BEF089C0BFF08AC0C0F0C0BFC5EF56
:100F800007F0C3EF07F0DBEF07F0000EAC6F010EC8
:100F9000AB6FBDC01DF0BEC01EF0BFC01FF0C0C013
:100FA00020F03EEC30F01DC0BDF01EC0BEF01FC0F2
:100FB000BFF020C0C0F0000E0001C46F000EC36F70
:100FC000F2C0AFF0F3C0B0F0AB51AC11D8A4EBEF6E
:100FD00007F0EDEF07F0F4EF07F02FA4F2EF07F0C2
:100FE000F4EF07F00EEF08F0AB51AC11D8A4FBEF13
:100FF00007F0FDEF07F003EF08F0000E926F2B0EE5
:10100000916F07EF08F0000E926F2D0E916F91C057
:1010100054F1C34BC42BAF07D8A0B007BDC01DF01F
:10102000BEC01EF0BFC01FF0C0C020F082EC26F092
:101030001D041E10D8A41FEF08F021EF08F078EF70
:1010400008F0BF0E00018C6FFF0E8D6F8B518E6FFD
:101050008F6B8C518E278D518F238F510AE11A0E81
:101060008E5DD8A036EF08F039EF08F0010E3AEFA8
:1010700008F0000E936F946B93519411D8B443EF22
:1010800008F045EF08F053EF08F0540EC3251D6E2D
:10109000010EC4211E6E4B0E1F6E0F0E206E57ECFC
:1010A0002EF05FEF08F0540EC3251D6E010EC42113
:1010B0001E6E530E1F6E0F0E206E57EC2EF00001A9
:1010C000FD0EAF27FF0EB02385C068F086C069F023
:1010D000540E6A6F010E6B6FAFC06CF0B0C06DF054
:1010E00051EC28F068C085F069C086F006EF0EF07C
:1010F000BDC01DF0BEC01EF0BFC01FF0C0C020F0BC
:1011000082EC26F01D501E10D8A489EF08F08BEF5A
:1011100008F0E2EF08F0BF0E00018C6FFF0E8D6F3C
:101120008B518E6F8F6B8C518E278D518F238F51EA
:101130000AE11A0E8E5DD8A0A0EF08F0A3EF08F028
:10114000010EA4EF08F0000E956F966B9551961165
:10115000D8B4ADEF08F0AFEF08F0BDEF08F0540ED3
:10116000C3251D6E010EC4211E6E4F0E1F6E0F0E85
:10117000206E57EC2EF0C9EF08F0540EC3251D6EFB
:10118000010EC4211E6E570E1F6E0F0E206E57ECFF
:101190002EF00001FD0EAF27FF0EB02385C068F0D2
:1011A00086C069F0540E6A6F010E6B6FAFC06CF0B1
:1011B000B0C06DF051EC28F068C085F069C086F0D1
:1011C00006EF0EF0000E0001C56F000EC66F800E18
:1011D000C76F3F0EC86F000EC26F000EC16FBDC05B
:1011E0001DF0BEC01EF0BFC01FF0C0C020F0000E3A
:1011F000216E000E226E000E236E000E246E92EC05
:101200002AF0D8B006EF09F008EF09F08DEF09F0E9
:1012100027EF09F0C5C01DF0C6C01EF0C7C01FF003
:10122000C8C020F0000E216E000E226E200E236E2C
:10123000410E246EE0EC17F01DC0C5F01EC0C6F0D4
:101240001FC0C7F020C0C8F00001C14BC22BBDC0F9
:1012500071F0BEC072F0BFC073F0C0C074F0000E79
:10126000216E000E226E200E236E410E246EC5C02C
:101270001DF0C6C01EF0C7C01FF0C8C020F0E0ECD3
:1012800017F01DC075F01EC076F01FC077F020C0AB
:1012900078F0FFEC25F00001D8B051EF09F053EFE2
:1012A00009F00AEF09F073EF09F0C5C01DF0C6C0E0
:1012B0001EF0C7C01FF0C8C020F0000E216E000E47
:1012C000226E200E236E410E246E0BEC1CF01DC00E
:1012D000C5F01EC0C6F01FC0C7F020C0C8F0000196
:1012E000C107D8A0C207BDC071F0BEC072F0BFC0B8
:1012F00073F0C0C074F0C5C075F0C6C076F0C7C04A
:1013000077F0C8C078F0FFEC25F00001D8A08BEF93
:1013100009F08DEF09F055EF09F08BC023F0246A36
:1013200026EC2EF023500001B26FB2C0B1F0670E70
:10133000B219D8A49EEF09F0A0EF09F0C6EF09F0AA
:10134000F451F511D8A4A7EF09F0A9EF09F0ADEF1A
:1013500009F0000EF56F010EF46FF5BFBAEF09F05A
:10136000F55106E1F405D8B0B8EF09F0BAEF09F08D
:10137000C0EF09F0000EAE6F060EAD6FCFEF09F0B3
:10138000F4C0ADF0F5C0AEF0CFEF09F0F5BFCBEF94
:1013900009F0CDEF09F0BAEF09F0C0EF09F0670EE0
:1013A000B219D8A4D6EF09F0D8EF09F007EF0AF088
:1013B000C2AFE6EF09F0FC0EC15DFF0EC259D8A026
:1013C000E4EF09F0E6EF09F005EF0AF0FF0E8C6F8D
:1013D000FF0E8D6FADC08EF0AEC08FF08C518E279A
:1013E0008D518F23C1518E5D8F51800A906FC251F4
:1013F000800A9059D8A0FFEF09F001EF0AF005EF3D
:101400000AF0660EB16F07EF0AF0650EB16FADC05E
:10141000A3F0AEC0A4F0670EB219D8A412EF0AF080
:1014200014EF0AF024EF0AF0660EB119D8A41BEFEE
:101430000AF01DEF0AF026EF0AF0C2BF24EF0AF00F
:1014400022EF0AF026EF0AF0A34BA42B660EB11987
:10145000D8A42DEF0AF02FEF0AF04FEF0AF0C2BF29
:1014600036EF0AF034EF0AF042EF0AF0000EC56FD3
:10147000000EC66F800EC76F3F0EC86F000EC26FA2
:10148000000EC16F670EB219D8B449EF0AF04BEFE6
:101490000AF04FEF0AF0C151A327C251A423000E56
:1014A000BC6F000EBB6FBDC0B3F0BEC0B4F0BFC018
:1014B000B5F0C0C0B6F0C5C0A5F0C6C0A6F0C7C0A4
:1014C000A7F0C8C0A8F0E0EF0AF0B3C01DF0B4C0A8
:1014D0001EF0B5C01FF0B6C020F0C5C021F0C6C0D8
:1014E00022F0C7C023F0C8C024F00BEC1CF01DC0D4
:1014F00071F01EC072F01FC073F020C074F091EC48
:1015000020F071C0B7F072C0B8F073C0B9F074C009
:10151000BAF0B7C01DF0B8C01EF0B9C01FF0BAC015
:1015200020F07CEC25F01DC0A9F01EC0AAF0B3C0CD
:1015300071F0B4C072F0B5C073F0B6C074F0C5C03D
:1015400021F0C6C022F0C7C023F0C8C024F0B7C045
:101550001DF0B8C01EF0B9C01FF0BAC020F0E0EC1A
:1015600017F01DC075F01EC076F01FC077F020C0C8
:1015700078F07AEC2FF071C0B3F072C0B4F073C0A1
:10158000B5F074C0B6F0C5C01DF0C6C01EF0C7C02F
:101590001FF0C8C020F0000E216E000E226E200E3B
:1015A000236E410E246E0BEC1CF01DC0C5F01EC056
:1015B000C6F01FC0C7F020C0C8F00001BB4BBC2B59
:1015C000A351BB5DBC51800A8C6FA451800A8C5919
:1015D000D8A0EDEF0AF0EFEF0AF065EF0AF0C5C012
:1015E0001DF0C6C01EF0C7C01FF0C8C020F0000E1E
:1015F000216E000E226EA00E236E400E246EE0ECD3
:1016000017F01DC0B7F01EC0B8F01FC0B9F020C061
:10161000BAF0B3C071F0B4C072F0B5C073F0B6C028
:1016200074F0B7C075F0B8C076F0B9C077F0BAC042
:1016300078F0FFEC25F00001D8B021EF0BF023EF9C
:101640000BF02DEF0BF0000EB76F000EB86F000E11
:10165000B96F000EBA6F56EF0BF0B3C01DF0B4C0F7
:101660001EF0B5C01FF0B6C020F0B7C021F0B8C062
:1016700022F0B9C023F0BAC024F092EC2AF0D8A02E
:1016800044EF0BF046EF0BF056EF0BF00001A9B161
:101690004CEF0BF04EEF0BF056EF0BF0000EB76F68
:1016A000000EB86F000EB96F000EBA6FBDC01DF00E
:1016B000BEC01EF0BFC01FF0C0C020F0B7C021F0F8
:1016C000B8C022F0B9C023F0BAC024F0DFEC10F0AB
:1016D0001DC0B3F01EC0B4F01FC0B5F020C0B6F0FE
:1016E000B3C071F0B4C072F0B5C073F0B6C074F09E
:1016F000000E216E000E226E200E236E410E246E0F
:10170000A5C01DF0A6C01EF0A7C01FF0A8C020F005
:10171000E0EC17F01DC075F01EC076F01FC077F02A
:1017200020C078F0FFEC25F00001D8A09AEF0BF074
:101730009CEF0BF0C4EF0BF0C14BC22BA5C01DF00A
:10174000A6C01EF0A7C01FF0A8C020F0000E216E9A
:10175000000E226E200E236E410E246EE0EC17F078
:101760001DC0A5F01EC0A6F01FC0A7F020C0A8F0A5
:10177000660E0001B119D8A4C0EF0BF0C2EF0BF058
:10178000C4EF0BF0A34BA42BA5C0C5F0A6C0C6F0B8
:10179000A7C0C7F0A8C0C8F0650EB119D8B4D3EF80
:1017A0000BF0D5EF0BF0DBEF0BF0C1C0A1F0C2C026
:1017B000A2F0DFEF0BF0000EA26F000EA16F000E83
:1017C000A06F000E9F6F000E9E6F000E9D6F000EAB
:1017D000BC6F000EBB6FDBEF0CF0B3C01DF0B4C0EC
:1017E0001EF0B5C01FF0B6C020F0C5C021F0C6C0C5
:1017F00022F0C7C023F0C8C024F00BEC1CF01DC0C1
:1018000071F01EC072F01FC073F020C074F091EC34
:1018100020F071C0B7F072C0B8F073C0B9F074C0F6
:10182000BAF0B7C01DF0B8C01EF0B9C01FF0BAC002
:1018300020F07CEC25F01DC0A9F01EC0AAF02FB846
:1018400024EF0CF026EF0CF044EF0CF00001A9514E
:10185000AA11D8A42EEF0CF030EF0CF044EF0CF0EE
:10186000670EB219D8A437EF0CF039EF0CF044EF43
:101870000CF0A2BF40EF0CF03EEF0CF044EF0CF088
:101880009D4B9E2B8FEF0CF000019F51A011D8A40F
:101890004CEF0CF04EEF0CF078EF0CF0A2BF55EFD0
:1018A0000CF053EF0CF078EF0CF0540EC325D96E0A
:1018B000010EC421DA6E2E0EDF6EC34BC42BAF07B0
:1018C000D8A0B007000EA06F010E9F6F78EF0CF04C
:1018D000540EC325D96E010EC421DA6E300EDF6EB0
:1018E000C34BC42BAF07D8A0B0079D07D8A09E0755
:1018F0009D519E11D8A47FEF0CF081EF0CF068EFA2
:101900000CF0540EC325D96E010EC421DA6EA95114
:10191000300FDF6EC34BC42BAF07D8A0B007B3C0E6
:1019200071F0B4C072F0B5C073F0B6C074F0C5C049
:1019300021F0C6C022F0C7C023F0C8C024F0B7C051
:101940001DF0B8C01EF0B9C01FF0BAC020F0E0EC26
:1019500017F01DC075F01EC076F01FC077F020C0D4
:1019600078F07AEC2FF071C0B3F072C0B4F073C0AD
:10197000B5F074C0B6F0C5C01DF0C6C01EF0C7C03B
:101980001FF0C8C020F0000E216E000E226E200E47
:10199000236E410E246E0BEC1CF01DC0C5F01EC062
:1019A000C6F01FC0C7F020C0C8F00001A107D8A032
:1019B000A207BB4BBC2BA351BB5DBC51800A8C6FF3
:1019C000A451800A8C59D8B0E8EF0CF0EAEF0CF083
:1019D000F8EF0CF0C4BFF6EF0CF0C45109E14B0E68
:1019E000C35DD8A0F6EF0CF0F8EF0CF0EDEF0BF0C4
:1019F0009F51A011D8A4FFEF0CF001EF0DF012EFF2
:101A00000DF02FA806EF0DF008EF0DF012EF0DF01E
:101A1000540EC325D96E010EC421DA6E2E0EDF6E70
:101A2000C34BC42B540EC325D96E010EC421DA6EEC
:101A3000000EDF6E650EB119D8A421EF0DF023EF73
:101A40000DF0F3EF0DF0000EBC6F4F0EBB6F540E98
:101A5000BB25D96E010EBC21DA6E000EDF6E000EC2
:101A6000AC6F000EAB6FC2BF3AEF0DF038EF0DF068
:101A700042EF0DF0000EAC6F010EAB6FC16DC21FD7
:101A8000D8B0C22B000EAE6F020EAD6F73EF0DF02B
:101A9000BB07D8A0BC07540EBB25D96E010EBC21D4
:101AA000DA6EC1C01DF0C2C01EF0000E206E0A0E1C
:101AB0001F6E3AEC2AF01D50300FDF6EC1C01DF0D2
:101AC000C2C01EF0000E206E0A0E1F6E18EC29F028
:101AD0001DC0C1F01EC0C2F00001AD07D8A0AE0706
:101AE000AF07D8A0B007C151C211D8A47AEF0DF04A
:101AF0007CEF0DF048EF0DF0AEBF89EF0DF0AE5169
:101B000006E1AD05D8B087EF0DF089EF0DF048EF95
:101B10000DF0BB07D8A0BC07AB51AC11D8A493EF14
:101B20000DF095EF0DF09BEF0DF0000E986F2B0E62
:101B3000976F9FEF0DF0000E986F2D0E976F540E5C
:101B4000BB25D96E010EBC21DA6E97C0DFFFAF074F
:101B5000D8A0B007BB07D8A0BC07BF0E8C6FFF0E84
:101B60008D6F8B518E6F8F6B8C518E278D518F2384
:101B70008F510AE11A0E8E5DD8A0C1EF0DF0C4EFAF
:101B80000DF0010EC5EF0DF0000E9B6F9C6B9B518D
:101B90009C11D8A4CEEF0DF0D0EF0DF0D6EF0DF0E4
:101BA000000E9A6F650E996FDAEF0DF0000E9A6FC6
:101BB000450E996F540EBB25D96E010EBC21DA6E0D
:101BC00099C0DFFFAF07D8A0B007540EC3251D6E24
:101BD000010EC4211E6E540EBB251F6E010EBC21CA
:101BE000206E57EC2EF085C068F086C069F0540E68
:101BF00000016A6F010E6B6FAFC06CF0B0C06DF08A
:101C000051EC28F068C085F069C086F01200CBC0A6
:101C1000D9FFCCC0DAFFDECFF6FFDDCFF7FFF86AE1
:101C20000800F550250AD8A418EF0EF01AEF0EF0B0
:101C3000C2EF10F0CBC0D9FFCCC0DAFFDE2A000E15
:101C4000DD22000E0001F36F000EF26FF2C02FF0E4
:101C5000F3C030F0F469F569CBC0D9FFCCC0DAFF2E
:101C6000DECFF6FFDDCFF7FFF86A0800F5502A0A4D
:101C7000D8A43DEF0EF03FEF0EF068EF0EF0CBC0B2
:101C8000D9FFCCC0DAFFDE2A000EDD22CDC0D9FF9D
:101C9000CEC0DAFFDFCFCFF0020EDE26DFCFD0F0EE
:101CA000000EDD22CFC0D9FFD0C0DAFFDECFF2F0C8
:101CB000DDCFF3F0F3BF61EF0EF05FEF0EF0ADEFAD
:101CC0000EF02F80F26DF31FD8B0F32BADEF0EF0B6
:101CD000CBC0D9FFCCC0DAFFDECF24F0DDCF25F0BA
:101CE00024EC24F024C0F2F025C0F3F07FEF0EF0D6
:101CF000CBC0D9FFCCC0DAFFDE2A000EDD22D00E29
:101D00000001CF6FFF0ED06FCBC0D9FFCCC0DAFF80
:101D1000DECFF6FFDDCFF7FFF86A0800F550D16F90
:101D2000D26BCF51D127D051D223D2510AE10A0E22
:101D3000D15DD8A09EEF0EF0A1EF0EF0010EA2EF44
:101D40000EF0000ED36FD46BD351D411D8A4ABEFE7
:101D50000EF0ADEF0EF078EF0EF0CBC0D9FFCCC097
:101D6000DAFFDECFF6FFDDCFF7FFF86A0800F550A7
:101D70002E0AD8A4BEEF0EF0C0EF0EF040EF0FF029
:101D8000000EF56F000EF46FCBC0D9FFCCC0DAFFA8
:101D9000DE2A000EDD22CBC0D9FFCCC0DAFFDECFB9
:101DA000F6FFDDCFF7FFF86A0800F5502A0AD8A43D
:101DB000DCEF0EF0DEEF0EF0FBEF0EF0CBC0D9FF44
:101DC000CCC0DAFFDE2A000EDD22CDC0D9FFCEC0A6
:101DD000DAFFDFCFCFF0020EDE26DFCFD0F0000E2D
:101DE000DD22CFC0D9FFD0C0DAFFDECFF4F0DDCFE7
:101DF000F5F040EF0FF0CBC0D9FFCCC0DAFFDECF5B
:101E000024F0DDCF25F024EC24F024C0F4F025C02C
:101E1000F5F012EF0FF0CBC0D9FFCCC0DAFFDE2A0D
:101E2000000EDD22D00E0001CF6FFF0ED06FCBC0B1
:101E3000D9FFCCC0DAFFDECFF6FFDDCFF7FFF86ABF
:101E40000800F550D16FD26BCF51D127D051D2239A
:101E5000D2510AE10A0ED15DD8A031EF0FF034EF74
:101E60000FF0010E35EF0FF0000ED56FD66BD55188
:101E7000D611D8A43EEF0FF040EF0FF00BEF0FF0AC
:101E8000CBC0D9FFCCC0DAFFDECFF6FFDDCFF7FF46
:101E9000F86A0800F550236E246A26EC2EF02350D1
:101EA0000001DD6FDD51D8B458EF0FF05AEF0FF09D
:101EB00096EF0FF0CBC0D9FFCCC0DAFFDECFCFF06A
:101EC000DDCFD0F0010ECF27000ED023CFC0F6FF1C
:101ED000D0C0F7FFF86A0800F550236E246A26EC9C
:101EE0002EF023500001DE6FDE51D8B47AEF0FF0F0
:101EF0007CEF0FF096EF0FF0CBC0D9FFCCC0DAFF2C
:101F0000DECFCFF0DDCFD0F0020ECF27000ED023F2
:101F1000CFC0F6FFD0C0F7FFF86A0800F550236E77
:101F2000246A26EC2EF023500001DF6F660EDD19C7
:101F3000D8A49DEF0FF09FEF0FF0E0EF0FF0CBC0B4
:101F4000D9FFCCC0DAFFDECFF6FFDDCFF7FFF86AAE
:101F50000800F5CFE0F0CBC0D9FFCCC0DAFFDE2A15
:101F6000000EDD22CDC0D9FFCEC0DAFFDFCFCFF02B
:101F7000040EDE26DFCFD0F0000EDD22CFC0D9FF69
:101F8000D0C0DAFFDECFD9F0DECFDAF0DECFDBF083
:101F9000DECFDCF0C9C085F0CAC086F0D9C087F0BA
:101FA000DAC088F0DBC089F0DCC08AF0E0C08BF0DA
:101FB000B1EC07F085C0C9F086C0CAF0DEEF10F0C2
:101FC000DD0E1D6E000E1E6E5B0E1F6E0F0E206E60
:101FD000000E226E020E216E7BEC27F01D501E10AB
:101FE000D8A4F5EF0FF0F7EF0FF089EF10F0CBC0AA
:101FF000D9FFCCC0DAFFDECFCFF0DDCFD0F0010EBD
:102000000001CF27000ED023CFC0F6FFD0C0F7FFCE
:10201000F86A0800F5CFE0F0BF0ECF6FFF0ED06F6B
:10202000CBC0D9FFCCC0DAFFDECFF6FFDDCFF7FFA4
:10203000F86A0800F550D16FD26BCF51D127D0513B
:10204000D223D2510AE11A0ED15DD8A02AEF10F0A6
:102050002DEF10F0010E2EEF10F0000ED76FD86BA1
:10206000D751D811D8B437EF10F039EF10F053EF43
:1020700010F0CDC0D9FFCEC0DAFFDFCFCFF0040E15
:10208000DE26DFCFD0F0000EDD22CFC0D9FFD0C0DA
:10209000DAFFDECFD9F0DECFDAF0DECFDBF0DECF55
:1020A000DCF06BEF10F0CDC0D9FFCEC0DAFFDFCF90
:1020B000CFF0040EDE26DFCFD0F0000EDD22CFC041
:1020C000D9FFD0C0DAFFDECFD9F0DECFDAF0DECF35
:1020D000DBF0DECFDCF0020ECBC0D9FFCCC0DAFFE4
:1020E000DE26000EDD22C9C085F0CAC086F0D9C048
:1020F00087F0DAC088F0DBC089F0DCC08AF0E0C08D
:102100008BF0B1EC07F085C0C9F086C0CAF0DEEFF5
:1021100010F0CBC0D9FFCCC0DAFFDECFF6FFDDCFA9
:10212000F7FFF86A0800F550250AD8A49AEF10F0D6
:102130009CEF10F0B4EF10F0CBC0D9FFCCC0DAFFA9
:10214000DE2A000EDD22000E206E250E1F6EC9C095
:1021500021F0CAC022F08AEC2BF0000E0001CA6FF9
:10216000010EC96FDEEF10F0CBC0D9FFCCC0DAFF93
:10217000DE2A000EDD22000E0001CA6F000EC96FBC
:10218000DEEF10F0CBC0D9FFCCC0DAFFDECFF6FF18
:10219000DDCFF7FFF86A0800F5501F6E206AC9C04E
:1021A00021F0CAC022F08AEC2BF0CBC0D9FFCCC002
:1021B000DAFFDE2A000EDD22ADEF10F01200205013
:1021C000800B0001646F20502024666F1FAEEBEF80
:1021D00010F0EDEF10F0EEEF10F066816651D8B41C
:1021E000F4EF10F0F6EF10F00BEF11F06629D8A421
:1021F000FCEF10F0FEEF10F006EF11F0000E1D6E78
:10220000000E1E6E000E1F6E000E206E1F8E000E42
:10221000206E13EF11F0000E1D6E000E1E6E000EEC
:102220001F6E000E206E2450800B656F645165197F
:10223000D8B41DEF11F01FEF11F020EF11F0648DF5
:1022400024502424656F23AE28EF11F02AEF11F0FB
:102250002BEF11F065816551D8B431EF11F033EFF8
:1022600011F048EF11F06529D8A439EF11F03BEFD8
:1022700011F043EF11F0000E216E000E226E000EE1
:10228000236E000E246E238E000E246E50EF11F08C
:10229000000E216E000E226E000E236E000E246EC4
:1022A0006651655DD8B057EF11F059EF11F080EF2E
:1022B00011F064AD5EEF11F060EF11F062EF11F01C
:1022C000800E641B66C067F065C066F067C065F08D
:1022D0001DC067F021C01DF067C021F01EC067F06F
:1022E00022C01EF067C022F01FC067F023C01FF09D
:1022F00067C023F020C067F024C020F067C024F03E
:10230000000E676F665165C060F0616B605F000E24
:10231000615B61BF95EF11F0615109E11A0E605DDB
:10232000D8A095EF11F097EF11F0CEEF11F01D50FE
:102330001E101F102010D8A4A0EF11F0A3EF11F071
:10234000010EA4EF11F0000E676F000E1D6E000E5F
:102350001E6E000E1F6E000E206E65C066F0D7EF79
:1023600011F067A1B6EF11F0B8EF11F0BEEF11F068
:10237000D89067310109676FC0EF11F0D8906733CB
:102380001DA0C5EF11F0C7EF11F0C8EF11F0678F76
:10239000203420321F321E321D32662B6551665D9D
:1023A000D8A0D5EF11F0D7EF11F0B1EF11F064BD67
:1023B000DCEF11F0DEEF11F01EEF12F06651D8A441
:1023C000E4EF11F0E6EF11F0F0EF11F0000E1D6EEA
:1023D000000E1E6E000E1F6E000E206E3FEF13F0FB
:1023E00021501D2622501E2223501F22245020221D
:1023F00020A0FDEF11F0FFEF11F0ABEF12F067A19D
:1024000004EF12F006EF12F00CEF12F0D8906731E3
:102410000109676F0EEF12F0D89067331DA013EF1C
:1024200012F015EF12F016EF12F0678F2034203201
:102430001F321E321D32662BABEF12F021501D5C95
:1024400022501E5823501F582050800A606F24507D
:10245000800A6059D8B02FEF12F031EF12F05CEF24
:1024600012F01D50215C606F1E502258616F1F508A
:102470002358626F20502458636FFF0E60251D6E35
:10248000FF0E61211E6EFF0E62211F6EFF0E632183
:10249000206E800E641B676D6751D8A452EF12F056
:1024A00054EF12F064EF12F0010E1D26000E1E22F2
:1024B0001F22202264EF12F021501D5E22501E5A6E
:1024C00023501F5A2450205A1D501E101F10201038
:1024D000D8A46DEF12F06FEF12F0A4EF12F0675175
:1024E000D8A475EF12F077EF12F0A4EF12F0000EFF
:1024F0001D6E000E1E6E000E1F6E000E206E3FEF52
:1025000013F0D8901D361E361F36203667AF8BEF7E
:1025100012F08DEF12F08EEF12F01D8067A193EF95
:1025200012F095EF12F099EF12F0D88067379BEF19
:1025300012F0D89067376651D8B4A1EF12F0A3EF2C
:1025400012F0A4EF12F066071FAEA9EF12F0ABEF86
:1025500012F081EF12F0000E656F67AFB2EF12F06C
:10256000B4EF12F0CCEF12F067C060F07F0E60178E
:10257000D8B4BDEF12F0BFEF12F0C3EF12F0010EAE
:10258000656FCCEF12F01DA0C8EF12F0CAEF12F089
:10259000CCEF12F0BFEF12F06551D8B4D2EF12F0C9
:1025A000D4EF12F0FFEF12F0010E1D26000E1E22D6
:1025B0001F22202220A0DFEF12F0E1EF12F0FFEF48
:1025C00012F01DC060F01EC061F01FC062F020C09C
:1025D00063F06335633362336133603360C01DF091
:1025E00061C01EF062C01FF063C020F06629D8B43D
:1025F000FCEF12F0FEEF12F0FFEF12F0662B6629EF
:10260000D8B405EF13F007EF13F00FEF13F0665196
:10261000D8A40DEF13F00FEF13F021EF13F0000E1D
:102620001D6E000E1E6E000E1F6E000E206E665197
:10263000D8A41DEF13F01FEF13F021EF13F0000EDD
:10264000646F66A126EF13F028EF13F02BEF13F061
:102650001F8E2CEF13F01F9ED8906631206E64AF52
:1026600034EF13F036EF13F037EF13F0208E1DC068
:102670001DF01EC01EF01FC01FF020C020F0120071
:102680000450800B0D6E045004240F6E03AE4BEF0C
:1026900013F04DEF13F04EEF13F00F800F50D8B43E
:1026A00054EF13F056EF13F06BEF13F00F28D8A48C
:1026B0005CEF13F05EEF13F066EF13F0000E016EA7
:1026C000000E026E000E036E000E046E038E000EEE
:1026D000046E73EF13F0000E016E000E026E000E1A
:1026E000036E000E046E0850800B0E6E0D500E1817
:1026F000D8B47DEF13F07FEF13F080EF13F00D8C63
:10270000085008240E6E07AE88EF13F08AEF13F01E
:102710008BEF13F00E800E50D8B491EF13F093EFBF
:1027200013F0A8EF13F00E28D8A499EF13F09BEF45
:1027300013F0A3EF13F0000E056E000E066E000EF0
:10274000076E000E086E078E000E086EB0EF13F0D5
:10275000000E056E000E066E000E076E000E086E6F
:102760000F500E5CD8B0B7EF13F0B9EF13F0E0EFF5
:1027700013F00DACBEEF13F0C0EF13F0C2EF13F087
:10278000800E0D1A0FC010F00EC00FF010C00EF02A
:1027900001C010F005C001F010C005F002C010F03B
:1027A00006C002F010C006F003C010F007C003F02E
:1027B00010C007F004C010F008C004F010C008F00A
:1027C000000E106E0F500EC009F00A6A095E000E6E
:1027D0000A5A0ABEF5EF13F00A5009E11A0E095C15
:1027E000D8A0F5EF13F0F7EF13F02EEF14F001502F
:1027F000021003100410D8A400EF14F003EF14F03B
:10280000010E04EF14F0000E106E000E016E000EAB
:10281000026E000E036E000E046E0EC00FF037EF56
:1028200014F010A016EF14F018EF14F01EEF14F0CF
:10283000D89010300109106E20EF14F0D8901032AB
:1028400001A025EF14F027EF14F028EF14F0108EFC
:10285000043404320332023201320F2A0E500F5C6C
:10286000D8A035EF14F037EF14F011EF14F00DBCD1
:102870003CEF14F03EEF14F07EEF14F00F50D8A4AC
:1028800044EF14F046EF14F050EF14F0000E016E18
:10289000000E026E000E036E000E046E9FEF15F028
:1028A0000550012606500222075003220850042238
:1028B00004A05DEF14F05FEF14F00BEF15F010A023
:1028C00064EF14F066EF14F06CEF14F0D890103051
:1028D0000109106E6EEF14F0D890103201A073EF62
:1028E00014F075EF14F076EF14F0108E0434043207
:1028F0000332023201320F2A0BEF15F00550015C52
:1029000006500258075003580450800A096E0850B8
:10291000800A0958D8B08FEF14F091EF14F0BCEF93
:1029200014F00150055C096E025006580A6E0350FF
:1029300007580B6E045008580C6EFF0E0924016EE8
:10294000FF0E0A20026EFF0E0B20036EFF0E0C20FE
:10295000046E800E0D1A106C1050D8A4B2EF14F053
:10296000B4EF14F0C4EF14F0010E0126000E0222A1
:1029700003220422C4EF14F00550015E0650025AEF
:102980000750035A0850045A015002100310041053
:10299000D8A4CDEF14F0CFEF14F004EF15F01050E1
:1029A000D8A4D5EF14F0D7EF14F004EF15F0000E13
:1029B000016E000E026E000E036E000E046E9FEF9D
:1029C00015F0D890013602360336043610AEEBEF20
:1029D00014F0EDEF14F0EEEF14F0018010A0F3EF1F
:1029E00014F0F5EF14F0F9EF14F0D8801036FBEF87
:1029F00014F0D89010360F50D8B401EF15F003EF53
:102A000015F004EF15F00F0603AE09EF15F00BEF0C
:102A100015F0E1EF14F0000E0E6E10AE12EF15F08F
:102A200014EF15F02CEF15F010C009F07F0E091609
:102A3000D8B41DEF15F01FEF15F023EF15F0010EC0
:102A40000E6E2CEF15F001A028EF15F02AEF15F00F
:102A50002CEF15F01FEF15F00E50D8B432EF15F033
:102A600034EF15F05FEF15F0010E0126000E022283
:102A70000322042204A03FEF15F041EF15F05FEFB1
:102A800015F001C009F002C00AF003C00BF004C049
:102A90000CF00C340C320B320A32093209C001F04E
:102AA0000AC002F00BC003F00CC004F00F28D8B429
:102AB0005CEF15F05EEF15F05FEF15F00F2A0F28B1
:102AC000D8B465EF15F067EF15F06FEF15F00F5004
:102AD000D8A46DEF15F06FEF15F081EF15F0000E33
:102AE000016E000E026E000E036E000E046E0F509B
:102AF000D8A47DEF15F07FEF15F081EF15F0000EF3
:102B00000D6E0FA086EF15F088EF15F08BEF15F026
:102B1000038E8CEF15F0039ED8900F30046E0DAE2F
:102B200094EF15F096EF15F097EF15F0048E01C0B5
:102B300001F002C002F003C003F004C004F0120070
:102B400002EC27F083B4A7EF15F0AAEF15F0010E01
:102B5000ABEF15F0000EFF0A0101BE6FBE47BE4786
:102B60008350BE19FB0BBE19836ED00E0101BE6FE0
:102B7000C90EE82EFED7BE2FFCD700D0270EB2EC30
:102B80002EF0D00E0101BE6FC90EE82EFED7BE2F6B
:102B9000FCD700D03C0E0001666F000E676F000E80
:102BA000696F020E686F270EB5EC28F0D00E010198
:102BB000BE6FC90EE82EFED7BE2FFCD700D083B45F
:102BC000E4EF15F0E7EF15F0010EE8EF15F0000E59
:102BD000FF0A0101BE6FBE47BE478350BE19FB0B03
:102BE000BE19836E2BC071F02CC072F02DC073F033
:102BF0002EC074F044C175F045C176F046C177F03F
:102C000047C178F0FFEC25F00001D8B00AEF16F0CC
:102C10000CEF16F0F7EF16F048C171F049C172F0F1
:102C20004AC173F04BC174F02BC075F02CC076F024
:102C30002DC077F02EC078F0FFEC25F00001D8B061
:102C400024EF16F026EF16F0F7EF16F0838283B428
:102C50002CEF16F02FEF16F0010E30EF16F0000EED
:102C6000FF0A0101BE6FBE47BE478350BE19FB0B72
:102C7000BE19836ED00E0101BE6FC90EE82EFED7BD
:102C8000BE2FFCD700D0270EB2EC2EF0D00E0101E3
:102C9000BE6FC90EE82EFED7BE2FFCD700D03C0E6B
:102CA0000001666F000E676F000E696F020E686F9D
:102CB000270EB5EC28F0D00E0101BE6FC90EE82E2C
:102CC000FED7BE2FFCD700D083B469EF16F06CEFAF
:102CD00016F0010E6DEF16F0000EFF0A0101BE6F37
:102CE000BE47BE478350BE19FB0BBE19836EE8C0BA
:102CF00071F0E9C072F0EAC073F0EBC074F0000E3E
:102D00000001756F000E766FB40E776F420E786F0C
:102D1000FFEC25F00001D8B090EF16F092EF16F01E
:102D2000C8EF16F0000E716F000E726F000E736F19
:102D3000000E746FE8C075F0E9C076F0EAC077F075
:102D4000EBC078F0FFEC25F00001D8B0AAEF16F048
:102D5000ACEF16F0C8EF16F0FD05FE11D8A4B3EFE6
:102D600016F0B5EF16F0C8EF16F0000E216E640EE7
:102D7000206E000E236E0C0E226E45EC1FF0000E2E
:102D80000001FE6F000EFD6F000EF76F010EF66F73
:102D9000F3EC24F027C01DF028C01EF029C01FF05E
:102DA0002AC020F0000E216E000E226E000E236E4F
:102DB000000E246E92EC2AF0D8B0E1EF16F0E3EFAB
:102DC00016F0F2EF15F02BC0B6F12CC0B7F12DC004
:102DD000B8F12EC0B9F1E8C0BAF1E9C0BBF1EAC060
:102DE000BCF1EBC0BDF1D6EC2BF0F2EF15F0839205
:102DF000F605F711D8A4FFEF16F001EF17F014EF66
:102E000017F0000E216E640E206E000E236E080E69
:102E1000226ED9EC1DF0000E0001FE6F010EFD6F59
:102E2000000EF76F000EF66FF3EC24F027C01DF0D4
:102E300028C01EF029C01FF02AC020F0000E216E0D
:102E4000000E226E000E236E000E246E92EC2AF00D
:102E5000D8B02DEF17F02FEF17F041EF17F02BC080
:102E6000B6F12CC0B7F12DC0B8F12EC0B9F1E8C051
:102E7000BAF1E9C0BBF1EAC0BCF1EBC0BDF1D6ECE0
:102E80002BF0EAEC27F0020E0001FA19FB11D8A48E
:102E90004CEF17F04EEF17F0F2EF15F0000EFB6F4E
:102EA000000EFA6F000EFC6F839283988394839ACE
:102EB000838A8382150E0101BF6F4B0EBE6FBE0E5B
:102EC000E82EFED7BE2FFCD7BF2FFAD700F00001A7
:102ED000FA05FB11D8A46FEF17F071EF17F0A7EF09
:102EE00017F0000EFB6F000EFA6F000EFC6FFD0571
:102EF000FE11D8A47EEF17F080EF17F095EF17F0D2
:102F000083948388000E216E640E206E000E236E63
:102F10000A0E226E45EC1FF0000E0001FE6F000E3F
:102F2000FD6F000EF76F010EF66FEAEC27F000015F
:102F3000FA05FB11D8A49FEF17F0A1EF17F077EF78
:102F400017F0000EFB6F000EFA6F000EFC6FF60517
:102F5000F711D8A4AEEF17F0B0EF17F0C5EF17F0E8
:102F600083848398000E216E640E206E000E236E03
:102F7000080E226ED9EC1DF0000E0001FE6F010E4E
:102F8000FD6F000EF76F000EF66FEAEC27F0020EF1
:102F90000001FA19FB11D8A4D0EF17F0D2EF17F007
:102FA00067EF17F0000EFB6F000EFA6F000EFC6F5C
:102FB000839283988394839AF2EF15F09CEF00F04C
:102FC0002050800B0001646F205020246A6F1FAED8
:102FD000ECEF17F0EEEF17F0EFEF17F06A816A51A0
:102FE000D8B4F5EF17F0F7EF17F00AEF18F06A29E9
:102FF000D8A4FDEF17F0FFEF17F007EF18F0000E61
:103000001D6E000E1E6E000E1F6E000E206E1F8EB7
:1030100012EF18F0000E1D6E000E1E6E000E1F6ED9
:10302000000E206E2450800B641B24502424656FF6
:1030300023AE1DEF18F01FEF18F020EF18F0658198
:103040006551D8B426EF18F028EF18F03BEF18F0D0
:103050006529D8A42EEF18F030EF18F038EF18F0EB
:10306000000E216E000E226E000E236E000E246EE6
:10307000238E43EF18F0000E216E000E226E000E1C
:10308000236E000E246E6551D8B449EF18F04BEF53
:1030900018F053EF18F06A51D8A451EF18F053EF1D
:1030A00018F05DEF18F0000E1D6E000E1E6E000E83
:1030B0001F6E000E206EF5EF19F023501D02F3CFA6
:1030C0006FF0F4CF70F06F51666F676B686B696B70
:1030D00070516B6F6C6B6D6B6E6B22501E02F3CF79
:1030E0006FF0F4CF70F06F516627000E67236823EE
:1030F000692370516B27000E6C236D236E232150C2
:103100001F02F3CF6FF0F4CF70F06F516627000EFF
:1031100067236823692370516B27000E6C236D238E
:103120006E2368C069F067C068F066C067F0666BC0
:1031300021501E02F3CF6FF0F4CF70F06F5166276D
:1031400070516723000E6823000E692322501D0270
:10315000F3CF6FF0F4CF70F06F5166277051672393
:10316000000E6823000E692368C069F067C068F02C
:1031700066C067F0666B21501D02F3CF6FF0F4CF8D
:1031800070F06F51662770516723000E6823000EA0
:10319000692323501E02F3CF6FF0F4CF70F06F510C
:1031A0006B2770516C23000E6D23000E6E2322508E
:1031B0001F02F3CF6FF0F4CF70F06F516B27705197
:1031C0006C23000E6D23000E6E2323501F02F3CFDD
:1031D0006FF0F4CF70F06F51606F7051616F626B80
:1031E000636B62C063F061C062F060C061F0606BED
:1031F00060516B2761516C2362516D2363516E23C3
:1032000066C060F067C061F068C062F069C063F0DA
:10321000190E10EF19F0D8906333623361336033C5
:10322000E82E0BEF19F060516B2761516C2362514E
:103230006D2363516E2368C069F067C068F066C093
:1032400067F0666B65516AC060F0616B6027000EC5
:103250006123820E60256F6FFF0E6121706F46EF54
:1032600019F0D8906B376C376D376E3769AF3BEF1D
:1032700019F03DEF19F03EEF19F06B81D8906637E9
:103280006737683769376F07D8A070076DAF4BEFA6
:1032900019F04DEF19F031EF19F0000E656F69AFBD
:1032A00054EF19F056EF19F07AEF19F0FF0E66158A
:1032B000606FFF0E6715616FFF0E6815626F7F0EFE
:1032C0006915636F6051611162116311D8B46BEFBE
:1032D00019F06DEF19F071EF19F0010E656F7AEFCB
:1032E00019F06BA176EF19F078EF19F07AEF19F079
:1032F0006DEF19F06551D8B480EF19F082EF19F035
:10330000A6EF19F0010E6B27000E6C236D236E23C0
:103310006EA18DEF19F08FEF19F0A6EF19F06BC0C9
:1033200060F06CC061F06DC062F06EC063F0633538
:10333000633362336133603360C06BF061C06CF043
:1033400062C06DF063C06EF06F4B702B70BFB1EF59
:1033500019F0705108E16F29D8A0B1EF19F0B3EF5F
:1033600019F0BDEF19F0000E6B6F000E6C6F800E40
:103370006D6F7F0E6E6FEBEF19F070BFCAEF19F033
:10338000705106E16F05D8B0C8EF19F0CAEF19F017
:10339000D6EF19F0000E6B6F000E6C6F000E6D6FA4
:1033A000000E6E6F000E646FEBEF19F06FC06AF0E5
:1033B000FF0E6B17FF0E6C177F0E6D17000E6E174A
:1033C0006AA1E5EF19F0E7EF19F0E8EF19F06D8F5A
:1033D000D8906A316E6F64516E136BC01DF06CC073
:1033E0001EF06DC01FF06EC020F012000450800B64
:1033F0000D6E04500424136E03AE01EF1AF003EFB8
:103400001AF004EF1AF013801350D8B40AEF1AF030
:103410000CEF1AF01FEF1AF01328D8A412EF1AF0CD
:1034200014EF1AF01CEF1AF0000E016E000E026E7F
:10343000000E036E000E046E038E27EF1AF0000ECE
:10344000016E000E026E000E036E000E046E085038
:10345000800B0D1A08500824126E07AE32EF1AF0D6
:1034600034EF1AF035EF1AF012801250D8B43BEF57
:103470001AF03DEF1AF050EF1AF01228D8A443EFDB
:103480001AF045EF1AF04DEF1AF0000E056E000E1F
:10349000066E000E076E000E086E078E58EF1AF0CB
:1034A000000E056E000E066E000E076E000E086E12
:1034B0001250D8B45EEF1AF060EF1AF068EF1AF00D
:1034C0001350D8A466EF1AF068EF1AF072EF1AF0F2
:1034D000000E016E000E026E000E036E000E046EF2
:1034E0000AEF1CF007500102F3CF18F0F4CF19F0E7
:1034F00018500E6E0F6A106A116A1950146E156A10
:10350000166A176A06500202F3CF18F0F4CF19F0CA
:1035100018500E26000E0F221022112219501426C8
:10352000000E15221622172205500302F3CF18F0C1
:10353000F4CF19F018500E26000E0F22102211227F
:1035400019501426000E15221622172210C011F051
:103550000FC010F00EC00FF00E6A05500202F3CF3C
:1035600018F0F4CF19F018500E2619500F22000E43
:103570001022000E112206500102F3CF18F0F4CFF2
:1035800019F018500E2619500F22000E1022000EAE
:10359000112210C011F00FC010F00EC00FF00E6A13
:1035A00005500102F3CF18F0F4CF19F018500E2691
:1035B00019500F22000E1022000E11220750020295
:1035C000F3CF18F0F4CF19F0185014261950152223
:1035D000000E1622000E172206500302F3CF18F039
:1035E000F4CF19F01850142619501522000E162287
:1035F000000E172207500302F3CF18F0F4CF19F092
:103600001850096E19500A6E0B6A0C6A0BC00CF048
:103610000AC00BF009C00AF0096A095014260A50C2
:1036200015220B5016220C5017220EC009F00FC0A5
:103630000AF010C00BF011C00CF0190E25EF1BF0B2
:10364000D8900C320B320A320932E82E20EF1BF0F0
:10365000095014260A5015220B5016220C5017221E
:1036600010C011F00FC010F00EC00FF00E6A125013
:1036700013C009F00A6A0926000E0A22820E0924E4
:10368000186EFF0E0A20196E5BEF1BF0D8901436EF
:1036900015361636173611AE50EF1BF052EF1BF0F1
:1036A00053EF1BF01480D8900E360F3610361136BB
:1036B0001806D8A0190616AE60EF1BF062EF1BF0DB
:1036C00046EF1BF0000E126E11AE69EF1BF06BEFB0
:1036D0001BF08FEF1BF0FF0E0E14096EFF0E0F1480
:1036E0000A6EFF0E10140B6E7F0E11140C6E095033
:1036F0000A100B100C10D8B480EF1BF082EF1BF0F7
:1037000086EF1BF0010E126E8FEF1BF014A08BEFF3
:103710001BF08DEF1BF08FEF1BF082EF1BF01250B0
:10372000D8B495EF1BF097EF1BF0BBEF1BF0010E29
:103730001426000E15221622172217A0A2EF1BF046
:10374000A4EF1BF0BBEF1BF014C009F015C00AF08A
:1037500016C00BF017C00CF00C340C320B320A32CE
:10376000093209C014F00AC015F00BC016F00CC0E5
:1037700017F0184A192A19BEC6EF1BF0195008E1B4
:103780001828D8A0C6EF1BF0C8EF1BF0D2EF1BF033
:10379000000E146E000E156E800E166E7F0E176EE4
:1037A00000EF1CF019BEDFEF1BF0195006E1180402
:1037B000D8B0DDEF1BF0DFEF1BF0EBEF1BF0000EDE
:1037C000146E000E156E000E166E000E176E000EB3
:1037D0000D6E00EF1CF018C013F0FF0E1416FF0E54
:1037E00015167F0E1616000E171613A0FAEF1BF013
:1037F000FCEF1BF0FDEF1BF0168ED8901330176E08
:103800000D50171214C001F015C002F016C003F0DD
:1038100017C004F012002050800B0001686F205088
:1038200020246F6F1FAE17EF1CF019EF1CF01AEF7A
:103830001CF06F816F51D8B420EF1CF022EF1CF008
:1038400037EF1CF06F29D8A428EF1CF02AEF1CF0EA
:1038500032EF1CF0000E1D6E000E1E6E000E1F6E6D
:10386000000E206E1F8E000E206E3FEF1CF0000E2B
:103870001D6E000E1E6E000E1F6E000E206E245078
:10388000800B681B24502424706F23AE4AEF1CF079
:103890004CEF1CF04DEF1CF070817051D8B453EF19
:1038A0001CF055EF1CF06AEF1CF07029D8A45BEFF8
:1038B0001CF05DEF1CF065EF1CF0000E216E000E99
:1038C000226E000E236E000E246E238E000E246ED8
:1038D00072EF1CF0000E216E000E226E000E236EA1
:1038E000000E246E2150221023102410D8A47BEF48
:1038F0001CF07DEF1CF095EF1CF0000E1D6E000E0D
:103900001E6E000E1F6E000E206E800E1F127F0EA8
:103910002012685120121DC01DF01EC01EF01FC0D5
:103920001FF020C020F0D8EF1DF06F51D8A49BEFFE
:103930001CF09DEF1CF0A7EF1CF0000E1D6E000E9A
:103940001E6E000E1F6E000E206ED8EF1DF070511F
:103950006FC060F0616B605F000E615B7F0E602581
:10396000696F000E61216A6F1DC064F01EC065F0B2
:103970001FC066F020C067F0000E1D6E000E1E6EA8
:10398000000E1F6E000E206E000E6B6F000E6C6F2F
:10399000000E6D6F000E6E6F000E706F08EF1DF061
:1039A0007051D8B4D6EF1CF0D8EF1CF0EFEF1CF03C
:1039B000D8906437653766376737D8901D361E361E
:1039C0001F3620366EAFE7EF1CF0E9EF1CF0EAEF90
:1039D0001CF01D80D8906B376C376D376E372150D7
:1039E000645D225065592350665924506759D8A008
:1039F000FCEF1CF0FEEF1CF007EF1DF06E8D215068
:103A0000645F2250655B2350665B2450675B702BBC
:103A1000190E70650EEF1DF010EF1DF0D0EF1CF0C9
:103A20006451651166116711D8B419EF1DF01BEFD1
:103A30001DF033EF1DF06B8133EF1DF0D8901D3674
:103A40001E361F3620366EAF28EF1DF02AEF1DF010
:103A50002BEF1DF01D80D8906B376C376D376E37AC
:103A60006907D8A06A071FAE38EF1DF03AEF1DF0C6
:103A70001EEF1DF0000E706F6EAF41EF1DF043EFB3
:103A80001DF067EF1DF0FF0E6B15606FFF0E6C15DC
:103A9000616FFF0E6D15626F7F0E6E15636F605163
:103AA000611162116311D8B458EF1DF05AEF1DF087
:103AB0005EEF1DF0010E706F67EF1DF01DA063EF4C
:103AC0001DF065EF1DF067EF1DF05AEF1DF070510E
:103AD000D8B46DEF1DF06FEF1DF093EF1DF0010EE8
:103AE0001D26000E1E221F22202220A07AEF1DF08C
:103AF0007CEF1DF093EF1DF01DC060F01EC061F063
:103B00001FC062F020C063F06335633362336133FA
:103B1000603360C01DF061C01EF062C01FF063C062
:103B200020F0694B6A2B6ABF9EEF1DF06A5108E1D5
:103B30006929D8A09EEF1DF0A0EF1DF0ABEF1DF09E
:103B4000000E6A6F6969000E1D6E000E1E6E000E7B
:103B50001F6E000E206E6ABFB8EF1DF06A5106E1BD
:103B60006905D8B0B6EF1DF0B8EF1DF0C6EF1DF037
:103B7000000E6A6F000E696F000E1D6E000E1E6E45
:103B8000000E1F6E000E206E000E686F69C06FF091
:103B90006FA1CDEF1DF0CFEF1DF0D2EF1DF01F8E06
:103BA000D3EF1DF01F9ED8906F31206E89EF1CF06F
:103BB0001200000E266E000E256E11EF1FF0848697
:103BC0000B0E246E620EE82EFED7242EFCD700D0FA
:103BD00084980B0E246E620EE82EFED7242EFCD79E
:103BE00000D084800B0E246E620EE82EFED7242EA9
:103BF000FCD700D084920B0E246E620EE82EFED706
:103C0000242EFCD700D083B808EF1EF00BEF1EF077
:103C1000010E0CEF1EF0000EFF0A246E243A8350B2
:103C20002418EF0B2418836E20C01DF021C01EF055
:103C300091EC30F083B81FEF1EF022EF1EF0010E62
:103C400023EF1EF0000EFF0A246E243A835024183E
:103C5000EF0B2418836E84960B0E246E620EE82EF2
:103C6000FED7242EFCD700D084880B0E246E620E63
:103C7000E82EFED7242EFCD700D084800B0E246EB5
:103C8000620EE82EFED7242EFCD700D084920B0EB5
:103C9000246E620EE82EFED7242EFCD700D083B807
:103CA00054EF1EF057EF1EF0010E58EF1EF0000EFD
:103CB000FF0A246E243A83502418EF0B2418836ED5
:103CC00020C01DF021C01EF091EC30F083B86BEFE6
:103CD0001EF06EEF1EF0010E6FEF1EF0000EFF0AD9
:103CE000246E243A83502418EF0B2418836E849694
:103CF0000B0E246E620EE82EFED7242EFCD700D0C9
:103D000084880B0E246E620EE82EFED7242EFCD77C
:103D100000D084900B0E246E620EE82EFED7242E67
:103D2000FCD700D084820B0E246E620EE82EFED7E4
:103D3000242EFCD700D083B8A0EF1EF0A3EF1EF016
:103D4000010EA4EF1EF0000EFF0A246E243A8350E9
:103D50002418EF0B2418836E20C01DF021C01EF024
:103D600091EC30F083B8B7EF1EF0BAEF1EF0010E01
:103D7000BBEF1EF0000EFF0A246E243A8350241875
:103D8000EF0B2418836E84860B0E246E620EE82ED1
:103D9000FED7242EFCD700D084980B0E246E620E22
:103DA000E82EFED7242EFCD700D084900B0E246E74
:103DB000620EE82EFED7242EFCD700D084820B0E94
:103DC000246E620EE82EFED7242EFCD700D083B8D6
:103DD000ECEF1EF0EFEF1EF0010EF0EF1EF0000E04
:103DE000FF0A246E243A83502418EF0B2418836EA4
:103DF00020C01DF021C01EF091EC30F083B803EF1D
:103E00001FF006EF1FF0010E07EF1FF0000EFF0A74
:103E1000246E243A83502418EF0B2418836E254A0D
:103E2000262A2250255C2650800A246E2350800AC0
:103E30002458D8A01EEF1FF020EF1FF0DFEF1DF079
:103E400084960B0E246E620EE82EFED7242EFCD72D
:103E500000D084980B0E246E620EE82EFED7242E1E
:103E6000FCD700D084900B0E246E620EE82EFED795
:103E7000242EFCD700D084920B0E246E620EE82E06
:103E8000FED7242EFCD700D01200000E266E000EA6
:103E9000256E5DEF20F084860B0E246E620EE82EF8
:103EA000FED7242EFCD700D084980B0E246E620E11
:103EB000E82EFED7242EFCD700D084800B0E246E73
:103EC000620EE82EFED7242EFCD700D084920B0E73
:103ED000246E620EE82EFED7242EFCD700D083B8C5
:103EE00074EF1FF077EF1FF0010E78EF1FF0000E58
:103EF000FF0A246E243A83502418EF0B2418836E93
:103F000020C01DF021C01EF091EC30F083B88BEF83
:103F10001FF08EEF1FF0010E8FEF1FF0000EFF0A53
:103F2000246E243A83502418EF0B2418836E848661
:103F30000B0E246E620EE82EFED7242EFCD700D086
:103F400084980B0E246E620EE82EFED7242EFCD72A
:103F500000D084900B0E246E620EE82EFED7242E25
:103F6000FCD700D084820B0E246E620EE82EFED7A2
:103F7000242EFCD700D083B8C0EF1FF0C3EF1FF092
:103F8000010EC4EF1FF0000EFF0A246E243A835086
:103F90002418EF0B2418836E20C01DF021C01EF0E2
:103FA00091EC30F083B8D7EF1FF0DAEF1FF0010E7D
:103FB000DBEF1FF0000EFF0A246E243A8350241812
:103FC000EF0B2418836E849684888490848283B84F
:103FD000ECEF1FF0EFEF1FF0010EF0EF1FF0000EFF
:103FE000FF0A246E243A83502418EF0B2418836EA2
:103FF00020C01DF021C01EF091EC30F083B803EF1B
:1040000020F006EF20F0010E07EF20F0000EFF0A6F
:10401000246E243A83502418EF0B2418836E849660
:104020000B0E246E620EE82EFED7242EFCD700D095
:1040300084880B0E246E620EE82EFED7242EFCD749
:1040400000D084800B0E246E620EE82EFED7242E44
:10405000FCD700D084920B0E246E620EE82EFED7A1
:10406000242EFCD700D083B838EF20F03BEF20F0AF
:10407000010E3CEF20F0000EFF0A246E243A83501C
:104080002418EF0B2418836E20C01DF021C01EF0F1
:1040900091EC30F083B84FEF20F052EF20F0010E9A
:1040A00053EF20F0000EFF0A246E243A83502418A8
:1040B000EF0B2418836E254A262A2250255C2650B1
:1040C000800A246E2350800A2458D8A06AEF20F07A
:1040D0006CEF20F04BEF1FF084960B0E246E620EF7
:1040E000E82EFED7242EFCD700D084980B0E246E29
:1040F000620EE82EFED7242EFCD700D084900B0E43
:10410000246E620EE82EFED7242EFCD700D08492B7
:104110000B0E246E620EE82EFED7242EFCD700D0A4
:1041200012003CC181F03DC182F03EC183F03FC12D
:1041300084F071C081F072C082F073C083F074C0EB
:1041400084F0810E0001756FFF0E766F81C077F0ED
:1041500082C078F083C079F084C07AF0180EB6EF90
:1041600020F0D8907A33793378337733E82EB1EF73
:1041700020F0775175257F6F000E7621806F80BF0C
:10418000CBEF20F0805109E1170E7F5DD8A0CBEF77
:1041900020F0CDEF20F0D7EF20F071C071F072C0A9
:1041A00072F073C073F074C074F09BEF21F080BFA5
:1041B000DCEF20F0DEEF20F04FEF21F07FC075F054
:1041C000FF0E766FFF0E776F7F0E786F000E796FA0
:1041D0007567EDEF20F0F5EF20F07935793378331E
:1041E00077337633752FE8EF20F076C07BF077C019
:1041F0007CF078C07DF079C07EF000017B518115A4
:10420000756F7C518215766F7D518315776F7E5166
:104210008415786F7551761177117811D8A413EF42
:1042200021F015EF21F017EF21F0CDEF20F081C044
:1042300075F082C076F083C077F084C078F0200EED
:1042400027EF21F0D8907833773376337533E82E23
:1042500022EF21F07551761177117811D8B433EF30
:1042600021F035EF21F03DEF21F07B5181277C518A
:1042700082237D5183237E5184237B1D756F7C1D9A
:10428000766F7D1D776F7E1D786F75518117765122
:104290008217775183177851841793EF21F081C0EB
:1042A00075F082C076F083C077F084C078F0200E7D
:1042B0005FEF21F0D8907833773376337533E82E7B
:1042C0005AEF21F07551761177117811D8A46BEF60
:1042D00021F06DEF21F077EF21F0000E816F000EDD
:1042E000826F000E836F000E846F93EF21F0D890E1
:1042F0008135756F8235766F8335776F8435786F4A
:104300007551761177117811D8B489EF21F08BEFC0
:1043100021F093EF21F0000E816F000E826F800E6E
:10432000836FBF0E846F81C071F082C072F083C052
:1043300073F084C074F012000001606F00016051DE
:10434000D8B4A5EF21F0A7EF21F0C9EF21F020BEEE
:10435000AEEF21F0ACEF21F0C9EF21F01DC021F04C
:104360001EC022F01FC023F020C024F0211E221EF8
:10437000231E241E212A000E22222322242221C0B1
:1043800062F022C063F023C064F024C065F0D1EF76
:1043900021F01DC062F01EC063F01FC064F020C099
:1043A00065F01D501E101F102010D8A4DAEF21F068
:1043B000DCEF21F0E6EF21F0000E1D6E000E1E6E08
:1043C000000E1F6E000E206E77EF22F0960E616FCA
:1043D000F0EF21F0612BD89065336433633362339F
:1043E000000E6215216E000E6315226E000E64151C
:1043F000236EFE0E6515246E21502210231024100A
:10440000D8A405EF22F007EF22F0EAEF21F015EF34
:1044100022F0612B010E6227000E632364236523C3
:10442000D8906533643363336233000E6215216EB6
:10443000000E6315226E000E6415236EFF0E6515C7
:10444000246E2150221023102410D8A42AEF22F029
:104450002CEF22F009EF22F034EF22F06107D89020
:10446000623763376437653764BF39EF22F03BEF5B
:1044700022F043EF22F0020E616141EF22F043EFA0
:1044800022F02EEF22F061B148EF22F04AEF22F045
:104490004BEF22F0649FD890613361C021F0226A13
:1044A000236A246A21C024F0236A226A216A2150E7
:1044B0006213225063132350641324506513605118
:1044C000D8B465EF22F067EF22F06FEF22F020BE44
:1044D0006EEF22F06CEF22F06FEF22F0658F62C07A
:1044E0001DF063C01EF064C01FF065C020F0120014
:1044F000096E0950D8B47FEF22F081EF22F0A3EFCC
:1045000022F004BE88EF22F086EF22F0A3EF22F023
:1045100001C005F002C006F003C007F004C008F0B7
:10452000051E061E071E081E052A000E062207226B
:10453000082205C00BF006C00CF007C00DF008C043
:104540000EF0ABEF22F001C00BF002C00CF003C084
:104550000DF004C00EF00150021003100410D8A496
:10456000B4EF22F0B6EF22F0C0EF22F0000E016EA1
:10457000000E026E000E036E000E046E51EF23F06B
:10458000960E0A6ECAEF22F00A2AD8900E320D3229
:104590000C320B32000E0B14056E000E0C14066E5E
:1045A000000E0D14076EFE0E0E14086E0550061058
:1045B00007100810D8A4DFEF22F0E1EF22F0C4EFDB
:1045C00022F0EFEF22F00A2A010E0B26000E0C2239
:1045D0000D220E22D8900E320D320C320B32000E0C
:1045E0000B14056E000E0C14066E000E0D14076EF3
:1045F000FF0E0E14086E0550061007100810D8A400
:1046000004EF23F006EF23F0E3EF22F00EEF23F0A8
:104610000A06D8900B360C360D360E360DBE13EF4B
:1046200023F015EF23F01DEF23F0020E0A601BEFBD
:1046300023F01DEF23F008EF23F00AB022EF23F060
:1046400024EF23F025EF23F00D9ED8900A320AC004
:1046500005F0066A076A086A05C008F0076A066A74
:10466000056A05500B1206500C1207500D12085027
:104670000E120950D8B43FEF23F041EF23F049EF79
:1046800023F004BE48EF23F046EF23F049EF23F078
:104690000E8E0BC001F00CC002F00DC003F00EC076
:1046A00004F0120083848388050E126E0F0E116EC3
:1046B000F10EE82EFED7112EFCD7122EFAD700F0FD
:1046C00083948398DCEC29F041044210D8A46BEF6A
:1046D00023F06DEF23F023EF24F019EC32F0000902
:1046E000D8B475EF23F077EF23F06DEF23F005ECEE
:1046F0002FF0356E3550016E026A036A046A000EAF
:1047000078EC22F001C027F002C028F003C029F0A5
:1047100004C02AF00B0E116E620EE82EFED7112E89
:10472000FCD700D027C001F028C002F029C003F058
:104730002AC004F0000E056E000E066E500E076EC5
:10474000400E086EF6EC19F001C027F002C028F008
:1047500003C029F004C02AF00B0E116E620EE82E81
:10476000FED7112EFCD700D027C001F028C002F0E0
:1047700029C003F02AC004F0330E056E330E066E16
:10478000330E076E3F0E086EF6EC19F001C0E4F030
:1047900002C0E5F003C0E6F004C0E7F00B0E116EB6
:1047A000620EE82EFED7112EFCD700D027C011F0E4
:1047B00028C012F029C013F02AC014F0E4C015F08C
:1047C000E5C016F0E6C017F0E7C018F09EEC2FF039
:1047D00011C048F112C049F113C04AF114C04BF1A5
:1047E0000B0E116E620EE82EFED7112EFCD700D0F4
:1047F00027C001F028C002F029C003F02AC004F04D
:10480000E4C005F0E5C006F0E6C007F0E7C008F038
:1048100040EC13F001C044F102C045F103C046F181
:1048200004C047F10B0E116E620EE82EFED7112E5A
:10483000FCD700D0000E0001F96F010EF86F000EDA
:10484000426E000E416E1200000E00016C6F000EF1
:104850006B6F000E656F000E646F31EF24F0244A19
:10486000252A010E6A6F24C0F6FF25C0F7FFF86AFB
:104870000800F550200AD8B440EF24F042EF24F0AD
:1048800060EF24F0F70E606FFF0E616F24C0F6FF3B
:1048900025C0F7FFF86A0800F550626F636B60513E
:1048A000622761516323635109E1050E625DD8A05F
:1048B0005CEF24F05EEF24F060EF24F0000E6A6FEE
:1048C0006AC066F0676B66516711D8A46AEF24F07E
:1048D0006CEF24F02FEF24F076EF24F0000E656FDC
:1048E000010E646F244A252AAEEF24F024C0F6FF9F
:1048F00025C0F7FFF86A0800F550606F616B6151E1
:10490000000AD8B486EF24F0AEEF24F060512B0AF1
:10491000D8B472EF24F0060AD8B46EEF24F0AEEFEC
:1049200024F06BC01DF06CC01EF0000E206E0A0E4D
:104930001F6E85EC31F024C0F6FF25C0F7FFF86A42
:104940000800F5501D5E000E1E5A300E1D24000199
:104950006B6F000E1E206C6F72EF24F0D00E606F34
:10496000FF0E616F24C0F6FF25C0F7FFF86A08004C
:10497000F550626F636B605162276151632363512D
:104980000AE10A0E625DD8A0C8EF24F0CBEF24F054
:10499000010ECCEF24F0000E686F696B685169114D
:1049A000D8A4D5EF24F0D7EF24F091EF24F0645190
:1049B0006511D8A4DEEF24F0E0EF24F0EEEF24F050
:1049C0006BC060F06CC061F0601F611F604B612BB9
:1049D00060C024F061C025F0F2EF24F06BC024F039
:1049E0006CC025F0120083BAF8EF24F0FBEF24F03E
:1049F000010EFCEF24F0000EFF0A256E253A254635
:104A000083502518DF0B2518836E090E266E1E0EA7
:104A1000256EE40EE82EFED7252EFCD7262EFAD7DB
:104A200000D0000EABEC30F01DC071F01EC072F073
:104A300071C01DF072C01EF01F6A206A000E9CEC4F
:104A400021F01DC0ECF01EC0EDF01FC0EEF020C044
:104A5000EFF0ECC01DF0EDC01EF0EEC01FF0EFC097
:104A600020F07B0E216E140E226EAE0E236E3E0ED3
:104A7000246EE0EC17F01DC02BF01EC02CF01FC000
:104A80002DF020C02EF02BC01DF02CC01EF02DC02C
:104A90001FF02EC020F0000E216E000E226E800E40
:104AA000236EC20E246EDFEC10F01DC02BF01EC072
:104AB0002CF01FC02DF020C02EF083BA62EF25F03D
:104AC00065EF25F0010E66EF25F0000EFF0A256E5A
:104AD000253A254683502518DF0B2518836E090ECD
:104AE000266E1E0E256EE40EE82EFED7252EFCD770
:104AF000262EFAD700D012001F342034266E2650FE
:104B0000D8A485EF25F087EF25F091EF25F0000E72
:104B10001D6E000E1E6E000E1F6E000E206EFEEF4C
:104B200025F01DC021F01EC022F01FC023F020C0C0
:104B300024F0200EA1EF25F0D89024322332223227
:104B40002132E82E9CEF25F02150256E1F8EFF0E9E
:104B50001D16FF0E1E16FF0E1F16000E2016960EB7
:104B6000265E26BEB8EF25F0B6EF25F0CEEF25F095
:104B70002650800A970FD8B0C0EF25F0C2EF25F07D
:104B8000C4EF25F087EF25F0D89020321F321E3277
:104B90001D32263EC4EF25F0E6EF25F01F0E2664F9
:104BA000D4EF25F0D6EF25F0DEEF25F087EF25F0E6
:104BB000D8901D361E361F36203626062650D8A41D
:104BC000E4EF25F0E6EF25F0D8EF25F02550D8B436
:104BD000ECEF25F0EEEF25F0F6EF25F0201E1F1E7E
:104BE0001E1E1D6C000E1E221F2220221DC01DF045
:104BF0001EC01EF01FC01FF020C020F01200000ECB
:104C000000017115796F000E72157A6F800E7315A1
:104C10007B6F7F0E74157C6F79517A117B117C113B
:104C2000D8A415EF26F017EF26F01FEF26F0000EA0
:104C3000716F000E726F000E736F000E746F000EB6
:104C40007515796F000E76157A6F800E77157B6F6C
:104C50007F0E78157C6F79517A117B117C11D8A465
:104C600034EF26F036EF26F03EEF26F0000E756F9B
:104C7000000E766F000E776F000E786F74AF43EF03
:104C800026F045EF26F04EEF26F0716D721FD8B07A
:104C9000722B731FD8B0732B800E745778AF53EFFD
:104CA00026F055EF26F05EEF26F0756D761FD8B032
:104CB000762B771FD8B0772B800E7857000E711B9C
:104CC000000E721B000E731B800E741B000E751BF2
:104CD000000E761B000E771B800E781B7551715DE0
:104CE000765172597751735978517459D8B07BEF16
:104CF00026F07DEF26F080EF26F0D89081EF26F0A9
:104D0000D880120040C162F041C163F042C164F03A
:104D100043C165F01DC062F01EC063F01FC064F0A7
:104D200020C065F062C021F063C022F064C023F0AF
:104D300065C024F0180EA2EF26F0D890243223325A
:104D400022322132E82E9DEF26F021500001606FC3
:104D5000616B60516111D8A4B0EF26F0B2EF26F07C
:104D6000D2EF26F0D8906235216E6335226E64351D
:104D7000236E6535246E2150221023102410D8A4F0
:104D8000C4EF26F0C6EF26F0CCEF26F0000E1E6E24
:104D9000020E1D6E01EF27F0000E1E6E030E1D6E3B
:104DA00001EF27F060296111D8A4D9EF26F0DBEFDD
:104DB00026F0FDEF26F062C021F063C022F064C04F
:104DC00023F065C024F0090ED89021362236233610
:104DD0002436E82EE4EF26F0215022102310241070
:104DE000D8B4F5EF26F0F8EF26F0010EF9EF26F033
:104DF000000E1D6E1E6A01EF27F0000E1E6E040EDF
:104E00001D6E1200CDEC31F02EEC32F02EEC2FF0B6
:104E1000A40E1D6E460E1E6E6EEC32F0F28EF28CFB
:104E20008382090E206E1E0E1F6EE40EE82EFED742
:104E30001F2EFCD7202EFAD700D08384090E206EB7
:104E40001E0E1F6EE40EE82EFED71F2EFCD7202E5E
:104E5000FAD700D0848A84848388090E206E1E0EBF
:104E60001F6EE40EE82EFED71F2EFCD7202EFAD799
:104E700000D0838A090E206E1E0E1F6EE40EE82EEF
:104E8000FED71F2EFCD7202EFAD700D08392090E12
:104E9000206E1E0E1F6EE40EE82EFED71F2EFCD7CE
:104EA000202EFAD700D08394090E206E1E0E1F6E9E
:104EB000E40EE82EFED71F2EFCD7202EFAD700D006
:104EC0008398090E206E1E0E1F6EE40EE82EFED78C
:104ED0001F2EFCD7202EFAD700D0839A090E206E01
:104EE0001E0E1F6EE40EE82EFED71F2EFCD7202EBE
:104EF000FAD700D012001DC060F01EC061F01FC0C4
:104F000062F020C063F02106D8A02206212806E125
:104F10002228D8A48EEF27F090EF27F09EEF27F0FD
:104F2000000E1E6E000E1D6EE9EF27F00001604BB3
:104F3000612B624B632B2106D8A0220660C0D9FFEB
:104F400061C0DAFFDF50D8B4A8EF27F0AAEF27F04E
:104F5000D7EF27F062C0F6FF63C0F7FFF86A0800DA
:104F6000F5500009D8B4B7EF27F0B9EF27F0D7EF25
:104F700027F021502210D8B4C0EF27F0C2EF27F05D
:104F8000D7EF27F060C0D9FF61C0DAFFDF50236E92
:104F900062C0F6FF63C0F7FFF86A0800F5502318F7
:104FA000D8B4D5EF27F0D7EF27F096EF27F060C001
:104FB000D9FF61C0DAFFDF50236E62C0F6FF63C025
:104FC000F7FFF86A0800F550235C1D6E1E6AD8A032
:104FD0001E0612008FB8EFEF27F0F3EF27F01D6ADF
:104FE0001D2AF4EF27F01D6A1D50316E326A26EF3C
:104FF00028F00B0E1D6E620EE82EFED71D2EFCD77C
:1050000000D00001FC29FC6FFA0EFC650AEF28F0C5
:105010000CEF28F00EEF28F02FEF28F08FB813EFE9
:1050200028F017EF28F01D6A1D2A18EF28F01D6AD6
:105030001D50316E326A31043210D8A422EF28F0AC
:1050400024EF28F026EF28F02FEF28F0315032100F
:10505000D8B42DEF28F02FEF28F0F9EF27F000015A
:10506000FC51D8B436EF28F038EF28F050EF28F094
:10507000F90EFC653EEF28F040EF28F044EF28F0F1
:10508000000EFB6F020EFA6FFA0EFC614AEF28F079
:105090004CEF28F050EF28F0000EFB6F010EFA6F76
:1050A00012002FA056EF28F058EF28F062EF28F0FA
:1050B0006AC023F06BC024F068C025F069C026F0F8
:1050C00056EC2FF000016DBF68EF28F06AEF28F072
:1050D00070EF28F06CC071F06DC072F074EF28F0C2
:1050E000000E726F000E716F000E706F000E6F6F0A
:1050F00087EF28F0000E206E200E1F6E68C021F092
:1051000069C022F08AEC2BF000016F4B702B7151BB
:105110006F5D7051800A6E6F7251800A6E59D8A00F
:1051200094EF28F096EF28F07AEF28F02FB09BEF5D
:1051300028F09DEF28F0A7EF28F06AC023F06BC09D
:1051400024F068C025F069C026F056EC2FF06AC044
:105150001DF06BC01EF076EC30F0000171511D2483
:10516000686F72511E20696F120000016A6F000E95
:1051700000016C6F000E6B6F00016A513BEC2BF06D
:105180000009D8B4C6EF28F0C8EF28F0BCEF28F02B
:1051900066C01DF067C01EF068C01FF069C020F037
:1051A00098EC31F08BEC32F066C0D9FF67C0DAFFC3
:1051B000DF6EB00E226E610E236E6B0E246E000E3B
:1051C000256EF6EC31F0000120EE01F06651D92693
:1051D0006751DA228BEC32F0DF6EC2EC30F0E80679
:1051E000D8B4F5EF28F0F7EF28F0EDEF28F03C50B9
:1051F0001D6E1E6A1F6A206A000E9CEC21F01DC005
:10520000E8F01EC0E9F01FC0EAF020C0EBF03D500E
:105210001D6E1E6A1F6A206A000E9CEC21F01DC0E4
:105220004CF11EC04DF11FC04EF120C04FF11200D5
:10523000000E226E20BE21EF29F01FEF29F027EF8C
:1052400029F01F6C201ED8B0202A010E226E1EBE2F
:105250002EEF29F02CEF29F034EF29F01D6C1E1EE3
:10526000D8B01E2A010E221A000E246E000E236EE4
:105270001F502010D8B43FEF29F041EF29F069EF1B
:1052800029F0010E216E49EF29F0D8901F36203603
:10529000212A20AE4EEF29F050EF29F045EF29F0FA
:1052A000D890233624361F501D5C20501E58D8A09D
:1052B0005CEF29F05EEF29F063EF29F01F501D5ECF
:1052C00020501E5A2380D89020321F32212E50EFBA
:1052D00029F02250D8B46FEF29F071EF29F075EF63
:1052E00029F0236C241ED8B0242A23C01DF024C02A
:1052F0001EF0120038EC32F00009D8B482EF29F029
:1053000084EF29F0BFEF29F092EF29F0A7EC32F0FB
:10531000DBEF29F0A3EC32F0DBEF29F09BEC32F06D
:10532000DBEF29F012C10AF013C10BF002D8A3EF92
:1053300029F00500FA6E01010651FD6E0751FE6E5F
:10534000FF6AFA5012000C6E0D6A0D50000AD8B4B4
:10535000ACEF29F08EEF29F00C50010AD8B48EEF93
:1053600029F0030AD8B486EF29F0010AD8B48AEFED
:1053700029F0070AD8B48EEF29F08EEF29F0010149
:1053800023911DC1D9FF1EC1DAFF1D4B1E2BDF501B
:10539000ABEC32F001011F07D8A020071F512011EC
:1053A000D8A4D5EF29F0D7EF29F0DAEF29F0060ECF
:1053B000DBEF29F0030E1200240E3924D96EDA6ACD
:1053C000010EDA22000EDF6E9DA4E9EF29F0EBEF6B
:1053D00029F0FFEF29F0240E3924D96EDA6A010E84
:1053E000DA220101DF8202D8FFEF29F00500FA6E10
:1053F000C451FD6EC551FE6EFF6AFA5012009DA2A7
:1054000004EF2AF006EF2AF01AEF2AF0240E3924CE
:10541000D96EDA6A010EDA220101DF8402D81AEFAE
:105420002AF00500FA6EC251FD6EC351FE6EFF6A8E
:10543000FA501200240E3924D96EDA6A010EDA22EB
:10544000DF50D8B426EF2AF028EF2AF037EF2AF001
:1054500002D835EF2AF00500FA6E0101C051FD6E49
:10546000C151FE6EFF6AFA50120039EF2AF05CEC6F
:1054700031F01200000E226E1EBE43EF2AF041EF03
:105480002AF049EF2AF01D6C1E1ED8B01E2A010E0C
:10549000226E20BE50EF2AF04EEF2AF054EF2AF091
:1054A0001F6C201ED8B0202A1F502010D8B45BEFEC
:1054B0002AF05DEF2AF081EF2AF0010E216E65EFF0
:1054C0002AF0D8901F362036212A20AE6AEF2AF023
:1054D0006CEF2AF061EF2AF01F501D5C20501E581F
:1054E000D8A075EF2AF077EF2AF07BEF2AF01F5053
:1054F0001D5E20501E5AD89020321F32212E6CEF94
:105500002AF02250D8B487EF2AF089EF2AF08DEFE5
:105510002AF01D6C1E1ED8B01E2A1DC01DF01EC014
:105520001EF01200000E1D140001606F000E1E140C
:10553000616F800E1F14626F7F0E2014636F6051C5
:10554000611162116311D8A4A8EF2AF0AAEF2AF022
:10555000B2EF2AF0000E1D6E000E1E6E000E1F6EC2
:10556000000E206E000E2114606F000E2214616F79
:10557000800E2314626F7F0E2414636F60516111DB
:1055800062116311D8A4C7EF2AF0C9EF2AF0D1EF56
:105590002AF0000E216E000E226E000E236E000E09
:1055A000246E21501D180FE122501E180CE12350CB
:1055B0001F1809E124502018D8B4E1EF2AF0E3EFD6
:1055C0002AF0E6EF2AF0D890E7EF2AF0D880120010
:1055D000D5EC32F01DC1D9FF1EC1DAFFDF6E01012B
:1055E0001D4B1E2B1F07D8A020071F512011D8B418
:1055F000FCEF2AF0FEEF2AF003EF2BF0C1EC32F0C3
:10560000050E3AEF2BF023870EEF2BF08FEC32F0E4
:105610003AEF2BF093EC32F03AEF2BF00CC10AF09A
:105620000DC10BF002D81EEF2BF00500FA6E0051F1
:10563000FD6E0151FE6EFF6AFA5012000C6E0D6A8B
:105640000D50000AD8B427EF2BF00AEF2BF00C50C6
:10565000010AD8B40AEF2BF0030AD8B406EF2BF0F6
:10566000010AD8B406EF2BF0070AD8B40AEF2BF0E2
:105670000AEF2BF012001F6E010E206E010123B500
:1056800044EF2BF046EF2BF088EF2BF01FC01CF1FE
:105690002393238523910E0E216F010E1B6FF40EB1
:1056A0001A6F2387B60E006F650E016F000E0C6F28
:1056B000000E0D6FB60E026F650E036F000E0E6FBB
:1056C000000E0F6FB60E046F650E056F000E106FA3
:1056D000000E116FB60E066F650E076F000E126F8B
:1056E000000E136FB20E086F650E096F000E146F77
:1056F000000E156F700E1D6E650E1E6E82EC32F080
:10570000B5EC32F0BCEC31F0AFEC32F0000E206EB4
:105710002050120021502210D8B491EF2BF093EFBB
:105720002BF09CEF2BF021502210D8A49AEF2BF0F5
:105730009CEF2BF0A1EF2BF01F5064EC32F0D5EF73
:105740002BF020EE04F02150D9262250DA22DE5030
:10575000DE10D8B4AEEF2BF0B0EF2BF0CCEF2BF087
:1057600020EE04F02150D9262250DA2210EE02F069
:105770002150E1262250E222DE50E65CE650800A0B
:105780000001646FDE50800A6459D8B0CAEF2BF074
:10579000CCEF2BF0D5EF2BF020EE02F02150D926E4
:1057A0002250DA22DE2A000EDD2212000001F80566
:1057B000F911D8A4DEEF2BF0E0EF2BF01BEF2CF06B
:1057C0000EEC32F00009D8B4E8EF2BF0EAEF2BF042
:1057D000E0EF2BF0210E0101AA6F0F0EAB6FB6C1E7
:1057E000ACF1B7C1ADF1B8C1AEF1B9C1AFF1BAC159
:1057F000B0F1BBC1B1F1BCC1B2F1BDC1B3F171EC4B
:1058000031F0060E0001E36F300EE82EFED7E32FD5
:10581000FCD700F05E0E0101AA6F0F0EAB6F71ECAA
:1058200031F024EC32F00009D8B419EF2CF01BEF62
:105830002CF011EF2CF012009A0EF66E650EF76E3A
:10584000000EF86E01EEC8F010EE04F00900F5CF7E
:10585000EEFFE550E150FAE1C20EF66E650EF76E0E
:10586000000EF86E0900F5CFFDF00900F5CFFEF04F
:105870000900F5CFFFF0C50EF66E650EF76E000E4F
:10588000F86E0900F5CF41F00900F5CF42F001EEC6
:1058900000F0A40EEE6AE806FDE100EEE4F0190E59
:1058A000EE6AE806FDE100EE27F0170EEE6AE80664
:1058B000FDE1439043920001A0EF15F00101238721
:1058C0006FEF2CF09FEC32F09BEF2CF0BEEC32F03F
:1058D000030E9BEF2CF09BEC32F09BEF2CF00CC1F5
:1058E0000AF00DC10BF002D87FEF2CF00500FA6E24
:1058F0000051FD6E0151FE6EFF6AFA5012000C6EEF
:105900000D6A0D50000AD8B488EF2CF06BEF2CF024
:105910000C50010AD8B46BEF2CF0030AD8B462EF34
:105920002CF0010AD8B462EF2CF0070AD8B466EF65
:105930002CF06BEF2CF01200216E1D501E10D8B40D
:10594000A4EF2CF0A6EF2CF0C0EF2CF02150020DAC
:10595000000EF324D96E010EF420DA6E1DC0DEFFB6
:105960001EC0DDFF2150020D0C0EF324D96E010E76
:10597000F420DA6E1FC0DEFF20C0DDFFD8EF2CF070
:105980002150020D000EF324D96E010EF420DA6EC0
:10599000B60EDE6E650EDD6E2150020D0C0EF32488
:1059A000D96E010EF420DA6E000EDE6E000EDD6E92
:1059B0001200056E01500210D8B4E1EF2CF0E3EFB5
:1059C0002CF0FDEF2CF00550020D000EF324D96EE3
:1059D000010EF420DA6E01C0DEFF02C0DDFF0550CB
:1059E000020D0C0EF324D96E010EF420DA6E03C002
:1059F000DEFF04C0DDFF15EF2DF00550020D000E97
:105A0000F324D96E010EF420DA6EB60EDE6E650E4A
:105A1000DD6E0550020D0C0EF324D96E010EF4203C
:105A2000DA6E000EDE6E000EDD6E12000E01C59BFA
:105A3000B80E1D6E530E1E6E6EEC32F00E01C5993F
:105A4000820E1D6E5F0E1E6E69EC32F0080E9F6EA8
:105A5000900E9D6E240E9E6E9B68020E9C6EC80E6C
:105A60001D6E650E1E6E78EC32F08E0E1D6E650E8C
:105A70001E6E73EC32F0940E1D6E650E1E6E7DEC84
:105A800032F0000E366E000E3B6E000E3A6E080EBF
:105A9000406E000E396E000E386E000E376E0E012D
:105AA000C58B1200BBEC32F0010123A15AEF2DF09F
:105AB0005CEF2DF069EF2DF038EC32F00009D8B42E
:105AC00064EF2DF066EF2DF069EF2DF00F0E010160
:105AD000216F01012151020D010EF324F66E0F0E0C
:105AE000F420F76EF86A000EF8220900F5CF0EF0E8
:105AF0000900F5CF0FF002D887EF2DF00500FA6E00
:105B00000E50FD6E0F50FE6EFF6AFA50120001013A
:105B1000216F1200000E836E000E846E000E856EE3
:105B2000890E886EC00E896E7C0E8A6EA00E0F01E3
:105B3000216FC00E196F010E116F000E2D6F000E38
:105B4000186F000E106F000E206F000E0F6F000E0A
:105B5000176F000E1F6F0E6916691E690D691569B2
:105B60001D69080E2A6F130E0E01B76F160EB56F62
:105B70000F0EFA6F100EF96F090EFE6F120EB86F4E
:105B8000120001012391020E226FCFEF2DF09FEC46
:105B900032F0F3EF2DF09BEC32F0F3EF2DF010C16B
:105BA0000AF011C10BF002D8DFEF2DF00500FA6EFC
:105BB0000451FD6E0551FE6EFF6AFA5012000C6E24
:105BC0000D6A0D50000AD8B4E8EF2DF0CBEF2DF0A0
:105BD0000C50020AD8B4C7EF2DF0010AD8B4C7EFB1
:105BE0002DF0CBEF2DF01200A6C1E1F0A7C1E2F03D
:105BF000000E0001F16F000EF06F12EF2EF0A4C145
:105C0000C9F0A5C1CAF0E10ECB6F000ECC6FA8C1E0
:105C1000CDF0A9C1CEF007EC0EF00001C951F0277C
:105C2000CA51F123E1C0F6FFE2C0F7FFF86A0800AD
:105C3000F5500009D8A41FEF2EF021EF2EF0FFEF52
:105C40002DF0F0C0A4F1F1C0A5F11200BF0E0001CB
:105C5000606FFF0E616F23C062F024C063F060517B
:105C600062276151632363510AE11A0E625DD8A075
:105C70003CEF2EF03FEF2EF0010E40EF2EF0000E25
:105C8000256E266A25502610D8B449EF2EF04BEF2A
:105C90002EF052EF2EF0200E2310236E2450246E8F
:105CA00056EF2EF023C023F024C024F012001FC0B2
:105CB00023F020C024F01DC025F01EC026F0235084
:105CC000216E2450226E234A242A21C0F6FF22C0CE
:105CD000F7FF000EF86E25C0D9FF26C0DAFF254A6F
:105CE000262A0E0EF76403D00800F55005D0F6CF33
:105CF000E9FFF7CFEAFFEF50DF6EDF50D8A483EF64
:105D00002EF085EF2EF05FEF2EF012001D6E40504A
:105D1000D8B48DEF2EF08FEF2EF087EF2EF00E011E
:105D2000C5B995EF2EF097EF2EF09BEF2EF01DC02A
:105D30009AFFB0EF2EF0C599340E3B24D96EDA6A83
:105D4000010EDA221DC0DFFF3B2A070E3B64ABEFDA
:105D50002EF0ADEF2EF0AFEF2EF0000E3B6E4006B2
:105D6000C58912000001606F000E0001626F000E15
:105D7000616F000160513BEC2BF00009D8B4C3EF18
:105D80002EF0C5EF2EF0B9EF2EF087EC32F0DC0EDE
:105D9000226E610E236E610E246E000E256EF6ECEF
:105DA00031F0C2EC30F0E806D8B4D9EF2EF0DBEFDA
:105DB0002EF0D1EF2EF01200010E236E200E1D18D2
:105DC0001E10D8B4E6EF2EF0E8EF2EF001EF2FF022
:105DD000F70E1F6EFF0E206E1DC021F01EC022F0B8
:105DE0001F50212620502222225009E1050E215C5D
:105DF000D8A0FDEF2EF0FFEF2EF001EF2FF0000EF8
:105E0000236E23C01DF01E6A12003750D8B40BEF6A
:105E10002FF00DEF2FF005EF2FF0240E3824D96E60
:105E2000DA6A010EDA22DF50366E2C0E3824D96E73
:105E3000DA6A010EDA22DF50016E382A070E386462
:105E400024EF2FF026EF2FF028EF2FF0000E386E02
:105E50000E01C59B3706C58B01501200000E6A6EFD
:105E6000000E6B6E000E6C6E000E6D6E000E686E96
:105E7000000E696E000E666E000E0F015F6F000E61
:105E80005D6F000E5E6F000E596F000E5A6F000EB0
:105E90005B6F000E656E000E586F000E566F1F0E82
:105EA000576FC40E606E000E5C6F1200000E000192
:105EB000676F000E666F69EF2FF065C01FF0206AF4
:105EC00025C021F026C022F08AEC2BF00001664BA1
:105ED000672B66512324D96E67512420DA6EDF5078
:105EE000656F6551D8A477EF2FF079EF2FF05DEF54
:105EF0002FF01200000E0001751B000E761B000E25
:105F0000771B800E781B71C01DF072C01EF073C02D
:105F10001FF074C020F075C021F076C022F077C069
:105F200023F078C024F0DFEC10F01DC071F01EC02B
:105F300072F01FC073F020C074F01200000E151A2A
:105F4000000E161A000E171A800E181A11C001F052
:105F500012C002F013C003F014C004F015C005F025
:105F600016C006F017C007F018C008F040EC13F098
:105F700001C011F002C012F003C013F004C014F00D
:105F80001200080E4060C7EF2FF0C9EF2FF0DFEFCF
:105F90002FF0340E3A24D96EDA6A010EDA22DF507D
:105FA0009A6E3A2A070E3A64D8EF2FF0DAEF2FF004
:105FB000DCEF2FF0000E3A6E402AE1EF2FF00E01D9
:105FC000C59912001D6E010E1E6E010123B3EBEF89
:105FD0002FF0EDEF2FF000EF30F02383000E1E6E58
:105FE0001D50D8B4F6EF2FF0F8EF2FF0FCEF2FF0A4
:105FF000010E216FFEEF2FF0020E216FD1EC32F077
:106000001E50120020EE02F00A50D9260B50DA2260
:10601000DECF01F0DDCF02F00AC0D9FF0BC0DAFFFE
:10602000DECF03F0DDCF04F0AAEC31F0000E066EF7
:10603000000E076E000E086E000E096E02EC32F0C4
:10604000020E1200BF0E1F6EFF0E206E1DC021F04B
:106050001EC022F01F5021262050222222500AE189
:106060001A0E215CD8A037EF30F03AEF30F0010E75
:106070003BEF30F0000E1D6E1E6A12001D501E1008
:106080001F102010D8B447EF30F049EF30F051EF37
:1060900030F0000E1D1A000E1E1A000E1F1A800E80
:1060A000201A1DC01DF01EC01EF01FC01FF020C012
:1060B00020F01200D00E1F6EFF0E206E1DC021F0CA
:1060C0001EC022F01F5021262050222222500AE119
:1060D0000A0E215CD8A06FEF30F072EF30F0010EA5
:1060E00073EF30F0000E1D6E1E6A12001DC01FF00F
:1060F0001EC020F07EEF30F01D4A1E2A1DC0D9FFC1
:106100001EC0DAFFDF50D8A488EF30F08AEF30F0FD
:106110007CEF30F01F501D5C1D6E20501E581E6E0F
:1061200012009DEF30F01D06D8A01E060B0E1F6E4C
:10613000480EE82EFED71F2EFCD71EBEAAEF30F069
:106140001E5006E11D04D8B0A8EF30F0AAEF30F0E1
:1061500093EF30F01200216E21C05FFF608E609CD3
:10616000608060B0B6EF30F0B8EF30F0B1EF30F0F3
:106170006450206E1F6A63501F241D6E000E202085
:106180001E6E1200010E1D6E010123B3CAEF30F026
:10619000CCEF30F0D6EF30F023951C69B5EC32F03F
:1061A000B2EC32F0D3EC32F022C11DF01D501200DF
:1061B0000AC001F00BC002F0000E046E010E036E67
:1061C000AAEC31F0000E066E000E076E000E086E8F
:1061D000000E096E02EC32F0020E12000AC001F04D
:1061E0000BC002F0000E046E010E036EAAEC31F03B
:1061F000000E066E000E076E000E086E000E096E91
:1062000002EC32F0040E12000AC001F00BC002F0E2
:10621000000E046E010E036EAAEC31F0000E066E45
:10622000000E076E000E086E000E096E02EC32F0D2
:10623000040E12000AC001F00BC002F0000E046E42
:10624000020E036EAAEC31F0000E066E000E076E11
:10625000000E086E000E096E02EC32F0020E120003
:106260000AC001F00BC002F0000E046E010E036EB6
:10627000AAEC31F0000E066E000E076E000E086EDE
:10628000000E096E02EC32F0020E12000AC001F09C
:106290000BC002F0000E046E020E036EAAEC31F089
:1062A000000E066E000E076E000E086E000E096EE0
:1062B00002EC32F0040E12002C0E3924D96EDA6A88
:1062C000010EDA2299CFDFFF392A070E39646BEF0E
:1062D00031F06DEF31F06FEF31F0000E396E372A8B
:1062E0001200AC0E0101B46F010EB56F000EA46F69
:1062F000000EA56FAAC1A6F1ABC1A7F1B40EA86F9D
:10630000010EA96FF4EC2DF012001D501F02F3CF07
:1063100021F0F4CF22F01D502002F35022261E500F
:106320001F02F350222621C01DF022C01EF01200D1
:10633000010123A79EEF31F0A0EF31F0A9EF31F07A
:106340001DC01DF11EC01EF11FC01FF120C020F195
:1063500023971200010123A7B0EF31F0B2EF31F023
:10636000BBEF31F001C01DF102C01EF103C01FF1EF
:1063700004C020F12397120096BAC1EF31F0C3EFA9
:1063800031F0CCEF31F0000E956E080E966E000ED7
:10639000976E4F0E936E968A1200CFEC32F0DCECC3
:1063A00031F02EEC32F08AEC2DF0EAEC31F02EECEC
:1063B0002FF016EC2DF01200000E0E01E16F000E12
:1063C000E26F000EE36F000EE46F000EE56F000E4B
:1063D000E66F1200600E0E01D86F000EDA6F000E2D
:1063E000DC6F060EDE6F000EDD6F120022C01DF0A6
:1063F00023C01EF024C01FF025C020F0000E9CEC2E
:106400002CF0120006C001F007C002F008C003F033
:1064100009C004F0000ED9EC2CF012004050D8A4B2
:1064200014EF32F017EF32F0010E18EF32F0000ED9
:1064300012003750D8A41FEF32F022EF32F0010ED5
:1064400023EF32F0000E12009EB229EF32F02CEF53
:1064500032F0010E2DEF32F0000E1200000E956E9C
:10646000080E966E000E976E4F0E936E969A12005F
:1064700097BC3DEF32F040EF32F0010E41EF32F0C9
:10648000000E1200010123811C511C25ABEC32F0DF
:10649000030E120001012381D8801C35ABEC32F0D1
:1064A000050E120001012393000E226F0E0E120042
:1064B00001012391D7EC32F0040E12000101239365
:1064C000000E226F0E0E12001E6E1E5086EC2EF075
:1064D00012001DC03EF01EC03FF012001DC0C6F1EC
:1064E0001EC0C7F112001DC0C2F11EC0C3F11200D0
:1064F0001DC0C4F11EC0C5F112001DC0C0F11EC0F8
:10650000C1F112001DC033F01EC034F01200000EA5
:10651000E2EC2FF01200010EE2EC2FF01200C4ECBE
:1065200032F0090E1200C4EC32F00A0E1200C1EC77
:1065300032F0050E1200DDEC32F0000E1200DFEC3E
:1065400032F0010E1200DFEC32F0020E1200DFEC2E
:1065500032F0010E1200016E01C092FF12000E0116
:10656000C58112000E01C59112000E01CD911200DD
:1065700052EC2DF012000E01CD9112000E01CD81D2
:106580001200979A97881200978A978812009D9810
:106590009D8812005CEC31F012007B14AE3EF29A42
:1065A000120097801200969A12009250120097865D
:1065B0001200050E1200010E12009784120097823D
:0765C0001200010027010099
:0265C8001200BF
:020000040020DA
:10000000FF0FFF0FFF0FFF0FFF0FFF0FFF0FFF0F80
:020000040030CA
:0C0000008CFFFFFF9FFFFFFFFFFFFFFFD3
:00000001FF
