:040000009CEF00F081
:100008004582FACF11F0FBCF12F0D9CF13F0DACF37
:1000180014F0F3CF15F0F4CF16F0F6CF17F0F7CFB2
:1000280018F0F8CF19F0F5CF1AF0F2AC1EEF00F087
:1000380020EF00F086EF00F00E01C5AB26EF00F0D0
:1000480028EF00F03EEF00F0CDAB2DEF00F02FEFE2
:1000580000F03EEF00F002D83CEF00F00500FA6E29
:100068000001FD51FD6EFE51FE6EFF6AFA5012004E
:1000780086EF00F0C5A943EF00F045EF00F05AEF16
:1000880000F0CDA94AEF00F04CEF00F05AEF00F075
:1000980002D858EF00F00500FA6E4150FD6E42504C
:1000A800FE6EFF6AFA50120086EF00F0C5A15FEFFE
:1000B80000F061EF00F076EF00F0CDA166EF00F000
:1000C80068EF00F076EF00F002D874EF00F005005A
:1000D800FA6E3850FD6E3950FE6EFF6AFA50120003
:1000E80086EF00F0C5A37BEF00F07DEF00F086EF10
:1000F80000F0CDA382EF00F084EF00F086EF00F06F
:1001080068EF00F01AC0F5FF19C0F8FF18C0F7FF34
:1001180017C0F6FF16C0F4FF15C0F3FF14C0DAFFCE
:1001280013C0D9FF12C0FBFF11C0FAFF459211009E
:04013800DDEF25F0E2
:100F000000C2529A528A528A436846B6523C4842BC
:100F1000533A5332532A5322531A531253AA52F0BC
:100F20004A57696E642053706565643A2025312EF6
:100F3000306600494E46004E414E00696E66006EB6
:100F4000616E006C66000D0A0000000E0001A46FC7
:100F5000000EA36F7FC0B5F080C0B6F081C0B7F0BF
:100F600082C0B8F0B8BFB9EF07F0B7EF07F0CFEF26
:100F700007F0000EA46F010EA36FB5C01BF0B6C042
:100F80001CF0B7C01DF0B8C01EF0B7EC27F01BC0B6
:100F9000B5F01CC0B6F01DC0B7F01EC0B8F0000E12
:100FA0000001BC6F000EBB6FF1C0A7F0F2C0A8F04B
:100FB000A351A411D8A4DFEF07F0E1EF07F0E8EFA9
:100FC00007F034A4E6EF07F0E8EF07F002EF08F0CF
:100FD000A351A411D8A4EFEF07F0F1EF07F0F7EF5A
:100FE00007F0000E8A6F2B0E896FFBEF07F0000EE3
:100FF0008A6F2D0E896F89C034F1BB4BBC2BA707BC
:10100000D8A0A807B5C01BF0B6C01CF0B7C01DF033
:10101000B8C01EF012EC20F01B041C10D8A413EF73
:1010200008F015EF08F06CEF08F0BF0E0001846FB8
:10103000FF0E856F8351866F876B8451862785519C
:10104000872387510AE11A0E865DD8A02AEF08F09F
:101050002DEF08F0010E2EEF08F0000E8B6F8C6B59
:101060008B518C11D8B437EF08F039EF08F047EF07
:1010700008F0340EBB251B6E010EBC211C6E330E16
:101080001D6E0F0E1E6E3DEC26F053EF08F0340E71
:10109000BB251B6E010EBC211C6E3B0E1D6E0F0E80
:1010A0001E6E3DEC26F00001FD0EA727FF0EA823C3
:1010B0007DC063F07EC064F0340E656F010E666F14
:1010C000A7C067F0A8C068F0FFEC20F063C07DF017
:1010D00064C07EF0FAEF0DF0B5C01BF0B6C01CF096
:1010E000B7C01DF0B8C01EF012EC20F01B501C1051
:1010F000D8A47DEF08F07FEF08F0D6EF08F0BF0E20
:101100000001846FFF0E856F8351866F876B84515A
:1011100086278551872387510AE11A0E865DD8A05C
:1011200094EF08F097EF08F0010E98EF08F0000E2A
:101130008D6F8E6B8D518E11D8B4A1EF08F0A3EF97
:1011400008F0B1EF08F0340EBB251B6E010EBC2178
:101150001C6E370E1D6E0F0E1E6E3DEC26F0BDEFA1
:1011600008F0340EBB251B6E010EBC211C6E3F0E19
:101170001D6E0F0E1E6E3DEC26F00001FD0EA72722
:10118000FF0EA8237DC063F07EC064F0340E656F4F
:10119000010E666FA7C067F0A8C068F0FFEC20F0F2
:1011A00063C07DF064C07EF0FAEF0DF0000E000128
:1011B000BD6F000EBE6F800EBF6F3F0EC06F000E82
:1011C000BA6F000EB96FB5C01BF0B6C01CF0B7C047
:1011D0001DF0B8C01EF0000E1F6E000E206E000E37
:1011E000216E000E226EDFEC22F0D8B0FAEF08F08C
:1011F000FCEF08F081EF09F01BEF09F0BDC01BF018
:10120000BEC01CF0BFC01DF0C0C01EF0000E1F6E9F
:10121000000E206E200E216E410E226E99EC15F00C
:101220001BC0BDF01CC0BEF01DC0BFF01EC0C0F092
:101230000001B94BBA2BB5C06DF0B6C06EF0B7C0A7
:101240006FF0B8C070F0000E1F6E000E206E200E02
:10125000216E410E226EBDC01BF0BEC01CF0BFC08F
:101260001DF0C0C01EF099EC15F01BC071F01CC041
:1012700072F01DC073F01EC074F08FEC1FF00001FF
:10128000D8B045EF09F047EF09F0FEEF08F067EF3F
:1012900009F0BDC01BF0BEC01CF0BFC01DF0C0C037
:1012A0001EF0000E1F6E000E206E200E216E410EED
:1012B000226EC4EC19F01BC0BDF01CC0BEF01DC0F6
:1012C000BFF01EC0C0F00001B907D8A0BA07B5C072
:1012D0006DF0B6C06EF0B7C06FF0B8C070F0BDC0B2
:1012E00071F0BEC072F0BFC073F0C0C074F08FEC7C
:1012F0001FF00001D8A07FEF09F081EF09F049EF5E
:1013000009F083C021F0226A0DEC26F02150000183
:10131000AA6FAAC0A9F0670EAA19D8A492EF09F083
:1013200094EF09F0BAEF09F0F351F411D8A49BEF50
:1013300009F09DEF09F0A1EF09F0000EF46F010E26
:10134000F36FF4BFAEEF09F0F45106E1F305D8B046
:10135000ACEF09F0AEEF09F0B4EF09F0000EA66FA4
:10136000060EA56FC3EF09F0F3C0A5F0F4C0A6F018
:10137000C3EF09F0F4BFBFEF09F0C1EF09F0AEEF22
:1013800009F0B4EF09F0670EAA19D8A4CAEF09F062
:10139000CCEF09F0FBEF09F0BAAFDAEF09F0FC0E81
:1013A000B95DFF0EBA59D8A0D8EF09F0DAEF09F00D
:1013B000F9EF09F0FF0E846FFF0E856FA5C086F070
:1013C000A6C087F08451862785518723B951865D51
:1013D0008751800A886FBA51800A8859D8A0F3EFE4
:1013E00009F0F5EF09F0F9EF09F0660EA96FFBEFD0
:1013F00009F0650EA96FA5C09BF0A6C09CF0670E12
:10140000AA19D8A406EF0AF008EF0AF018EF0AF0BC
:10141000660EA919D8A40FEF0AF011EF0AF01AEF1F
:101420000AF0BABF18EF0AF016EF0AF01AEF0AF046
:101430009B4B9C2B660EA919D8A421EF0AF023EF31
:101440000AF043EF0AF0BABF2AEF0AF028EF0AF0D9
:1014500036EF0AF0000EBD6F000EBE6F800EBF6F3C
:101460003F0EC06F000EBA6F000EB96F670EAA195B
:10147000D8B43DEF0AF03FEF0AF043EF0AF0B9515C
:101480009B27BA519C23000EB46F000EB36FB5C0FA
:10149000ABF0B6C0ACF0B7C0ADF0B8C0AEF0BDC0F8
:1014A0009DF0BEC09EF0BFC09FF0C0C0A0F0D4EFC2
:1014B0000AF0ABC01BF0ACC01CF0ADC01DF0AEC05C
:1014C0001EF0BDC01FF0BEC020F0BFC021F0C0C0E4
:1014D00022F0C4EC19F01BC027F01CC028F01DC07E
:1014E00029F01EC02AF092EC1BF027C0AFF028C0F4
:1014F000B0F029C0B1F02AC0B2F0AFC01BF0B0C04C
:101500001CF0B1C01DF0B2C01EF00CEC1FF01BC0EF
:10151000A1F01CC0A2F0ABC06DF0ACC06EF0ADC0CD
:101520006FF0AEC070F0BDC01FF0BEC020F0BFC0F5
:1015300021F0C0C022F0AFC01BF0B0C01CF0B1C0A1
:101540001DF0B2C01EF099EC15F01BC071F01CC06C
:1015500072F01DC073F01EC074F036EC27F06DC041
:10156000ABF06EC0ACF06FC0ADF070C0AEF0BDC0FF
:101570001BF0BEC01CF0BFC01DF0C0C01EF0000EAE
:101580001F6E000E206E200E216E410E226EC4ECE6
:1015900019F01BC0BDF01CC0BEF01DC0BFF01EC0C6
:1015A000C0F00001B34BB42B9B51B35DB451800A22
:1015B000846F9C51800A8459D8A0E1EF0AF0E3EFD0
:1015C0000AF059EF0AF0BDC01BF0BEC01CF0BFC04E
:1015D0001DF0C0C01EF0000E1F6E000E206EA00E8B
:1015E000216E400E226E99EC15F01BC0AFF01CC0AE
:1015F000B0F01DC0B1F01EC0B2F0ABC06DF0ACC019
:101600006EF0ADC06FF0AEC070F0AFC071F0B0C0A2
:1016100072F0B1C073F0B2C074F08FEC1FF0000133
:10162000D8B015EF0BF017EF0BF021EF0BF0000E19
:10163000AF6F000EB06F000EB16F000EB26F4AEFC9
:101640000BF0ABC01BF0ACC01CF0ADC01DF0AEC0C9
:101650001EF0AFC01FF0B0C020F0B1C021F0B2C08A
:1016600022F0DFEC22F0D8A038EF0BF03AEF0BF0CD
:101670004AEF0BF00001A1B140EF0BF042EF0BF08D
:101680004AEF0BF0000EAF6F000EB06F000EB16F9F
:10169000000EB26FB5C01BF0B6C01CF0B7C01DF095
:1016A000B8C01EF0AFC01FF0B0C020F0B1C021F034
:1016B000B2C022F0D9EC10F01BC0ABF01CC0ACF0F3
:1016C0001DC0ADF01EC0AEF0ABC06DF0ACC06EF092
:1016D000ADC06FF0AEC070F0000E1F6E000E206E39
:1016E000200E216E410E226E9DC01BF09EC01CF08C
:1016F0009FC01DF0A0C01EF099EC15F01BC071F04A
:101700001CC072F01DC073F01EC074F08FEC1FF08F
:101710000001D8A08EEF0BF090EF0BF0B8EF0BF0BC
:10172000B94BBA2B9DC01BF09EC01CF09FC01DF092
:10173000A0C01EF0000E1F6E000E206E200E216E47
:10174000410E226E99EC15F01BC09DF01CC09EF05E
:101750001DC09FF01EC0A0F0660E0001A919D8A4FC
:10176000B4EF0BF0B6EF0BF0B8EF0BF09B4B9C2BEC
:101770009DC0BDF09EC0BEF09FC0BFF0A0C0C0F035
:10178000650EA919D8B4C7EF0BF0C9EF0BF0CFEF76
:101790000BF0B9C099F0BAC09AF0D3EF0BF0000E7D
:1017A0009A6F000E996F000E986F000E976F000EE3
:1017B000966F000E956F000EB46F000EB36FCFEFF3
:1017C0000CF0ABC01BF0ACC01CF0ADC01DF0AEC047
:1017D0001EF0BDC01FF0BEC020F0BFC021F0C0C0D1
:1017E00022F0C4EC19F01BC027F01CC028F01DC06B
:1017F00029F01EC02AF092EC1BF027C0AFF028C0E1
:10180000B0F029C0B1F02AC0B2F0AFC01BF0B0C038
:101810001CF0B1C01DF0B2C01EF00CEC1FF01BC0DC
:10182000A1F01CC0A2F034B818EF0CF01AEF0CF0C5
:1018300038EF0CF00001A151A211D8A422EF0CF056
:1018400024EF0CF038EF0CF0670EAA19D8A42BEF98
:101850000CF02DEF0CF038EF0CF09ABF34EF0CF0D9
:1018600032EF0CF038EF0CF0954B962B83EF0CF029
:10187000000197519811D8A440EF0CF042EF0CF002
:101880006CEF0CF09ABF49EF0CF047EF0CF06CEFE7
:101890000CF0340EBB25D96E010EBC21DA6E2E0E73
:1018A000DF6EBB4BBC2BA707D8A0A807000E986F14
:1018B000010E976F6CEF0CF0340EBB25D96E010E44
:1018C000BC21DA6E300EDF6EBB4BBC2BA707D8A055
:1018D000A8079507D8A0960795519611D8A473EF3D
:1018E0000CF075EF0CF05CEF0CF0340EBB25D96EEC
:1018F000010EBC21DA6EA151300FDF6EBB4BBC2B49
:10190000A707D8A0A807ABC06DF0ACC06EF0ADC003
:101910006FF0AEC070F0BDC01FF0BEC020F0BFC001
:1019200021F0C0C022F0AFC01BF0B0C01CF0B1C0AD
:101930001DF0B2C01EF099EC15F01BC071F01CC078
:1019400072F01DC073F01EC074F036EC27F06DC04D
:10195000ABF06EC0ACF06FC0ADF070C0AEF0BDC00B
:101960001BF0BEC01CF0BFC01DF0C0C01EF0000EBA
:101970001F6E000E206E200E216E410E226EC4ECF2
:1019800019F01BC0BDF01CC0BEF01DC0BFF01EC0D2
:10199000C0F000019907D8A09A07B34BB42B9B5114
:1019A000B35DB451800A846F9C51800A8459D8B0C9
:1019B000DCEF0CF0DEEF0CF0ECEF0CF0BCBFEAEF6C
:1019C0000CF0BC5109E14B0EBB5DD8A0EAEF0CF066
:1019D000ECEF0CF0E1EF0BF097519811D8A4F3EF76
:1019E0000CF0F5EF0CF006EF0DF034A8FAEF0CF068
:1019F000FCEF0CF006EF0DF0340EBB25D96E010E96
:101A0000BC21DA6E2E0EDF6EBB4BBC2B340EBB2519
:101A1000D96E010EBC21DA6E000EDF6E650EA919BB
:101A2000D8A415EF0DF017EF0DF0E7EF0DF0000E55
:101A3000B46F4F0EB36F340EB325D96E010EB421BF
:101A4000DA6E000EDF6E000EA46F000EA36FBABF39
:101A50002EEF0DF02CEF0DF036EF0DF0000EA46F11
:101A6000010EA36FB96DBA1FD8B0BA2B000EA66FC6
:101A7000020EA56F67EF0DF0B307D8A0B407340EC0
:101A8000B325D96E010EB421DA6EB9C01BF0BAC00D
:101A90001CF0000E1E6E0A0E1D6E87EC22F01B500D
:101AA000300FDF6EB9C01BF0BAC01CF0000E1E6E06
:101AB0000A0E1D6E63EC21F01BC0B9F01CC0BAF019
:101AC0000001A507D8A0A607A707D8A0A807B95165
:101AD000BA11D8A46EEF0DF070EF0DF03CEF0DF0E1
:101AE000A6BF7DEF0DF0A65106E1A505D8B07BEFAE
:101AF0000DF07DEF0DF03CEF0DF0B307D8A0B4076B
:101B0000A351A411D8A487EF0DF089EF0DF08FEF4A
:101B10000DF0000E906F2B0E8F6F93EF0DF0000EF7
:101B2000906F2D0E8F6F340EB325D96E010EB42138
:101B3000DA6E8FC0DFFFA707D8A0A807B307D8A029
:101B4000B407BF0E846FFF0E856F8351866F876B5E
:101B5000845186278551872387510AE11A0E865DB5
:101B6000D8A0B5EF0DF0B8EF0DF0010EB9EF0DF004
:101B7000000E936F946B93519411D8A4C2EF0DF0A3
:101B8000C4EF0DF0CAEF0DF0000E926F650E916F6D
:101B9000CEEF0DF0000E926F450E916F340EB3250F
:101BA000D96E010EB421DA6E91C0DFFFA707D8A06D
:101BB000A807340EBB251B6E010EBC211C6E340E13
:101BC000B3251D6E010EB4211E6E3DEC26F07DC0C6
:101BD00063F07EC064F0340E0001656F010E666F25
:101BE000A7C067F0A8C068F0FFEC20F063C07DF0EC
:101BF00064C07EF01200C3C0D9FFC4C0DAFFDECFDC
:101C0000F6FFDDCFF7FFF86A0800F550250AD8A4E3
:101C10000CEF0EF00EEF0EF0BCEF10F0C3C0D9FFCA
:101C2000C4C0DAFFDE2A000EDD22000E0001F26FD2
:101C3000000EF16FF1C034F0F2C035F0F369F469D1
:101C4000C3C0D9FFC4C0DAFFDECFF6FFDDCFF7FF98
:101C5000F86A0800F5502A0AD8A431EF0EF033EFE5
:101C60000EF05CEF0EF0C3C0D9FFC4C0DAFFDE2A6D
:101C7000000EDD22C5C0D9FFC6C0DAFFDFCFC7F036
:101C8000020EDE26DFCFC8F0000EDD22C7C0D9FF6E
:101C9000C8C0DAFFDECFF1F0DDCFF2F0F2BF55EFD2
:101CA0000EF053EF0EF0A2EF0EF03480F16DF21F44
:101CB000D8B0F22BA2EF0EF0C3C0D9FFC4C0DAFF38
:101CC000DECF22F0DDCF23F077EC1DF022C0F1F063
:101CD00023C0F2F073EF0EF0C3C0D9FFC4C0DAFF27
:101CE000DE2A000EDD22D00E0001C76FFF0EC86F86
:101CF000C3C0D9FFC4C0DAFFDECFF6FFDDCFF7FFE8
:101D0000F86A0800F550C96FCA6BC751C927C85196
:101D1000CA23CA510AE10A0EC95DD8A092EF0EF09B
:101D200095EF0EF0010E96EF0EF0000E0101846F9C
:101D3000856B84518511D8A4A0EF0EF0A2EF0EF0B0
:101D40006CEF0EF0C3C0D9FFC4C0DAFFDECFF6FFE0
:101D5000DDCFF7FFF86A0800F5502E0AD8A4B3EFDC
:101D60000EF0B5EF0EF037EF0FF0000E0001F46F3C
:101D7000000EF36FC3C0D9FFC4C0DAFFDE2A000E25
:101D8000DD22C3C0D9FFC4C0DAFFDECFF6FFDDCF4E
:101D9000F7FFF86A0800F5502A0AD8A4D2EF0EF02F
:101DA000D4EF0EF0F1EF0EF0C3C0D9FFC4C0DAFFDC
:101DB000DE2A000EDD22C5C0D9FFC6C0DAFFDFCFA4
:101DC000C7F0020EDE26DFCFC8F0000EDD22C7C04E
:101DD000D9FFC8C0DAFFDECFF3F0DDCFF4F037EF84
:101DE0000FF0C3C0D9FFC4C0DAFFDECF22F0DDCFD1
:101DF00023F077EC1DF022C0F3F023C0F4F008EFDD
:101E00000FF0C3C0D9FFC4C0DAFFDE2A000EDD2206
:101E1000D00E0001C76FFF0EC86FC3C0D9FFC4C08A
:101E2000DAFFDECFF6FFDDCFF7FFF86A0800F550E6
:101E3000C96FCA6BC751C927C851CA23CA510AE121
:101E40000A0EC95DD8A027EF0FF02AEF0FF0010EA0
:101E50002BEF0FF0000E0101866F876B8651871103
:101E6000D8A435EF0FF037EF0FF001EF0FF0C3C03C
:101E7000D9FFC4C0DAFFDECFF6FFDDCFF7FFF86A87
:101E80000800F550216E226A0DEC26F02150010168
:101E90008E6F8E51D8B44FEF0FF051EF0FF08FEFE0
:101EA0000FF0C3C0D9FFC4C0DAFFDECFC7F0DDCF6B
:101EB000C8F0010E0001C727000EC823C7C0F6FFF7
:101EC000C8C0F7FFF86A0800F550216E226A0DECD1
:101ED00026F0215001018F6F8F51D8B472EF0FF0AF
:101EE00074EF0FF08FEF0FF0C3C0D9FFC4C0DAFF5B
:101EF000DECFC7F0DDCFC8F0020E0001C727000E0D
:101F0000C823C7C0F6FFC8C0F7FFF86A0800F5503D
:101F1000216E226A0DEC26F021500101906F660EB1
:101F20008E19D8A496EF0FF098EF0FF0D9EF0FF0BD
:101F3000C3C0D9FFC4C0DAFFDECFF6FFDDCFF7FFA5
:101F4000F86A0800F5CF91F1C3C0D9FFC4C0DAFF29
:101F5000DE2A000EDD22C5C0D9FFC6C0DAFFDFCF02
:101F6000C7F0040EDE26DFCFC8F0000EDD22C7C0AA
:101F7000D9FFC8C0DAFFDECF8AF1DECF8BF1DECF2A
:101F80008CF1DECF8DF1C1C07DF0C2C07EF08AC180
:101F90007FF08BC180F08CC181F08DC182F091C146
:101FA00083F0A5EC07F07DC0C1F07EC0C2F0D8EF91
:101FB00010F08E0E1B6E010E1C6E430E1D6E0F0E6A
:101FC0001E6E000E206E020E1F6E91EC20F01B5054
:101FD0001C10D8A4EEEF0FF0F0EF0FF083EF10F02D
:101FE000C3C0D9FFC4C0DAFFDECFC7F0DDCFC8F071
:101FF000010E0001C727000EC823C7C0F6FFC8C0E6
:10200000F7FFF86A0800F5CF91F1BF0EC76FFF0E1A
:10201000C86FC3C0D9FFC4C0DAFFDECFF6FFDDCF83
:10202000F7FFF86A0800F550C96FCA6BC751C92796
:10203000C851CA23CA510AE11A0EC95DD8A023EFBC
:1020400010F026EF10F0010E27EF10F0000E010146
:10205000886F896B88518911D8B431EF10F033EF54
:1020600010F04DEF10F0C5C0D9FFC6C0DAFFDFCFCA
:10207000C7F0040EDE26DFCFC8F0000EDD22C7C099
:10208000D9FFC8C0DAFFDECF8AF1DECF8BF1DECF19
:102090008CF1DECF8DF165EF10F0C5C0D9FFC6C061
:1020A000DAFFDFCFC7F0040EDE26DFCFC8F0000E68
:1020B000DD22C7C0D9FFC8C0DAFFDECF8AF1DECF8C
:1020C0008BF1DECF8CF1DECF8DF1020EC3C0D9FFD4
:1020D000C4C0DAFFDE26000EDD22C1C07DF0C2C022
:1020E0007EF08AC17FF08BC180F08CC181F08DC100
:1020F00082F091C183F0A5EC07F07DC0C1F07EC0F5
:10210000C2F0D8EF10F0C3C0D9FFC4C0DAFFDECFF1
:10211000F6FFDDCFF7FFF86A0800F550250AD8A4CE
:1021200094EF10F096EF10F0AEEF10F0C3C0D9FFAF
:10213000C4C0DAFFDE2A000EDD22000E1E6E250E60
:102140001D6EC1C01FF0C2C020F0D3EC23F0000E02
:102150000001C26F010EC16FD8EF10F0C3C0D9FFEC
:10216000C4C0DAFFDE2A000EDD22000E0001C26FBD
:10217000000EC16FD8EF10F0C3C0D9FFC4C0DAFFA2
:10218000DECFF6FFDDCFF7FFF86A0800F5501D6ED1
:102190001E6AC1C01FF0C2C020F0D3EC23F0C3C040
:1021A000D9FFC4C0DAFFDE2A000EDD22A7EF10F04F
:1021B00012001E50800B276E1E501E24296E1DAE6D
:1021C000E4EF10F0E6EF10F0E7EF10F0298029506F
:1021D000D8B4EDEF10F0EFEF10F004EF11F0292874
:1021E000D8A4F5EF10F0F7EF10F0FFEF10F0000EAD
:1021F0001B6E000E1C6E000E1D6E000E1E6E1D8EE0
:10220000000E1E6E0CEF11F0000E1B6E000E1C6E09
:10221000000E1D6E000E1E6E2250800B286E275081
:102220002818D8B416EF11F018EF11F019EF11F0CB
:10223000278C22502224286E21AE21EF11F023EFAB
:1022400011F024EF11F028802850D8B42AEF11F0B3
:102250002CEF11F041EF11F02828D8A432EF11F043
:1022600034EF11F03CEF11F0000E1F6E000E206EE7
:10227000000E216E000E226E218E000E226E49EF9E
:1022800011F0000E1F6E000E206E000E216E000E6B
:10229000226E2950285CD8B050EF11F052EF11F0A7
:1022A00079EF11F027AC57EF11F059EF11F05BEF18
:1022B00011F0800E271A29C02AF028C029F02AC060
:1022C00028F01BC02AF01FC01BF02AC01FF01CC042
:1022D0002AF020C01CF02AC020F01DC02AF021C026
:1022E0001DF02AC021F01EC02AF022C01EF02AC014
:1022F00022F0000E2A6E295028C023F0246A235EA3
:10230000000E245A24BE8EEF11F0245009E11A0E5B
:10231000235CD8A08EEF11F090EF11F0C7EF11F011
:102320001B501C101D101E10D8A499EF11F09CEF2B
:1023300011F0010E9DEF11F0000E2A6E000E1B6EC3
:10234000000E1C6E000E1D6E000E1E6E28C029F0C1
:10235000D0EF11F02AA0AFEF11F0B1EF11F0B7EF0D
:1023600011F0D8902A3001092A6EB9EF11F0D890F7
:102370002A321BA0BEEF11F0C0EF11F0C1EF11F037
:102380002A8E1E341E321D321C321B32292A28503E
:10239000295CD8A0CEEF11F0D0EF11F0AAEF11F028
:1023A00027BCD5EF11F0D7EF11F017EF12F029503D
:1023B000D8A4DDEF11F0DFEF11F0E9EF11F0000E1E
:1023C0001B6E000E1C6E000E1D6E000E1E6E38EF92
:1023D00013F01F501B2620501C2221501D2222507A
:1023E0001E221EA0F6EF11F0F8EF11F0A4EF12F08C
:1023F0002AA0FDEF11F0FFEF11F005EF12F0D890D9
:102400002A3001092A6E07EF12F0D8902A321BA059
:102410000CEF12F00EEF12F00FEF12F02A8E1E34B6
:102420001E321D321C321B32292AA4EF12F01F501B
:102430001B5C20501C5821501D581E50800A236ED2
:102440002250800A2358D8B028EF12F02AEF12F059
:1024500055EF12F01B501F5C236E1C502058246E49
:102460001D502158256E1E502258266EFF0E232423
:102470001B6EFF0E24201C6EFF0E25201D6EFF0E0E
:1024800026201E6E800E271A2A6C2A50D8A44BEFE5
:1024900012F04DEF12F05DEF12F0010E1B26000E50
:1024A0001C221D221E225DEF12F01F501B5E2050C9
:1024B0001C5A21501D5A22501E5A1B501C101D1010
:1024C0001E10D8A466EF12F068EF12F09DEF12F024
:1024D0002A50D8A46EEF12F070EF12F09DEF12F0B8
:1024E000000E1B6E000E1C6E000E1D6E000E1E6E8A
:1024F00038EF13F0D8901B361C361D361E362AAE28
:1025000084EF12F086EF12F087EF12F01B802AA002
:102510008CEF12F08EEF12F092EF12F0D8802A3684
:1025200094EF12F0D8902A362950D8B49AEF12F0CE
:102530009CEF12F09DEF12F029061DAEA2EF12F0F3
:10254000A4EF12F07AEF12F0000E286E2AAEABEF75
:1025500012F0ADEF12F0C5EF12F02AC023F07F0E9B
:102560002316D8B4B6EF12F0B8EF12F0BCEF12F0A9
:10257000010E286EC5EF12F01BA0C1EF12F0C3EFE1
:1025800012F0C5EF12F0B8EF12F02850D8B4CBEF2C
:1025900012F0CDEF12F0F8EF12F0010E1B26000E34
:1025A0001C221D221E221EA0D8EF12F0DAEF12F01C
:1025B000F8EF12F01BC023F01CC024F01DC025F062
:1025C0001EC026F02634263225322432233223C080
:1025D0001BF024C01CF025C01DF026C01EF02928C9
:1025E000D8B4F5EF12F0F7EF12F0F8EF12F0292A55
:1025F0002928D8B4FEEF12F000EF13F008EF13F023
:102600002950D8A406EF13F008EF13F01AEF13F0D7
:10261000000E1B6E000E1C6E000E1D6E000E1E6E58
:102620002950D8A416EF13F018EF13F01AEF13F097
:10263000000E276E29A01FEF13F021EF13F024EFF7
:1026400013F01D8E25EF13F01D9ED89029301E6EBD
:1026500027AE2DEF13F02FEF13F030EF13F01E8E97
:102660001BC01BF01CC01CF01DC01DF01EC01EF0C6
:1026700012000450800B0D6E045004240F6E03AE44
:1026800044EF13F046EF13F047EF13F00F800F50B5
:10269000D8B44DEF13F04FEF13F064EF13F00F28A1
:1026A000D8A455EF13F057EF13F05FEF13F0000EBF
:1026B000016E000E026E000E036E000E046E038E9D
:1026C000000E046E6CEF13F0000E016E000E026E31
:1026D000000E036E000E046E0850800B0E6E0D503F
:1026E0000E18D8B476EF13F078EF13F079EF13F0FB
:1026F0000D8C085008240E6E07AE81EF13F083EFA7
:1027000013F084EF13F00E800E50D8B48AEF13F05C
:102710008CEF13F0A1EF13F00E28D8A492EF13F072
:1027200094EF13F09CEF13F0000E056E000E066E92
:10273000000E076E000E086E078E000E086EA9EFE1
:1027400013F0000E056E000E066E000E076E000EF2
:10275000086E0F500E5CD8B0B0EF13F0B2EF13F06C
:10276000D9EF13F00DACB7EF13F0B9EF13F0BBEFE7
:1027700013F0800E0D1A0FC010F00EC00FF010C035
:102780000EF001C010F005C001F010C005F002C04D
:1027900010F006C002F010C006F003C010F007C031
:1027A00003F010C007F004C010F008C004F010C01F
:1027B00008F0000E106E0F500EC009F00A6A095E94
:1027C000000E0A5A0ABEEEEF13F00A5009E11A0E83
:1027D000095CD8A0EEEF13F0F0EF13F027EF14F040
:1027E0000150021003100410D8A4F9EF13F0FCEF0D
:1027F00013F0010EFDEF13F0000E106E000E016ECF
:10280000000E026E000E036E000E046E0EC00FF07E
:1028100030EF14F010A00FEF14F011EF14F017EFD9
:1028200014F0D89010300109106E19EF14F0D89000
:10283000103201A01EEF14F020EF14F021EF14F07D
:10284000108E043404320332023201320F2A0E5049
:102850000F5CD8A02EEF14F030EF14F00AEF14F054
:102860000DBC35EF14F037EF14F077EF14F00F5084
:10287000D8A43DEF14F03FEF14F049EF14F0000E30
:10288000016E000E026E000E036E000E046E98EFD5
:1028900015F0055001260650022207500322085069
:1028A000042204A056EF14F058EF14F004EF15F0D2
:1028B00010A05DEF14F05FEF14F065EF14F0D89006
:1028C00010300109106E67EF14F0D890103201A09B
:1028D0006CEF14F06EEF14F06FEF14F0108E043400
:1028E00004320332023201320F2A04EF15F0055090
:1028F000015C06500258075003580450800A096EC4
:102900000850800A0958D8B088EF14F08AEF14F004
:10291000B5EF14F00150055C096E025006580A6EBE
:10292000035007580B6E045008580C6EFF0E092414
:10293000016EFF0E0A20026EFF0E0B20036EFF0ECB
:102940000C20046E800E0D1A106C1050D8A4ABEF42
:1029500014F0ADEF14F0BDEF14F0010E0126000EDF
:10296000022203220422BDEF14F00550015E06503E
:10297000025A0750035A0850045A0150021003101B
:102980000410D8A4C6EF14F0C8EF14F0FDEF14F053
:102990001050D8A4CEEF14F0D0EF14F0FDEF14F0E7
:1029A000000E016E000E026E000E036E000E046E2D
:1029B00098EF15F0D890013602360336043610AE83
:1029C000E4EF14F0E6EF14F0E7EF14F0018010A04C
:1029D000ECEF14F0EEEF14F0F2EF14F0D8801036B4
:1029E000F4EF14F0D89010360F50D8B4FAEF14F07A
:1029F000FCEF14F0FDEF14F00F0603AE02EF15F03C
:102A000004EF15F0DAEF14F0000E0E6E10AE0BEFBF
:102A100015F00DEF15F025EF15F010C009F07F0E41
:102A20000916D8B416EF15F018EF15F01CEF15F0D5
:102A3000010E0E6E25EF15F001A021EF15F023EF2A
:102A400015F025EF15F018EF15F00E50D8B42BEF58
:102A500015F02DEF15F058EF15F0010E0126000EC0
:102A600002220322042204A038EF15F03AEF15F0F9
:102A700058EF15F001C009F002C00AF003C00BF0D6
:102A800004C00CF00C340C320B320A32093209C08B
:102A900001F00AC002F00BC003F00CC004F00F28D4
:102AA000D8B455EF15F057EF15F058EF15F00F2A81
:102AB0000F28D8B45EEF15F060EF15F068EF15F051
:102AC0000F50D8A466EF15F068EF15F07AEF15F007
:102AD000000E016E000E026E000E036E000E046EFC
:102AE0000F50D8A476EF15F078EF15F07AEF15F0C7
:102AF000000E0D6E0FA07FEF15F081EF15F084EF43
:102B000015F0038E85EF15F0039ED8900F30046EFC
:102B10000DAE8DEF15F08FEF15F090EF15F0048EE0
:102B200001C001F002C002F003C003F004C004F0D1
:102B300012001E50800B0001606F1E501E24666F35
:102B40001DAEA5EF15F0A7EF15F0A8EF15F0668103
:102B50006651D8B4AEEF15F0B0EF15F0C3EF15F035
:102B60006629D8A4B6EF15F0B8EF15F0C0EF15F050
:102B7000000E1B6E000E1C6E000E1D6E000E1E6EF3
:102B80001D8ECBEF15F0000E1B6E000E1C6E000E9E
:102B90001D6E000E1E6E2250800B601B22502224E0
:102BA000616F21AED6EF15F0D8EF15F0D9EF15F023
:102BB00061816151D8B4DFEF15F0E1EF15F0F4EF6A
:102BC00015F06129D8A4E7EF15F0E9EF15F0F1EF62
:102BD00015F0000E1F6E000E206E000E216E000E0E
:102BE000226E218EFCEF15F0000E1F6E000E206E7F
:102BF000000E216E000E226E6151D8B402EF16F065
:102C000004EF16F00CEF16F06651D8A40AEF16F098
:102C10000CEF16F016EF16F0000E1B6E000E1C6E79
:102C2000000E1D6E000E1E6EAEEF17F021501B023F
:102C3000F3CF6BF0F4CF6CF06B51626F636B646B2E
:102C4000656B6C51676F686B696B6A6B20501C0217
:102C5000F3CF6BF0F4CF6CF06B516227000E63235F
:102C6000642365236C516727000E682369236A2358
:102C70001F501D02F3CF6BF0F4CF6CF06B51622745
:102C8000000E6323642365236C516727000E6823BD
:102C900069236A2364C065F063C064F062C063F0B6
:102CA000626B1F501C02F3CF6BF0F4CF6CF06B51D2
:102CB00062276C516323000E6423000E65232050AD
:102CC0001B02F3CF6BF0F4CF6CF06B5162276C51A9
:102CD0006323000E6423000E652364C065F063C0A7
:102CE00064F062C063F0626B1F501B02F3CF6BF0A5
:102CF000F4CF6CF06B5162276C516323000E642398
:102D0000000E652321501C02F3CF6BF0F4CF6CF062
:102D10006B5167276C516823000E6923000E6A23EC
:102D200020501D02F3CF6BF0F4CF6CF06B5167278E
:102D30006C516823000E6923000E6A2321501D0286
:102D4000F3CF6BF0F4CF6CF06B51236E6C51246EAB
:102D5000256A266A25C026F024C025F023C024F069
:102D6000236A23506727245068232550692326505F
:102D70006A2362C023F063C024F064C025F065C0FC
:102D800026F0190EC9EF16F0D890263225322432DB
:102D90002332E82EC4EF16F023506727245068230F
:102DA0002550692326506A2364C065F063C064F02F
:102DB00062C063F0626B615166C023F0246A23260F
:102DC000000E2422820E23246B6FFF0E24206C6FD2
:102DD000FFEF16F0D8906737683769376A3765AF05
:102DE000F4EF16F0F6EF16F0F7EF16F06781D890D3
:102DF00062376337643765376B07D8A06C0769AFF4
:102E000004EF17F006EF17F0EAEF16F0000E616F0F
:102E100065AF0DEF17F00FEF17F033EF17F0FF0E60
:102E20006215236EFF0E6315246EFF0E6415256E6A
:102E30007F0E6515266E2350241025102610D8B459
:102E400024EF17F026EF17F02AEF17F0010E616F4D
:102E500033EF17F067A12FEF17F031EF17F033EFD3
:102E600017F026EF17F06151D8B439EF17F03BEFA8
:102E700017F05FEF17F0010E6727000E6823692334
:102E80006A236AA146EF17F048EF17F05FEF17F0DB
:102E900067C023F068C024F069C025F06AC026F03E
:102EA0002634263225322432233223C067F024C050
:102EB00068F025C069F026C06AF06B4B6C2B6CBFC4
:102EC0006AEF17F06C5108E16B29D8A06AEF17F090
:102ED0006CEF17F076EF17F0000E676F000E686F5B
:102EE000800E696F7F0E6A6FA4EF17F06CBF83EFDF
:102EF00017F06C5106E16B05D8B081EF17F083EF46
:102F000017F08FEF17F0000E676F000E686F000E5E
:102F1000696F000E6A6F000E606FA4EF17F06BC050
:102F200066F0FF0E6717FF0E68177F0E6917000E19
:102F30006A1766A19EEF17F0A0EF17F0A1EF17F048
:102F4000698FD89066316A6F60516A1367C01BF051
:102F500068C01CF069C01DF06AC01EF01200145059
:102F6000800B1D6E14501424236E13AEBAEF17F0AD
:102F7000BCEF17F0BDEF17F023802350D8B4C3EF98
:102F800017F0C5EF17F0D8EF17F02328D8A4CBEF30
:102F900017F0CDEF17F0D5EF17F0000E116E000E01
:102FA000126E000E136E000E146E138EE0EF17F00B
:102FB000000E116E000E126E000E136E000E146ED7
:102FC0001850800B1D1A18501824226E17AEEBEF04
:102FD00017F0EDEF17F0EEEF17F022802250D8B483
:102FE000F4EF17F0F6EF17F009EF18F02228D8A445
:102FF000FCEF17F0FEEF17F006EF18F0000E156E5D
:10300000000E166E000E176E000E186E178E11EF62
:1030100018F0000E156E000E166E000E176E000EE4
:10302000186E2250D8B417EF18F019EF18F021EFEE
:1030300018F02350D8A41FEF18F021EF18F02BEF51
:1030400018F0000E116E000E126E000E136E000EC0
:10305000146EC3EF19F017501102F3CF28F0F4CF1C
:1030600029F028501E6E1F6A206A216A2950246E9A
:10307000256A266A276A16501202F3CF28F0F4CF89
:1030800029F028501E26000E1F222022212229501E
:103090002426000E25222622272215501302F3CFC4
:1030A00028F0F4CF29F028501E26000E1F222022DF
:1030B000212229502426000E25222622272220C044
:1030C00021F01FC020F01EC01FF01E6A1550120212
:1030D000F3CF28F0F4CF29F028501E2629501F22C4
:1030E000000E2022000E212216501102F3CF28F0EC
:1030F000F4CF29F028501E2629501F22000E20222E
:10310000000E212220C021F01FC020F01EC01FF0A1
:103110001E6A15501102F3CF28F0F4CF29F0285081
:103120001E2629501F22000E2022000E2122175099
:103130001202F3CF28F0F4CF29F02850242629508A
:103140002522000E2622000E272216501302F3CF4E
:1031500028F0F4CF29F02850242629502522000EEB
:103160002622000E272217501302F3CF28F0F4CFA7
:1031700029F02850196E29501A6E1B6A1C6A1BC050
:103180001CF01AC01BF019C01AF0196A1950242635
:103190001A5025221B5026221C5027221EC019F02F
:1031A0001FC01AF020C01BF021C01CF0190EDEEF6A
:1031B00018F0D8901C321B321A321932E82ED9EF8F
:1031C00018F0195024261A5025221B5026221C5074
:1031D000272220C021F01FC020F01EC01FF01E6A51
:1031E000225023C019F01A6A1926000E1A22820EE4
:1031F0001924286EFF0E1A20296E14EF19F0D890AA
:10320000243625362636273621AE09EF19F00BEF86
:1032100019F00CEF19F02480D8901E361F36203696
:1032200021362806D8A0290626AE19EF19F01BEF83
:1032300019F0FFEF18F0000E226E21AE22EF19F008
:1032400024EF19F048EF19F0FF0E1E14196EFF0E4F
:103250001F141A6EFF0E20141B6E7F0E21141C6E9D
:1032600019501A101B101C10D8B439EF19F03BEF8D
:1032700019F03FEF19F0010E226E48EF19F024A06B
:1032800044EF19F046EF19F048EF19F03BEF19F051
:103290002250D8B44EEF19F050EF19F074EF19F036
:1032A000010E2426000E25222622272227A05BEFCE
:1032B00019F05DEF19F074EF19F024C019F025C072
:1032C0001AF026C01BF027C01CF01C341C321B3225
:1032D0001A32193219C024F01AC025F01BC026F08A
:1032E0001CC027F0284A292A29BE7FEF19F029504F
:1032F00008E12828D8A07FEF19F081EF19F08BEFB3
:1033000019F0000E246E000E256E800E266E7F0EC4
:10331000276EB9EF19F029BE98EF19F0295006E190
:103320002804D8B096EF19F098EF19F0A4EF19F02F
:10333000000E246E000E256E000E266E000E276E07
:10334000000E1D6EB9EF19F028C023F0FF0E2416F1
:10335000FF0E25167F0E2616000E271623A0B3EFAC
:1033600019F0B5EF19F0B6EF19F0268ED89023308A
:10337000276E1D50271224C011F025C012F026C060
:1033800013F027C014F012001E50800B0001646F70
:103390001E501E246B6F1DAED0EF19F0D2EF19F046
:1033A000D3EF19F06B816B51D8B4D9EF19F0DBEF83
:1033B00019F0F0EF19F06B29D8A4E1EF19F0E3EF61
:1033C00019F0EBEF19F0000E1B6E000E1C6E000ED4
:1033D0001D6E000E1E6E1D8E000E1E6EF8EF19F093
:1033E000000E1B6E000E1C6E000E1D6E000E1E6E7B
:1033F0002250800B641B225022246C6F21AE03EFFD
:103400001AF005EF1AF006EF1AF06C816C51D8B47F
:103410000CEF1AF00EEF1AF023EF1AF06C29D8A473
:1034200014EF1AF016EF1AF01EEF1AF0000E1F6ECE
:10343000000E206E000E216E000E226E218E000EF8
:10344000226E2BEF1AF0000E1F6E000E206E000E83
:10345000216E000E226E1F50201021102210D8A4C1
:1034600034EF1AF036EF1AF04EEF1AF0000E1B6E22
:10347000000E1C6E000E1D6E000E1E6E800E1D12C4
:103480007F0E1E1264511E121BC01BF01CC01CF0CC
:103490001DC01DF01EC01EF091EF1BF06B51D8A493
:1034A00054EF1AF056EF1AF060EF1AF0000E1B6E90
:1034B000000E1C6E000E1D6E000E1E6E91EF1BF0B6
:1034C0006C516BC023F0246A235E000E245A7F0ED9
:1034D0002324656F000E2420666F1BC060F01CC0A3
:1034E00061F01DC062F01EC063F0000E1B6E000E86
:1034F0001C6E000E1D6E000E1E6E000E676F000E1D
:10350000686F000E696F000E6A6F000E6C6FC1EF7E
:103510001AF06C51D8B48FEF1AF091EF1AF0A8EFAF
:103520001AF0D8906037613762376337D8901B360E
:103530001C361D361E366AAFA0EF1AF0A2EF1AF045
:10354000A3EF1AF01B80D8906737683769376A375E
:103550001F50605D205061592150625922506359BB
:10356000D8A0B5EF1AF0B7EF1AF0C0EF1AF06A8DD5
:103570001F50605F2050615B2150625B2250635B93
:103580006C2B190E6C65C7EF1AF0C9EF1AF089EFB2
:103590001AF06051611162116311D8B4D2EF1AF0C0
:1035A000D4EF1AF0ECEF1AF06781ECEF1AF0D89034
:1035B0001B361C361D361E366AAFE1EF1AF0E3EFFC
:1035C0001AF0E4EF1AF01B80D89067376837693734
:1035D0006A376507D8A066071DAEF1EF1AF0F3EF62
:1035E0001AF0D7EF1AF0000E6C6F6AAFFAEF1AF00C
:1035F000FCEF1AF020EF1BF0FF0E6715236EFF0E95
:103600006815246EFF0E6915256E7F0E6A15266EED
:103610002350241025102610D8B411EF1BF013EFFF
:103620001BF017EF1BF0010E6C6F20EF1BF01BA0BF
:103630001CEF1BF01EEF1BF020EF1BF013EF1BF035
:103640006C51D8B426EF1BF028EF1BF04CEF1BF0A9
:10365000010E1B26000E1C221D221E221EA033EF6F
:103660001BF035EF1BF04CEF1BF01BC023F01CC010
:1036700024F01DC025F01EC026F026342632253247
:103680002432233223C01BF024C01CF025C01DF0BF
:1036900026C01EF0654B662B66BF57EF1BF06651C8
:1036A00008E16529D8A057EF1BF059EF1BF064EF34
:1036B0001BF0000E666F6569000E1B6E000E1C6E1F
:1036C000000E1D6E000E1E6E66BF71EF1BF0665180
:1036D00006E16505D8B06FEF1BF071EF1BF07FEFCF
:1036E0001BF0000E666F000E656F000E1B6E000E65
:1036F0001C6E000E1D6E000E1E6E000E646F65C007
:103700006BF06BA186EF1BF088EF1BF08BEF1BF0CB
:103710001D8E8CEF1BF01D9ED8906B311E6E42EFFC
:103720001AF01200DFC079F0E0C07AF0E1C07BF05F
:10373000E2C07CF027C079F028C07AF029C07BF085
:103740002AC07CF0810E00016D6FFF0E6E6F79C094
:103750006FF07AC070F07BC071F07CC072F0180E10
:10376000B7EF1BF0D8907233713370336F33E82E9C
:10377000B2EF1BF06F516D25776F000E6E21786FE1
:1037800078BFCCEF1BF0785109E1170E775DD8A018
:10379000CCEF1BF0CEEF1BF0D8EF1BF027C027F0CB
:1037A00028C028F029C029F02AC02AF09CEF1CF07C
:1037B00078BFDDEF1BF0DFEF1BF050EF1CF077C0A0
:1037C0006DF0FF0E6E6FFF0E6F6F7F0E706F000E4D
:1037D000716F6D67EEEF1BF0F6EF1BF07135713313
:1037E00070336F336E336D2FE9EF1BF06EC073F0E3
:1037F0006FC074F070C075F071C076F00001735145
:1038000079156D6F74517A156E6F75517B156F6FE9
:1038100076517C15706F6D516E116F117011D8A4B7
:1038200014EF1CF016EF1CF018EF1CF0CEEF1BF09D
:1038300079C06DF07AC06EF07BC06FF07CC070F024
:10384000200E28EF1CF0D89070336F336E336D3339
:10385000E82E23EF1CF06D516E116F117011D8B46A
:1038600034EF1CF036EF1CF03EEF1CF0735179275B
:1038700074517A2375517B2376517C23731D6D6FB0
:10388000741D6E6F751D6F6F761D706F6D5179179A
:103890006E517A176F517B1770517C1794EF1CF0A3
:1038A00079C06DF07AC06EF07BC06FF07CC070F0B4
:1038B000200E60EF1CF0D89070336F336E336D3391
:1038C000E82E5BEF1CF06D516E116F117011D8A4D2
:1038D0006CEF1CF06EEF1CF078EF1CF0000E796FAF
:1038E000000E7A6F000E7B6F000E7C6F94EF1CF061
:1038F000D89079356D6F7A356E6F7B356F6F7C350B
:10390000706F6D516E116F117011D8B48AEF1CF089
:103910008CEF1CF094EF1CF0000E796F000E7A6FA4
:10392000800E7B6FBF0E7C6F79C027F07AC028F0C5
:103930007BC029F07CC02AF01200096E0950D8B46F
:10394000A4EF1CF0A6EF1CF0C8EF1CF004BEADEF16
:103950001CF0ABEF1CF0C8EF1CF001C005F002C07A
:1039600006F003C007F004C008F0051E061E071E7F
:10397000081E052A000E06220722082205C00BF0A9
:1039800006C00CF007C00DF008C00EF0D0EF1CF020
:1039900001C00BF002C00CF003C00DF004C00EF02B
:1039A0000150021003100410D8A4D9EF1CF0DBEF73
:1039B0001CF0E5EF1CF0000E016E000E026E000E12
:1039C000036E000E046E76EF1DF0960E0A6EEFEF9A
:1039D0001CF00A2AD8900E320D320C320B32000E37
:1039E0000B14056E000E0C14066E000E0D14076EFF
:1039F000FE0E0E14086E0550061007100810D8A40D
:103A000004EF1DF006EF1DF0E9EF1CF014EF1DF0C0
:103A10000A2A010E0B26000E0C220D220E22D8902F
:103A20000E320D320C320B32000E0B14056E000EEE
:103A30000C14066E000E0D14076EFF0E0E14086EA9
:103A40000550061007100810D8A429EF1DF02BEF21
:103A50001DF008EF1DF033EF1DF00A06D8900B366D
:103A60000C360D360E360DBE38EF1DF03AEF1DF058
:103A700042EF1DF0020E0A6040EF1DF042EF1DF014
:103A80002DEF1DF00AB047EF1DF049EF1DF04AEF92
:103A90001DF00D9ED8900A320AC005F0066A076A2A
:103AA000086A05C008F0076A066A056A05500B1225
:103AB00006500C1207500D1208500E120950D8B4BF
:103AC00064EF1DF066EF1DF06EEF1DF004BE6DEFAC
:103AD0001DF06BEF1DF06EEF1DF00E8E0BC001F0B0
:103AE0000CC002F00DC003F00EC004F01200000E76
:103AF0000001686F000E676F000E616F000E606F4F
:103B000084EF1DF0224A232A010E666F22C0F6FFC1
:103B100023C0F7FFF86A0800F550200AD8B493EFE5
:103B20001DF095EF1DF0B3EF1DF0F70E246EFF0EA4
:103B3000256E22C0F6FF23C0F7FFF86A0800F55093
:103B4000266E276A2450262625502722275009E171
:103B5000050E265CD8A0AFEF1DF0B1EF1DF0B3EF5E
:103B60001DF0000E666F66C062F0636B62516311F8
:103B7000D8A4BDEF1DF0BFEF1DF082EF1DF0C9EF1F
:103B80001DF0000E616F010E606F224A232A01EFC3
:103B90001EF022C0F6FF23C0F7FFF86A0800F550B8
:103BA000246E256A2550000AD8B4D9EF1DF001EF24
:103BB0001EF024502B0AD8B4C5EF1DF0060AD8B465
:103BC000C1EF1DF001EF1EF067C01BF068C01CF0D4
:103BD000000E1E6E0A0E1D6EB7EC28F022C0F6FF16
:103BE00023C0F7FFF86A0800F5501B5E000E1C5A50
:103BF000300E1B240001676F000E1C20686FC5EF9C
:103C00001DF0D00E246EFF0E256E22C0F6FF23C0DD
:103C1000F7FFF86A0800F550266E276A245026261A
:103C20002550272227500AE10A0E265CD8A01BEF58
:103C30001EF01EEF1EF0010E1FEF1EF0000E646F4F
:103C4000656B64516511D8A428EF1EF02AEF1EF0B1
:103C5000E4EF1DF060516111D8A431EF1EF033EF95
:103C60001EF041EF1EF067C024F068C025F0241E4E
:103C7000251E244A252A24C022F025C023F045EF22
:103C80001EF067C022F068C023F01200DCEC28F0C0
:103C900031EC29F0EAEC26F00E0E1B6E470E1C6E7E
:103CA00071EC29F0F28EF28C8382090E0001D66F3E
:103CB0001E0ED56FE40EE82EFED7D52FFCD7D62FDB
:103CC000FAD700F08384090E0001D66F1E0ED56F5F
:103CD000E40EE82EFED7D52FFCD7D62FFAD700F06A
:103CE000848A84848388090E0001D66F1E0ED56FE6
:103CF000E40EE82EFED7D52FFCD7D62FFAD700F04A
:103D0000838A090E0001D66F1E0ED56FE40EE82ED1
:103D1000FED7D52FFCD7D62FFAD700F08392090E05
:103D20000001D66F1E0ED56FE40EE82EFED7D52FFC
:103D3000FCD7D62FFAD700F08394090E0001D66F76
:103D40001E0ED56FE40EE82EFED7D52FFCD7D62F4A
:103D5000FAD700F08398090E0001D66F1E0ED56FBA
:103D6000E40EE82EFED7D52FFCD7D62FFAD700F0D9
:103D7000839A090E0001D66F1E0ED56FE40EE82E51
:103D8000FED7D52FFCD7D62FFAD700F0050E0001AD
:103D9000D66F0F0ED56FF10EE82EFED7D52FFCD7BC
:103DA000D62FFAD7000E0101986F000E996F480EBA
:103DB0009A6F430E9B6F45EC25F0050E0001D66F00
:103DC0000F0ED56FF10EE82EFED7D52FFCD7D62FCC
:103DD000FAD72CC06DF02DC06EF02EC06FF02FC042
:103DE00070F0000E0001716F000E726F480E736F5D
:103DF000430E746F8FEC1FF00001D8B002EF1FF07C
:103E000004EF1FF007EF1FF0838AC6EF1EF0839ABE
:103E1000C6EF1EF09CEF00F01D341E34246E2450BB
:103E2000D8A415EF1FF017EF1FF021EF1FF0000EC1
:103E30001B6E000E1C6E000E1D6E000E1E6E8EEFB1
:103E40001FF01BC01FF01CC020F01DC021F01EC0C1
:103E500022F0200E31EF1FF0D89022322132203292
:103E60001F32E82E2CEF1FF01F50236E1D8EFF0E09
:103E70001B16FF0E1C16FF0E1D16000E1E16960EAC
:103E8000245E24BE48EF1FF046EF1FF05EEF1FF0E8
:103E90002450800A970FD8B050EF1FF052EF1FF058
:103EA00054EF1FF017EF1FF0D8901E321D321C3256
:103EB0001B32243E54EF1FF076EF1FF01F0E2464D8
:103EC00064EF1FF066EF1FF06EEF1FF017EF1FF0AB
:103ED000D8901B361C361D361E3624062450D8A416
:103EE00074EF1FF076EF1FF068EF1FF02350D8B487
:103EF0007CEF1FF07EEF1FF086EF1FF01E1E1D1ED1
:103F00001C1E1B6C000E1C221D221E221BC01BF03F
:103F10001CC01CF01DC01DF01EC01EF01200000EC3
:103F200000016D15276E000E6E15286E800E6F1540
:103F3000296E7F0E70152A6E2750281029102A101E
:103F4000D8A4A5EF1FF0A7EF1FF0AFEF1FF0000EF2
:103F50006D6F000E6E6F000E6F6F000E706F000EB3
:103F60007115276E000E7215286E800E7315296E5E
:103F70007F0E74152A6E2750281029102A10D8A4F5
:103F8000C4EF1FF0C6EF1FF0CEEF1FF0000E716FF1
:103F9000000E726F000E736F000E746F70AFD3EF70
:103FA0001FF0D5EF1FF0DEEF1FF06D6D6E1FD8B064
:103FB0006E2B6F1FD8B06F2B800E705774AFE3EF6E
:103FC0001FF0E5EF1FF0EEEF1FF0716D721FD8B01C
:103FD000722B731FD8B0732B800E7457000E6D1B9D
:103FE000000E6E1B000E6F1B800E701B000E711BEF
:103FF000000E721B000E731B800E741B71516D5DE1
:1040000072516E5973516F5974517059D8B00BEF8A
:1040100020F00DEF20F010EF20F0D89011EF20F0FD
:10402000D8801200E3C025F0E4C026F0E5C027F0F8
:10403000E6C028F01BC025F01CC026F01DC027F0EC
:104040001EC028F025C01FF026C020F027C021F098
:1040500028C022F0180E32EF20F0D8902232213200
:1040600020321F32E82E2DEF20F01F50236E246ADD
:1040700023502410D8A43FEF20F041EF20F061EF4F
:1040800020F0D89025341F6E2634206E2734216E00
:104090002834226E1F50201021102210D8A453EF74
:1040A00020F055EF20F05BEF20F0000E1C6E020EAA
:1040B0001B6E90EF20F0000E1C6E030E1B6E90EF37
:1040C00020F023282410D8A468EF20F06AEF20F015
:1040D0008CEF20F025C01FF026C020F027C021F073
:1040E00028C022F0090ED8901F36203621362236FD
:1040F000E82E73EF20F01F50201021102210D8B4AA
:1041000084EF20F087EF20F0010E88EF20F0000E02
:104110001B6E1C6A90EF20F0000E1C6E040E1B6ECE
:1041200012001BC022F01CC023F01DC024F01EC0D2
:1041300025F01F06D8A020061F2806E12028D8A4B5
:10414000A4EF20F0A6EF20F0B3EF20F0000E1C6EDD
:10415000000E1B6EFEEF20F0224A232A244A252A55
:104160001F06D8A0200622C0D9FF23C0DAFFDF50E7
:10417000D8B4BDEF20F0BFEF20F0ECEF20F024C06A
:10418000F6FF25C0F7FFF86A0800F5500009D8B41B
:10419000CCEF20F0CEEF20F0ECEF20F01F502010FD
:1041A000D8B4D5EF20F0D7EF20F0ECEF20F022C00C
:1041B000D9FF23C0DAFFDF50216E24C0F6FF25C0EF
:1041C000F7FFF86A0800F5502118D8B4EAEF20F09C
:1041D000ECEF20F0ACEF20F022C0D9FF23C0DAFFD3
:1041E000DF50216E24C0F6FF25C0F7FFF86A0800F3
:1041F000F550215C1B6E1C6AD8A01C06120034A06E
:1042000004EF21F006EF21F010EF21F065C026F059
:1042100066C027F063C028F064C029F012EC27F0D4
:10422000000168BF16EF21F018EF21F01EEF21F01A
:1042300067C06BF068C06CF022EF21F0000E6C6F6D
:10424000000E6B6F000E6A6F000E696F35EF21F084
:10425000000E1E6E200E1D6E63C01FF064C020F0A5
:10426000D3EC23F00001694B6A2B6B51695D6A51F5
:10427000800A2A6E6C51800A2A58D8A042EF21F099
:1042800044EF21F028EF21F034B049EF21F04BEF5B
:1042900021F055EF21F065C026F066C027F063C01D
:1042A00028F064C029F012EC27F065C01BF066C04E
:1042B0001CF0EFEC27F000016B511B24636F6C5175
:1042C0001C20646F1200000E206E1EBE6CEF21F0E9
:1042D0006AEF21F072EF21F01D6C1E1ED8B01E2A6D
:1042E000010E206E1CBE79EF21F077EF21F07FEFF9
:1042F00021F01B6C1C1ED8B01C2A010E201A000EC7
:10430000226E000E216E1D501E10D8B48AEF21F0CF
:104310008CEF21F0B4EF21F0010E1F6E94EF21F02D
:10432000D8901D361E361F2A1EAE99EF21F09BEF46
:1043300021F090EF21F0D890213622361D501B5CE1
:104340001E501C58D8A0A7EF21F0A9EF21F0AEEF26
:1043500021F01D501B5E1E501C5A2180D8901E3229
:104360001D321F2E9BEF21F02050D8B4BAEF21F060
:10437000BCEF21F0C0EF21F0216C221ED8B0222A20
:1043800021C01BF022C01CF012003BEC29F00009F8
:10439000D8B4CDEF21F0CFEF21F00AEF22F0DDEF1E
:1043A00021F0A1EC29F026EF22F09DEC29F026EF78
:1043B00022F095EC29F026EF22F012C10AF013C189
:1043C0000BF002D8EEEF21F00500FA6E0101065164
:1043D000FD6E0751FE6EFF6AFA5012000C6E0D6AF8
:1043E0000D50000AD8B4F7EF21F0D9EF21F00C50AE
:1043F000010AD8B4D9EF21F0030AD8B4D1EF21F0E3
:10440000010AD8B4D5EF21F0070AD8B4D9EF21F0CA
:10441000D9EF21F0010123911DC1D9FF1EC1DAFF9F
:104420001D4B1E2BDF50A5EC29F001011F07D8A062
:1044300020071F512011D8A420EF22F022EF22F0F4
:1044400025EF22F0060E26EF22F0030E1200D70E03
:104450003E24D96EDA6A000EDA22000EDF6E9DA4C9
:1044600034EF22F036EF22F04BEF22F0D70E3E244D
:10447000D96EDA6A000EDA220001DF8202D84BEF31
:1044800022F00500FA6E0101A051FD6EA151FE6EF1
:10449000FF6AFA5012009DA250EF22F052EF22F074
:1044A00067EF22F0D70E3E24D96EDA6A000EDA22C8
:1044B0000001DF8402D867EF22F00500FA6E0101E7
:1044C0009E51FD6E9F51FE6EFF6AFA501200D70E8C
:1044D0003E24D96EDA6A000EDA22DF50D8B473EFC8
:1044E00022F075EF22F084EF22F002D882EF22F062
:1044F0000500FA6E01019C51FD6E9D51FE6EFF6A32
:10450000FA50120086EF22F08EEC28F01200000E16
:10451000206E1CBE90EF22F08EEF22F096EF22F07C
:104520001B6C1C1ED8B01C2A010E206E1EBE9DEFF7
:1045300022F09BEF22F0A1EF22F01D6C1E1ED8B0DE
:104540001E2A1D501E10D8B4A8EF22F0AAEF22F0A8
:10455000CEEF22F0010E1F6EB2EF22F0D8901D3682
:104560001E361F2A1EAEB7EF22F0B9EF22F0AEEFD3
:1045700022F01D501B5C1E501C58D8A0C2EF22F028
:10458000C4EF22F0C8EF22F01D501B5E1E501C5AD3
:10459000D8901E321D321F2EB9EF22F02050D8B411
:1045A000D4EF22F0D6EF22F0DAEF22F01B6C1C1EC3
:1045B000D8B01C2A1BC01BF01CC01CF01200000E3F
:1045C0001B14236E000E1C14246E800E1D14256E09
:1045D0007F0E1E14266E2350241025102610D8A4FA
:1045E000F4EF22F0F6EF22F0FEEF22F0000E1B6E49
:1045F000000E1C6E000E1D6E000E1E6E000E1F14AF
:10460000236E000E2014246E800E2114256E7F0E62
:104610002214266E2350241025102610D8A413EF40
:1046200023F015EF23F01DEF23F0000E1F6E000E98
:10463000206E000E216E000E226E1F501B180FE11F
:1046400020501C180CE121501D1809E122501E18A1
:10465000D8B42DEF23F02FEF23F032EF23F0D890D2
:1046600033EF23F0D8801200C0EC29F01DC1D9FF30
:104670001EC1DAFFDF6E01011D4B1E2B1F07D8A0E4
:1046800020071F512011D8B448EF23F04AEF23F040
:104690004FEF23F0B2EC29F0050E86EF23F02387CD
:1046A0005AEF23F089EC29F086EF23F08DEC29F006
:1046B00086EF23F00CC10AF00DC10BF002D86AEFAF
:1046C00023F00500FA6E0051FD6E0151FE6EFF6A87
:1046D000FA5012000C6E0D6A0D50000AD8B473EF38
:1046E00023F056EF23F00C50010AD8B456EF23F014
:1046F000030AD8B452EF23F0010AD8B452EF23F0E2
:10470000070AD8B456EF23F056EF23F0120027EC37
:1047100022F01CEC29F00009D8B491EF23F093EFBC
:1047200023F096EF23F0C1EC26F03A6E3A50016E7A
:10473000026A036A046A000E9DEC1CF001C02CF0B2
:1047400002C02DF003C02EF004C02FF0000E056E45
:10475000000E066E400E076EC20E086E2CC001F0F1
:104760002DC002F02EC003F02FC004F039EC13F07E
:1047700001C011F002C012F003C013F004C014F025
:10478000000E156E000E166EC80E176E420E186ED5
:10479000AFEC17F011C02CF012C02DF013C02EF0AA
:1047A00014C02FF012001F502010D8B4DAEF23F0FD
:1047B000DCEF23F0E5EF23F01F502010D8A4E3EF47
:1047C00023F0E5EF23F0EAEF23F01D5067EC29F02A
:1047D0001DEF24F020EE04F01F50D9262050DA22DD
:1047E000DE50DE10D8B4F7EF23F0F9EF23F014EF2A
:1047F00024F020EE04F01F50D9262050DA2210EECB
:1048000002F01F50E1262050E222DE50E65CE65026
:10481000800A256EDE50800A2558D8B012EF24F0A9
:1048200014EF24F01DEF24F020EE02F01F50D926E3
:104830002050DA22DE2A000EDD2212000101238739
:104840002FEF24F099EC29F05BEF24F0AFEC29F086
:10485000030E5BEF24F095EC29F05BEF24F00CC124
:104860000AF00DC10BF002D83FEF24F00500FA6EFC
:104870000051FD6E0151FE6EFF6AFA5012000C6E7F
:104880000D6A0D50000AD8B448EF24F02BEF24F045
:104890000C50010AD8B42BEF24F0030AD8B422EF4D
:1048A00024F0010AD8B422EF24F0070AD8B426EF86
:1048B00024F02BEF24F012000E01C59B4E0E1B6E50
:1048C000440E1C6E71EC29F00E01C599B40E1B6EDE
:1048D0004E0E1C6E6CEC29F0080E9F6E900E9D6EB5
:1048E000240E9E6E400E9B6E030E9C6E980E1B6EE9
:1048F000530E1C6E7BEC29F0700E1B6E530E1C6E5B
:1049000076EC29F0760E1B6E530E1C6E80EC29F0AF
:10491000000E3B6E000E406E000E3F6E080E436EA2
:10492000000E3E6E000E3D6E000E3C6E0E01C58BFD
:104930001200056E01500210D8B4A1EF24F0A3EFCD
:1049400024F0BDEF24F00550020D000EF324D96EC3
:10495000010EF420DA6E01C0DEFF02C0DDFF05505B
:10496000020D0C0EF324D96E010EF420DA6E03C092
:10497000DEFF04C0DDFFD5EF24F00550020D000E70
:10498000F324D96E010EF420DA6E8C0EDE6E530E17
:10499000DD6E0550020D0C0EF324D96E010EF420CD
:1049A000DA6E000EDE6E000EDD6E1200ACEC29F049
:1049B000010123A1DEEF24F0E0EF24F0EDEF24F07D
:1049C0003BEC29F00009D8B4E8EF24F0EAEF24F03A
:1049D000EDEF24F00F0E0101216F01012151020DB5
:1049E000010EF324F66E0F0EF420F76EF86A000E37
:1049F000F8220900F5CF0EF00900F5CF0FF002D82C
:104A00000BEF25F00500FA6E0E50FD6E0F50FE6E96
:104A1000FF6AFA5012000101216F1200000E836E2E
:104A2000000E846E000E856E890E886EC00E896E33
:104A30007C0E8A6EA00E0F01216FC00E196F010E41
:104A4000116F000E2D6F000E186F000E106F000E0C
:104A5000206F000E0F6F000E176F000E1F6F0E6994
:104A600016691E690D6915691D69080E2A6F130EF6
:104A70000E01B76F160EB56F0F0EFA6F100EF96FAD
:104A8000090EFE6F120EB86F120011EC29F000092A
:104A9000D8B44DEF25F04FEF25F045EF25F0210E6E
:104AA0000101926F0F0E936F98C194F199C195F126
:104AB0009AC196F19BC197F1A3EC28F0060E2B6EDC
:104AC000300EE82EFED72B2EFCD700D0460E01016B
:104AD000926F0F0E936FA3EC28F027EC29F00009DA
:104AE000D8B475EF25F077EF25F06DEF25F01200C3
:104AF00001012391020E226F86EF25F099EC29F037
:104B0000AAEF25F095EC29F0AAEF25F010C10AF0E4
:104B100011C10BF002D896EF25F00500FA6E045192
:104B2000FD6E0551FE6EFF6AFA5012000C6E0D6AA2
:104B30000D50000AD8B49FEF25F082EF25F00C50FD
:104B4000020AD8B47EEF25F0010AD8B47EEF25F032
:104B500082EF25F01200CDC0D1F0CEC0D2F0000E11
:104B60000001F06F000EEF6FC9EF25F0CBC0C1F070
:104B7000CCC0C2F0D10EC36F000EC46FCFC0C5F061
:104B8000D0C0C6F0FBEC0DF00001C151EF27C251BF
:104B9000F023D1C0F6FFD2C0F7FFF86A0800F55045
:104BA0000009D8A4D6EF25F0D8EF25F0B6EF25F010
:104BB000EFC0CBF0F0C0CCF012000A0EF66E530E30
:104BC000F76E000EF86E00EEF5F010EE08F009003A
:104BD000F5CFEEFFE550E150FAE19A0EF66E530E76
:104BE000F76E000EF86E0900F5CF44F001EE00F00C
:104BF000840EEE6AE806FDE100EED7F01E0EEE6AC6
:104C0000E806FDE100EE2CF0150EEE6AE806FDE187
:104C100045904592000146EF1EF0BF0E236EFF0E39
:104C2000246E21C025F022C026F0235025262450D2
:104C3000262226500AE11A0E255CD8A022EF26F083
:104C400025EF26F0010E26EF26F0000E276E286ACB
:104C500027502810D8B42FEF26F031EF26F038EF88
:104C600026F0200E2110216E2250226E3CEF26F0FD
:104C700021C021F022C022F012001DC021F01EC070
:104C800022F01BC023F01CC024F021501F6E2250C4
:104C9000206E214A222A1FC0F6FF20C0F7FF000E17
:104CA000F86E23C0D9FF24C0DAFF234A242A0E0E4F
:104CB000F76403D00800F55005D0F6CFE9FFF7CF31
:104CC000EAFFEF50DF6EDF50D8A469EF26F06BEFFC
:104CD00026F045EF26F012001B6E4350D8B473EF58
:104CE00026F075EF26F06DEF26F00E01C5B97BEFCB
:104CF00026F07DEF26F081EF26F01BC09AFF96EF9D
:104D000026F0C5992C0E4024D96EDA6A010EDA22FB
:104D10001BC0DFFF402A070E406491EF26F093EF9F
:104D200026F095EF26F0000E406E4306C58912006E
:104D3000010E216E200E1B181C10D8B4A2EF26F015
:104D4000A4EF26F0BDEF26F0F70E1D6EFF0E1E6ECF
:104D50001BC01FF01CC020F01D501F261E5020221B
:104D6000205009E1050E1F5CD8A0B9EF26F0BBEF7B
:104D700026F0BDEF26F0000E216E21C01BF01C6A4C
:104D800012003C50D8B4C7EF26F0C9EF26F0C1EFAF
:104D900026F0D70E3D24D96EDA6A000EDA22DF50F3
:104DA0003B6E240E3D24D96EDA6A010EDA22DF5002
:104DB000016E3D2A070E3D64E0EF26F0E2EF26F09B
:104DC000E4EF26F0000E3D6E0E01C59B3C06C58B40
:104DD00001501200000E6A6E000E6B6E000E6C6EBB
:104DE000000E6D6E000E686E000E696E000E666E2F
:104DF000000E0F015F6F000E5D6F000E5E6F000E04
:104E0000596F000E5A6F000E5B6F000E656E000E3C
:104E1000586F000E566F1F0E576FC40E606E000E57
:104E20005C6F1200000E0001626F000E616F25EFD3
:104E300027F060C01DF01E6A28C01FF029C020F0B6
:104E4000D3EC23F00001614B622B61512624D96E13
:104E500062512720DA6EDF50606F6051D8A433EFC3
:104E600027F035EF27F019EF27F01200000E0001B0
:104E7000711B000E721B000E731B800E741B6DC025
:104E80001BF06EC01CF06FC01DF070C01EF071C032
:104E90001FF072C020F073C021F074C022F0D9EC72
:104EA00010F01BC06DF01CC06EF01DC06FF01EC076
:104EB00070F01200080E436060EF27F062EF27F0F9
:104EC00078EF27F02C0E3F24D96EDA6A010EDA2231
:104ED000DF509A6E3F2A070E3F6471EF27F073EFA1
:104EE00027F075EF27F0000E3F6E432A7AEF27F088
:104EF0000E01C599120020EE02F00A50D9260B507F
:104F0000DA22DECF01F0DDCF02F00AC0D9FF0BC0FC
:104F1000DAFFDECF03F0DDCF04F0CAEC28F0000E9C
:104F2000066E000E076E000E086E000E096E05EC90
:104F300029F0020E1200BF0E1D6EFF0E1E6E1BC06A
:104F40001FF01CC020F01D501F261E502022205094
:104F50000AE11A0E1F5CD8A0B0EF27F0B3EF27F0DC
:104F6000010EB4EF27F0000E1B6E1C6A12001B50DE
:104F70001C101D101E10D8B4C0EF27F0C2EF27F090
:104F8000CAEF27F0000E1B1A000E1C1A000E1D1A85
:104F9000800E1E1A1BC01BF01CC01CF01DC01DF093
:104FA0001EC01EF01200D00E1D6EFF0E1E6E1BC026
:104FB0001FF01CC020F01D501F261E502022205024
:104FC0000AE10A0E1F5CD8A0E8EF27F0EBEF27F00C
:104FD000010EECEF27F0000E1B6E1C6A12001BC0C6
:104FE0001DF01CC01EF0F7EF27F01B4A1C2A1BC047
:104FF000D9FF1CC0DAFFDF50D8A401EF28F003EF7F
:1050000028F0F5EF27F01D501B5C1B6E1E501C583E
:105010001C6E12000AC001F00BC002F0000E046EFC
:10502000010E036ECAEC28F0000E066E000E076E2D
:10503000000E086E000E096E05EC29F0020E12003B
:105040000AC001F00BC002F0000E046E010E036EE8
:10505000CAEC28F0000E066E000E076E000E086EF9
:10506000000E096E05EC29F0040E12000AC001F0D2
:105070000BC002F0000E046E010E036ECAEC28F0A5
:10508000000E066E000E076E000E086E000E096E12
:1050900005EC29F0040E12000AC001F00BC002F06A
:1050A000000E046E020E036ECAEC28F0000E066EAF
:1050B000000E076E000E086E000E096E05EC29F05A
:1050C000020E12000AC001F00BC002F0000E046EC6
:1050D000010E036ECAEC28F0000E066E000E076E7D
:1050E000000E086E000E096E05EC29F0020E12008B
:1050F0000AC001F00BC002F0000E046E020E036E37
:10510000CAEC28F0000E066E000E076E000E086E48
:10511000000E096E05EC29F0040E1200240E3E2448
:10512000D96EDA6A010EDA2299CFDFFF3E2A070E26
:105130003E649DEF28F09FEF28F0A1EF28F0000ECD
:105140003E6E3C2A1200940E0001D36F010ED46F04
:10515000000ECB6F000ECC6F92C1CDF093C1CEF09C
:10516000D30ECF6F000ED06FABEC25F012001B50AA
:105170001D02F3CF1FF0F4CF20F01B501E02F3509E
:1051800020261C501D02F35020261FC01BF020C0FB
:105190001CF01200010123A7D0EF28F0D2EF28F075
:1051A000DBEF28F001C01DF102C01EF103C01FF1AA
:1051B00004C020F123971200BEEC29F0EBEC28F09C
:1051C00031EC29F00EEC25F0F9EC28F0EAEC26F0B1
:1051D0005CEC24F01200000E0E01E16F000EE26F95
:1051E000000EE36F000EE46F000EE56F000EE66F39
:1051F0001200600E0E01D86F000EDA6F000EDC6F29
:10520000060EDE6F000EDD6F120006C001F007C053
:1052100002F008C003F009C004F0000E99EC24F07D
:1052200012004350D8A417EF29F01AEF29F0010E0D
:105230001BEF29F0000E12003C50D8A422EF29F0F9
:1052400025EF29F0010E26EF29F0000E12009EB284
:105250002CEF29F02FEF29F0010E30EF29F0000E8E
:105260001200000E956E080E966E000E976E4F0E91
:10527000936E969A120097BC40EF29F043EF29F005
:10528000010E44EF29F0000E1200010123811C5190
:105290001C25A5EC29F0030E120001012381D88002
:1052A0001C35A5EC29F0050E120001012393000E18
:1052B000226F0E0E120001012391C2EC29F0040EA0
:1052C000120001012393000E226F0E0E12001C6EBD
:1052D0001C506CEC26F012001BC041F01CC042F0C8
:1052E00012001BC0FDF01CC0FEF012001BC09EF19E
:1052F0001CC09FF112001BC0A0F11CC0A1F1120044
:105300001BC09CF11CC09DF11200000048437B149F
:10531000AE3EB5EC29F0090E1200B5EC29F00A0EEC
:105320001200B2EC29F0050E1200C8EC29F0000EB4
:105330001200CAEC29F0010E1200CAEC29F0020E8C
:105340001200CAEC29F0010E1200016E01C092FF9A
:105350001200D6EC24F012000E01CD9112000E01C5
:10536000CD811200979A97881200978A9788120029
:105370009D989D8812008EEC28F01200F29A12007F
:105380009250120097861200050E1200010E1200B4
:0B539000978412009782120012002781
:020000040020DA
:10000000FF0FFF0FFF0FFF0FFF0FFF0FFF0FFF0F80
:020000040030CA
:0C0000008CFFFFFF9FFFFFFFFFFFFFFFD3
:00000001FF
