:040000009DEF00F080
:100008004482FACF12F0FBCF13F0D9CF14F0DACF35
:1000180015F0F3CF16F0F4CF17F0F6CF18F0F7CFAE
:1000280019F0F8CF1AF0F5CF1BF0F2AC1EEF00F084
:1000380020EF00F087EF00F00E01C5AB26EF00F0CF
:1000480028EF00F03EEF00F0CDAB2DEF00F02FEFE2
:1000580000F03EEF00F002D83CEF00F00500FA6E29
:100068000101B051FD6EB151FE6EFF6AFA501200E7
:1000780087EF00F0C5A943EF00F045EF00F05BEF14
:1000880000F0CDA94AEF00F04CEF00F05BEF00F074
:1000980002D859EF00F00500FA6E0101B251FD6E69
:1000A800B351FE6EFF6AFA50120087EF00F0C5A147
:1000B80060EF00F062EF00F077EF00F0CDA167EF9E
:1000C80000F069EF00F077EF00F002D875EF00F06C
:1000D8000500FA6E3750FD6E3850FE6EFF6AFA5012
:1000E800120087EF00F0C5A37CEF00F07EEF00F070
:1000F80087EF00F0CDA383EF00F085EF00F087EFE6
:1001080000F069EF00F01BC0F5FF1AC0F8FF19C036
:10011800F7FF18C0F6FF17C0F4FF16C0F3FF15C0AD
:10012800DAFF14C0D9FF13C0FBFF12C0FAFF4492D4
:060138001100A3EF26F008
:100F000000A0587858685830490A4C9458564E18E2
:100F100059105908590059F858F058E8588858A2FB
:100F20005057696E642053706565643A2025312EF0
:100F3000306600494E46004E414E00696E66006EB6
:100F4000616E006C66000D0A0000000E0001A86FC3
:100F5000000EA76F83C0B9F084C0BAF085C0BBF0A3
:100F600086C0BCF0BCBFB9EF07F0B7EF07F0CFEF1A
:100F700007F0000EA86F010EA76FB9C01CF0BAC031
:100F80001DF0BBC01EF0BCC01FF084EC2AF01CC0DA
:100F9000B9F01DC0BAF01EC0BBF01FC0BCF0000EFF
:100FA0000001C06F000EBF6FF0C0ABF0F1C0ACF03D
:100FB000A751A811D8A4DFEF07F0E1EF07F0E8EFA1
:100FC00007F035A4E6EF07F0E8EF07F002EF08F0CE
:100FD000A751A811D8A4EFEF07F0F1EF07F0F7EF52
:100FE00007F0000E8E6F2B0E8D6FFBEF07F0000EDB
:100FF0008E6F2D0E8D6F8DC040F1BF4BC02BAB0798
:10100000D8A0AC07B9C01CF0BAC01DF0BBC01EF020
:10101000BCC01FF077EC22F01C041D10D8A413EF05
:1010200008F015EF08F06CEF08F0BF0E0001886FB4
:10103000FF0E896F87518A6F8B6B88518A27895180
:101040008B238B510AE11A0E8A5DD8A02AEF08F093
:101050002DEF08F0010E2EEF08F0000E8F6F906B51
:101060008F519011D8B437EF08F039EF08F047EFFF
:1010700008F0400EBF251C6E010EC0211D6E330E00
:101080001E6E0F0E1F6EE7EC28F053EF08F0400EB7
:10109000BF251C6E010EC0211D6E3B0E1E6E0F0E75
:1010A0001F6EE7EC28F00001FD0EAB27FF0EAC230E
:1010B00081C067F082C068F0400E696F010E6A6FF0
:1010C000ABC06BF0ACC06CF0D2EC23F067C081F029
:1010D00068C082F0FAEF0DF0B9C01CF0BAC01DF084
:1010E000BBC01EF0BCC01FF077EC22F01C501D10DE
:1010F000D8A47DEF08F07FEF08F0D6EF08F0BF0E20
:101100000001886FFF0E896F87518A6F8B6B885142
:101110008A2789518B238B510AE11A0E8A5DD8A048
:1011200094EF08F097EF08F0010E98EF08F0000E2A
:10113000916F926B91519211D8B4A1EF08F0A3EF87
:1011400008F0B1EF08F0400EBF251C6E010EC02163
:101150001D6E370E1E6E0F0E1F6EE7EC28F0BDEFF2
:1011600008F0400EBF251C6E010EC0211D6E3F0E03
:101170001E6E0F0E1F6EE7EC28F00001FD0EAB2770
:10118000FF0EAC2381C067F082C068F0400E696F2B
:10119000010E6A6FABC06BF0ACC06CF0D2EC23F008
:1011A00067C081F068C082F0FAEF0DF0000E000118
:1011B000C16F000EC26F800EC36F3F0EC46F000E72
:1011C000BE6F000EBD6FB9C01CF0BAC01DF0BBC031
:1011D0001EF0BCC01FF0000E206E000E216E000E2F
:1011E000226E000E236EB0EC25F0D8B0FAEF08F0B6
:1011F000FCEF08F081EF09F01BEF09F0C1C01CF013
:10120000C2C01DF0C3C01EF0C4C01FF0000E206E8F
:10121000000E216E200E226E410E236E9AEC15F008
:101220001CC0C1F01DC0C2F01EC0C3F01FC0C4F07E
:101230000001BD4BBE2BB9C06DF0BAC06EF0BBC093
:101240006FF0BCC070F0000E206E000E216E200EFC
:10125000226E410E236EC1C01CF0C2C01DF0C3C07F
:101260001EF0C4C01FF09AEC15F01CC071F01DC038
:1012700072F01EC073F01FC074F0F4EC21F0000196
:10128000D8B045EF09F047EF09F0FEEF08F067EF3F
:1012900009F0C1C01CF0C2C01DF0C3C01EF0C4C024
:1012A0001FF0000E206E000E216E200E226E410EE9
:1012B000236EC5EC19F01CC0C1F01DC0C2F01EC0E9
:1012C000C3F01FC0C4F00001BD07D8A0BE07B9C05D
:1012D0006DF0BAC06EF0BBC06FF0BCC070F0C1C0A2
:1012E00071F0C2C072F0C3C073F0C4C074F0F4EC0B
:1012F00021F00001D8A07FEF09F081EF09F049EF5C
:1013000009F087C022F0236AB6EC28F022500001D1
:10131000AE6FAEC0ADF0670EAE19D8A492EF09F073
:1013200094EF09F0BAEF09F0F251F311D8A49BEF52
:1013300009F09DEF09F0A1EF09F0000EF36F010E27
:10134000F26FF3BFAEEF09F0F35106E1F205D8B04A
:10135000ACEF09F0AEEF09F0B4EF09F0000EAA6FA0
:10136000060EA96FC3EF09F0F2C0A9F0F3C0AAF00E
:10137000C3EF09F0F3BFBFEF09F0C1EF09F0AEEF23
:1013800009F0B4EF09F0670EAE19D8A4CAEF09F05E
:10139000CCEF09F0FBEF09F0BEAFDAEF09F0FC0E7D
:1013A000BD5DFF0EBE59D8A0D8EF09F0DAEF09F005
:1013B000F9EF09F0FF0E886FFF0E896FA9C08AF060
:1013C000AAC08BF088518A2789518B23BD518A5D31
:1013D0008B51800A8C6FBE51800A8C59D8A0F3EFD4
:1013E00009F0F5EF09F0F9EF09F0660EAD6FFBEFCC
:1013F00009F0650EAD6FA9C09FF0AAC0A0F0670EFE
:10140000AE19D8A406EF0AF008EF0AF018EF0AF0B8
:10141000660EAD19D8A40FEF0AF011EF0AF01AEF1B
:101420000AF0BEBF18EF0AF016EF0AF01AEF0AF042
:101430009F4BA02B660EAD19D8A421EF0AF023EF25
:101440000AF043EF0AF0BEBF2AEF0AF028EF0AF0D5
:1014500036EF0AF0000EC16F000EC26F800EC36F30
:101460003F0EC46F000EBE6F000EBD6F670EAE194B
:10147000D8B43DEF0AF03FEF0AF043EF0AF0BD5158
:101480009F27BE51A023000EB86F000EB76FB9C0E2
:10149000AFF0BAC0B0F0BBC0B1F0BCC0B2F0C1C0D8
:1014A000A1F0C2C0A2F0C3C0A3F0C4C0A4F0D4EFA6
:1014B0000AF0AFC01CF0B0C01DF0B1C01EF0B2C049
:1014C0001FF0C1C020F0C2C021F0C3C022F0C4C0D0
:1014D00023F0C5EC19F01CC06DF01DC06EF01EC0ED
:1014E0006FF01FC070F003EC1DF06DC0B3F06EC064
:1014F000B4F06FC0B5F070C0B6F0B3C01CF0B4C0AB
:101500001DF0B5C01EF0B6C01FF071EC21F01CC07C
:10151000A5F01DC0A6F0AFC06DF0B0C06EF0B1C0B8
:101520006FF0B2C070F0C1C020F0C2C021F0C3C0E3
:1015300022F0C4C023F0B3C01CF0B4C01DF0B5C08D
:101540001EF0B6C01FF09AEC15F01CC071F01DC063
:1015500072F01EC073F01FC074F0E0EC29F06DC093
:10156000AFF06EC0B0F06FC0B1F070C0B2F0C1C0EB
:101570001CF0C2C01DF0C3C01EF0C4C01FF0000E9E
:10158000206E000E216E200E226E410E236EC5ECE1
:1015900019F01CC0C1F01DC0C2F01EC0C3F01FC0B6
:1015A000C4F00001B74BB82B9F51B75DB851800A0A
:1015B000886FA051800A8859D8A0E1EF0AF0E3EFC4
:1015C0000AF059EF0AF0C1C01CF0C2C01DF0C3C040
:1015D0001EF0C4C01FF0000E206E000E216EA00E83
:1015E000226E400E236E9AEC15F01CC0B3F01DC0A5
:1015F000B4F01EC0B5F01FC0B6F0AFC06DF0B0C003
:101600006EF0B1C06FF0B2C070F0B3C071F0B4C092
:1016100072F0B5C073F0B6C074F0F4EC21F00001C4
:10162000D8B015EF0BF017EF0BF021EF0BF0000E19
:10163000B36F000EB46F000EB56F000EB66F4AEFB9
:101640000BF0AFC01CF0B0C01DF0B1C01EF0B2C0B6
:101650001FF0B3C020F0B4C021F0B5C022F0B6C076
:1016600023F0B0EC25F0D8A038EF0BF03AEF0BF0F8
:101670004AEF0BF00001A5B140EF0BF042EF0BF089
:101680004AEF0BF0000EB36F000EB46F000EB56F93
:10169000000EB66FB9C01CF0BAC01DF0BBC01EF082
:1016A000BCC01FF0B3C020F0B4C021F0B5C022F020
:1016B000B6C023F0D9EC10F01CC0AFF01DC0B0F0E4
:1016C0001EC0B1F01FC0B2F0AFC06DF0B0C06EF080
:1016D000B1C06FF0B2C070F0000E206E000E216E2F
:1016E000200E226E410E236EA1C01CF0A2C01DF080
:1016F000A3C01EF0A4C01FF09AEC15F01CC071F03E
:101700001DC072F01EC073F01FC074F0F4EC21F025
:101710000001D8A08EEF0BF090EF0BF0B8EF0BF0BC
:10172000BD4BBE2BA1C01CF0A2C01DF0A3C01EF07B
:10173000A4C01FF0000E206E000E216E200E226E3F
:10174000410E236E9AEC15F01CC0A1F01DC0A2F052
:101750001EC0A3F01FC0A4F0660E0001AD19D8A4EE
:10176000B4EF0BF0B6EF0BF0B8EF0BF09F4BA02BE4
:10177000A1C0C1F0A2C0C2F0A3C0C3F0A4C0C4F015
:10178000650EAD19D8B4C7EF0BF0C9EF0BF0CFEF72
:101790000BF0BDC09DF0BEC09EF0D3EF0BF0000E6D
:1017A0009E6F000E9D6F000E9C6F000E9B6F000ED3
:1017B0009A6F000E996F000EB86F000EB76FCFEFE3
:1017C0000CF0AFC01CF0B0C01DF0B1C01EF0B2C034
:1017D0001FF0C1C020F0C2C021F0C3C022F0C4C0BD
:1017E00023F0C5EC19F01CC06DF01DC06EF01EC0DA
:1017F0006FF01FC070F003EC1DF06DC0B3F06EC051
:10180000B4F06FC0B5F070C0B6F0B3C01CF0B4C097
:101810001DF0B5C01EF0B6C01FF071EC21F01CC069
:10182000A5F01DC0A6F035B818EF0CF01AEF0CF0BB
:1018300038EF0CF00001A551A611D8A422EF0CF04E
:1018400024EF0CF038EF0CF0670EAE19D8A42BEF94
:101850000CF02DEF0CF038EF0CF09EBF34EF0CF0D5
:1018600032EF0CF038EF0CF0994B9A2B83EF0CF021
:1018700000019B519C11D8A440EF0CF042EF0CF0FA
:101880006CEF0CF09EBF49EF0CF047EF0CF06CEFE3
:101890000CF0400EBF25D96E010EC021DA6E2E0E5F
:1018A000DF6EBF4BC02BAB07D8A0AC07000E9C6F00
:1018B000010E9B6F6CEF0CF0400EBF25D96E010E30
:1018C000C021DA6E300EDF6EBF4BC02BAB07D8A045
:1018D000AC079907D8A09A0799519A11D8A473EF29
:1018E0000CF075EF0CF05CEF0CF0400EBF25D96EDC
:1018F000010EC021DA6EA551300FDF6EBF4BC02B39
:10190000AB07D8A0AC07AFC06DF0B0C06EF0B1C0EF
:101910006FF0B2C070F0C1C020F0C2C021F0C3C0EF
:1019200022F0C4C023F0B3C01CF0B4C01DF0B5C099
:101930001EF0B6C01FF09AEC15F01CC071F01DC06F
:1019400072F01EC073F01FC074F0E0EC29F06DC09F
:10195000AFF06EC0B0F06FC0B1F070C0B2F0C1C0F7
:101960001CF0C2C01DF0C3C01EF0C4C01FF0000EAA
:10197000206E000E216E200E226E410E236EC5ECED
:1019800019F01CC0C1F01DC0C2F01EC0C3F01FC0C2
:10199000C4F000019D07D8A09E07B74BB82B9F51FC
:1019A000B75DB851800A886FA051800A8859D8B0B5
:1019B000DCEF0CF0DEEF0CF0ECEF0CF0C0BFEAEF68
:1019C0000CF0C05109E14B0EBF5DD8A0EAEF0CF05E
:1019D000ECEF0CF0E1EF0BF09B519C11D8A4F3EF6E
:1019E0000CF0F5EF0CF006EF0DF035A8FAEF0CF067
:1019F000FCEF0CF006EF0DF0400EBF25D96E010E86
:101A0000C021DA6E2E0EDF6EBF4BC02B400EBF25FD
:101A1000D96E010EC021DA6E000EDF6E650EAD19B3
:101A2000D8A415EF0DF017EF0DF0E7EF0DF0000E55
:101A3000B86F4F0EB76F400EB725D96E010EB821A3
:101A4000DA6E000EDF6E000EA86F000EA76FBEBF2D
:101A50002EEF0DF02CEF0DF036EF0DF0000EA86F0D
:101A6000010EA76FBD6DBE1FD8B0BE2B000EAA6FB2
:101A7000020EA96F67EF0DF0B707D8A0B807400EA8
:101A8000B725D96E010EB821DA6EBDC01CF0BEC0FC
:101A90001DF0000E1F6E0A0E1E6E58EC25F01C5035
:101AA000300FDF6EBDC01CF0BEC01DF0000E1F6EFB
:101AB0000A0E1E6E36EC24F01CC0BDF01DC0BEF038
:101AC0000001A907D8A0AA07AB07D8A0AC07BD5151
:101AD000BE11D8A46EEF0DF070EF0DF03CEF0DF0DD
:101AE000AABF7DEF0DF0AA5106E1A905D8B07BEFA2
:101AF0000DF07DEF0DF03CEF0DF0B707D8A0B80763
:101B0000A751A811D8A487EF0DF089EF0DF08FEF42
:101B10000DF0000E946F2B0E936F93EF0DF0000EEF
:101B2000946F2D0E936F400EB725D96E010EB8211C
:101B3000DA6E93C0DFFFAB07D8A0AC07B707D8A019
:101B4000B807BF0E886FFF0E896F87518A6F8B6B46
:101B500088518A2789518B238B510AE11A0E8A5D9D
:101B6000D8A0B5EF0DF0B8EF0DF0010EB9EF0DF004
:101B7000000E976F986B97519811D8A4C2EF0DF093
:101B8000C4EF0DF0CAEF0DF0000E966F650E956F65
:101B9000CEEF0DF0000E966F450E956F400EB725F7
:101BA000D96E010EB821DA6E95C0DFFFAB07D8A061
:101BB000AC07400EBF251C6E010EC0211D6E400EED
:101BC000B7251E6E010EB8211F6EE7EC28F081C00C
:101BD00067F082C068F0400E0001696F010E6A6F05
:101BE000ABC06BF0ACC06CF0D2EC23F067C081F0FE
:101BF00068C082F01200C7C0D9FFC8C0DAFFDECFCC
:101C0000F6FFDDCFF7FFF86A0800F550250AD8A4E3
:101C10000CEF0EF00EEF0EF0BCEF10F0C7C0D9FFC6
:101C2000C8C0DAFFDE2A000EDD22000E0001F16FCF
:101C3000000EF06FF0C035F0F1C036F0F269F369D4
:101C4000C7C0D9FFC8C0DAFFDECFF6FFDDCFF7FF90
:101C5000F86A0800F5502A0AD8A431EF0EF033EFE5
:101C60000EF05CEF0EF0C7C0D9FFC8C0DAFFDE2A65
:101C7000000EDD22C9C0D9FFCAC0DAFFDFCFCBF02A
:101C8000020EDE26DFCFCCF0000EDD22CBC0D9FF66
:101C9000CCC0DAFFDECFF0F0DDCFF1F0F1BF55EFD1
:101CA0000EF053EF0EF0A2EF0EF03580F06DF11F45
:101CB000D8B0F12BA2EF0EF0C7C0D9FFC8C0DAFF31
:101CC000DECF23F0DDCF24F0A2EC20F023C0F0F033
:101CD00024C0F1F073EF0EF0C7C0D9FFC8C0DAFF1F
:101CE000DE2A000EDD22D00E0001CB6FFF0ECC6F7E
:101CF000C7C0D9FFC8C0DAFFDECFF6FFDDCFF7FFE0
:101D0000F86A0800F550CD6FCE6BCB51CD27CC5182
:101D1000CE23CE510AE10A0ECD5DD8A092EF0EF08F
:101D200095EF0EF0010E96EF0EF0000E0101906F90
:101D3000916B90519111D8A4A0EF0EF0A2EF0EF08C
:101D40006CEF0EF0C7C0D9FFC8C0DAFFDECFF6FFD8
:101D5000DDCFF7FFF86A0800F5502E0AD8A4B3EFDC
:101D60000EF0B5EF0EF037EF0FF0000E0001F36F3D
:101D7000000EF26FC7C0D9FFC8C0DAFFDE2A000E1E
:101D8000DD22C7C0D9FFC8C0DAFFDECFF6FFDDCF46
:101D9000F7FFF86A0800F5502A0AD8A4D2EF0EF02F
:101DA000D4EF0EF0F1EF0EF0C7C0D9FFC8C0DAFFD4
:101DB000DE2A000EDD22C9C0D9FFCAC0DAFFDFCF9C
:101DC000CBF0020EDE26DFCFCCF0000EDD22CBC042
:101DD000D9FFCCC0DAFFDECFF2F0DDCFF3F037EF82
:101DE0000FF0C7C0D9FFC8C0DAFFDECF23F0DDCFC8
:101DF00024F0A2EC20F023C0F2F024C0F3F008EFAE
:101E00000FF0C7C0D9FFC8C0DAFFDE2A000EDD22FE
:101E1000D00E0001CB6FFF0ECC6FC7C0D9FFC8C07A
:101E2000DAFFDECFF6FFDDCFF7FFF86A0800F550E6
:101E3000CD6FCE6BCB51CD27CC51CE23CE510AE105
:101E40000A0ECD5DD8A027EF0FF02AEF0FF0010E9C
:101E50002BEF0FF0000E0101926F936B92519311D3
:101E6000D8A435EF0FF037EF0FF001EF0FF0C7C038
:101E7000D9FFC8C0DAFFDECFF6FFDDCFF7FFF86A83
:101E80000800F550226E236AB6EC28F022500101BA
:101E90009A6F9A51D8B44FEF0FF051EF0FF08FEFC8
:101EA0000FF0C7C0D9FFC8C0DAFFDECFCBF0DDCF5F
:101EB000CCF0010E0001CB27000ECC23CBC0F6FFE7
:101EC000CCC0F7FFF86A0800F550226E236AB6EC22
:101ED00028F0225001019B6F9B51D8B472EF0FF094
:101EE00074EF0FF08FEF0FF0C7C0D9FFC8C0DAFF53
:101EF000DECFCBF0DDCFCCF0020E0001CB27000E01
:101F0000CC23CBC0F6FFCCC0F7FFF86A0800F55031
:101F1000226E236AB6EC28F0225001019C6F660EF7
:101F20009A19D8A496EF0FF098EF0FF0D9EF0FF0B1
:101F3000C7C0D9FFC8C0DAFFDECFF6FFDDCFF7FF9D
:101F4000F86A0800F5CF9DF1C7C0D9FFC8C0DAFF15
:101F5000DE2A000EDD22C9C0D9FFCAC0DAFFDFCFFA
:101F6000CBF0040EDE26DFCFCCF0000EDD22CBC09E
:101F7000D9FFCCC0DAFFDECF96F1DECF97F1DECF0E
:101F800098F1DECF99F1C5C081F0C6C082F096C14C
:101F900083F097C184F098C185F099C186F09DC106
:101FA00087F0A5EC07F081C0C5F082C0C6F0D8EF7D
:101FB00010F09A0E1C6E010E1D6E430E1E6E0F0E5B
:101FC0001F6E000E216E020E206EF7EC22F01C50E8
:101FD0001D10D8A4EEEF0FF0F0EF0FF083EF10F02C
:101FE000C7C0D9FFC8C0DAFFDECFCBF0DDCFCCF061
:101FF000010E0001CB27000ECC23CBC0F6FFCCC0D6
:10200000F7FFF86A0800F5CF9DF1BF0ECB6FFF0E0A
:10201000CC6FC7C0D9FFC8C0DAFFDECFF6FFDDCF77
:10202000F7FFF86A0800F550CD6FCE6BCB51CD2786
:10203000CC51CE23CE510AE11A0ECD5DD8A023EFAC
:1020400010F026EF10F0010E27EF10F0000E010146
:10205000946F956B94519511D8B431EF10F033EF24
:1020600010F04DEF10F0C9C0D9FFCAC0DAFFDFCFC2
:10207000CBF0040EDE26DFCFCCF0000EDD22CBC08D
:10208000D9FFCCC0DAFFDECF96F1DECF97F1DECFFD
:1020900098F1DECF99F165EF10F0C9C0D9FFCAC041
:1020A000DAFFDFCFCBF0040EDE26DFCFCCF0000E60
:1020B000DD22CBC0D9FFCCC0DAFFDECF96F1DECF78
:1020C00097F1DECF98F1DECF99F1020EC7C0D9FFAC
:1020D000C8C0DAFFDE26000EDD22C5C081F0C6C012
:1020E00082F096C183F097C184F098C185F099C1C0
:1020F00086F09DC187F0A5EC07F081C0C5F082C0D5
:10210000C6F0D8EF10F0C7C0D9FFC8C0DAFFDECFE5
:10211000F6FFDDCFF7FFF86A0800F550250AD8A4CE
:1021200094EF10F096EF10F0AEEF10F0C7C0D9FFAB
:10213000C8C0DAFFDE2A000EDD22000E1F6E250E5B
:102140001E6EC5C020F0C6C021F058EC26F0000E6F
:102150000001C66F010EC56FD8EF10F0C7C0D9FFE0
:10216000C8C0DAFFDE2A000EDD22000E0001C66FB5
:10217000000EC56FD8EF10F0C7C0D9FFC8C0DAFF96
:10218000DECFF6FFDDCFF7FFF86A0800F5501E6ED0
:102190001F6AC5C020F0C6C021F058EC26F0C7C0A9
:1021A000D9FFC8C0DAFFDE2A000EDD22A7EF10F04B
:1021B00012001F50800B0001606F1F501F24626FC0
:1021C0001EAEE5EF10F0E7EF10F0E8EF10F06281DF
:1021D0006251D8B4EEEF10F0F0EF10F005EF11F00F
:1021E0006229D8A4F6EF10F0F8EF10F000EF11F02C
:1021F000000E1C6E000E1D6E000E1E6E000E1F6E79
:102200001E8E000E1F6E0DEF11F0000E1C6E000EE4
:102210001D6E000E1E6E000E1F6E2350800B616F30
:1022200060516119D8B417EF11F019EF11F01AEFDE
:1022300011F0608D23502324616F22AE22EF11F044
:1022400024EF11F025EF11F061816151D8B42BEF2B
:1022500011F02DEF11F042EF11F06129D8A433EF06
:1022600011F035EF11F03DEF11F0000E206E000E71
:10227000216E000E226E000E236E228E000E236E43
:102280004AEF11F0000E206E000E216E000E226E3D
:10229000000E236E6251615DD8B051EF11F053EF23
:1022A00011F07AEF11F060AD58EF11F05AEF11F024
:1022B0005CEF11F0800E601B62C063F061C062F0E1
:1022C00063C061F01CC063F020C01CF063C020F04C
:1022D0001DC063F021C01DF063C021F01EC063F07B
:1022E00022C01EF063C022F01FC063F023C01FF0A5
:1022F00063C023F0000E636F625161C024F0256A51
:10230000245E000E255A25BE8FEF11F0255009E1FD
:102310001A0E245CD8A08FEF11F091EF11F0C8EFE6
:1023200011F01C501D101E101F10D8A49AEF11F0B0
:102330009DEF11F0010E9EEF11F0000E636F000E85
:102340001C6E000E1D6E000E1E6E000E1F6E61C014
:1023500062F0D1EF11F063A1B0EF11F0B2EF11F024
:10236000B8EF11F0D89063310109636FBAEF11F043
:10237000D89063331CA0BFEF11F0C1EF11F0C2EF92
:1023800011F0638F1F341F321E321D321C32622B3C
:102390006151625DD8A0CFEF11F0D1EF11F0ABEF3A
:1023A00011F060BDD6EF11F0D8EF11F018EF12F078
:1023B0006251D8A4DEEF11F0E0EF11F0EAEF11F076
:1023C000000E1C6E000E1D6E000E1E6E000E1F6EA7
:1023D00039EF13F020501C2621501D2222501E22BE
:1023E00023501F221FA0F7EF11F0F9EF11F0A5EF16
:1023F00012F063A1FEEF11F000EF12F006EF12F001
:10240000D89063310109636F08EF12F0D8906333FD
:102410001CA00DEF12F00FEF12F010EF12F0638F0F
:102420001F341F321E321D321C32622BA5EF12F0F8
:1024300020501C5C21501D5822501E581F50800AED
:10244000246E2350800A2458D8B029EF12F02BEFC5
:1024500012F056EF12F01C50205C246E1D502158D3
:10246000256E1E502258266E1F502358276EFF0ED1
:1024700024241C6EFF0E25201D6EFF0E26201E6ECE
:10248000FF0E27201F6E800E601B636D6351D8A462
:102490004CEF12F04EEF12F05EEF12F0010E1C2620
:1024A000000E1D221E221F225EEF12F020501C5E25
:1024B00021501D5A22501E5A23501F5A1C501D10C5
:1024C0001E101F10D8A467EF12F069EF12F09EEFF4
:1024D00012F06351D8A46FEF12F071EF12F09EEF7B
:1024E00012F0000E1C6E000E1D6E000E1E6E000E11
:1024F0001F6E39EF13F0D8901C361D361E361F366E
:1025000063AF85EF12F087EF12F088EF12F01C80B6
:1025100063A18DEF12F08FEF12F093EF12F0D880DD
:10252000633795EF12F0D89063376251D8B49BEFC0
:1025300012F09DEF12F09EEF12F062071EAEA3EFB5
:1025400012F0A5EF12F07BEF12F0000E616F63AF97
:10255000ACEF12F0AEEF12F0C6EF12F063C024F051
:102560007F0E2416D8B4B7EF12F0B9EF12F0BDEF1A
:1025700012F0010E616FC6EF12F01CA0C2EF12F054
:10258000C4EF12F0C6EF12F0B9EF12F06151D8B4F7
:10259000CCEF12F0CEEF12F0F9EF12F0010E1C2684
:1025A000000E1D221E221F221FA0D9EF12F0DBEF0A
:1025B00012F0F9EF12F01CC024F01DC025F01EC06F
:1025C00026F01FC027F02734273226322532243246
:1025D00024C01CF025C01DF026C01EF027C01FF02F
:1025E0006229D8B4F6EF12F0F8EF12F0F9EF12F01A
:1025F000622B6229D8B4FFEF12F001EF13F009EF5C
:1026000013F06251D8A407EF13F009EF13F01BEF9A
:1026100013F0000E1C6E000E1D6E000E1E6E000EDE
:102620001F6E6251D8A417EF13F019EF13F01BEFD0
:1026300013F0000E606F62A120EF13F022EF13F091
:1026400025EF13F01E8E26EF13F01E9ED8906231F8
:102650001F6E60AF2EEF13F030EF13F031EF13F079
:102660001F8E1CC01CF01DC01DF01EC01EF01FC020
:102670001FF012000450800B0D6E045004240F6EE6
:1026800003AE45EF13F047EF13F048EF13F00F8060
:102690000F50D8B44EEF13F050EF13F065EF13F076
:1026A0000F28D8A456EF13F058EF13F060EF13F093
:1026B000000E016E000E026E000E036E000E046E20
:1026C000038E000E046E6DEF13F0000E016E000E0F
:1026D000026E000E036E000E046E0850800B0E6E2C
:1026E0000D500E18D8B477EF13F079EF13F07AEF9E
:1026F00013F00D8C085008240E6E07AE82EF13F015
:1027000084EF13F085EF13F00E800E50D8B48BEFEA
:1027100013F08DEF13F0A2EF13F00E28D8A493EF6F
:1027200013F095EF13F09DEF13F0000E056E000E01
:10273000066E000E076E000E086E078E000E086E05
:10274000AAEF13F0000E056E000E066E000E076E67
:10275000000E086E0F500E5CD8B0B1EF13F0B3EF5F
:1027600013F0DAEF13F00DACB8EF13F0BAEF13F08B
:10277000BCEF13F0800E0D1A0FC010F00EC00FF05A
:1027800010C00EF001C010F005C001F010C005F03F
:1027900002C010F006C002F010C006F003C010F036
:1027A00007C003F010C007F004C010F008C004F028
:1027B00010C008F0000E106E0F500EC009F00A6A2B
:1027C000095E000E0A5A0ABEEFEF13F00A5009E143
:1027D0001A0E095CD8A0EFEF13F0F1EF13F028EF19
:1027E00014F00150021003100410D8A4FAEF13F0F3
:1027F000FDEF13F0010EFEEF13F0000E106E000E51
:10280000016E000E026E000E036E000E046E0EC00E
:102810000FF031EF14F010A010EF14F012EF14F0DD
:1028200018EF14F0D89010300109106E1AEF14F060
:10283000D890103201A01FEF14F021EF14F022EF16
:1028400014F0108E043404320332023201320F2AA3
:102850000E500F5CD8A02FEF14F031EF14F00BEFF7
:1028600014F00DBC36EF14F038EF14F078EF14F0DC
:102870000F50D8A43EEF14F040EF14F04AEF14F0DC
:10288000000E016E000E026E000E036E000E046E4E
:1028900099EF15F005500126065002220750032239
:1028A0000850042204A057EF14F059EF14F005EF7C
:1028B00015F010A05EEF14F060EF14F066EF14F066
:1028C000D89010300109106E68EF14F0D8901032D3
:1028D00001A06DEF14F06FEF14F070EF14F0108E94
:1028E000043404320332023201320F2A05EF15F0AC
:1028F0000550015C06500258075003580450800AE6
:10290000096E0850800A0958D8B089EF14F08BEF8F
:1029100014F0B6EF14F00150055C096E0250065831
:102920000A6E035007580B6E045008580C6EFF0EC9
:102930000924016EFF0E0A20026EFF0E0B20036EAB
:10294000FF0E0C20046E800E0D1A106C1050D8A4CF
:10295000ACEF14F0AEEF14F0BEEF14F0010E012650
:10296000000E022203220422BEEF14F00550015E85
:102970000650025A0750035A0850045A01500210D8
:1029800003100410D8A4C7EF14F0C9EF14F0FEEF41
:1029900014F01050D8A4CFEF14F0D1EF14F0FEEFE4
:1029A00014F0000E016E000E026E000E036E000E9B
:1029B000046E99EF15F0D8900136023603360436CE
:1029C00010AEE5EF14F0E7EF14F0E8EF14F001803B
:1029D00010A0EDEF14F0EFEF14F0F3EF14F0D88047
:1029E0001036F5EF14F0D89010360F50D8B4FBEF36
:1029F00014F0FDEF14F0FEEF14F00F0603AE03EF3A
:102A000015F005EF15F0DBEF14F0000E0E6E10AEB2
:102A10000CEF15F00EEF15F026EF15F010C009F0D1
:102A20007F0E0916D8B417EF15F019EF15F01DEF4A
:102A300015F0010E0E6E26EF15F001A022EF15F035
:102A400024EF15F026EF15F019EF15F00E50D8B45D
:102A50002CEF15F02EEF15F059EF15F0010E0126B1
:102A6000000E02220322042204A039EF15F03BEFEE
:102A700015F059EF15F001C009F002C00AF003C0CB
:102A80000BF004C00CF00C340C320B320A32093259
:102A900009C001F00AC002F00BC003F00CC004F042
:102AA0000F28D8B456EF15F058EF15F059EF15F080
:102AB0000F2A0F28D8B45FEF15F061EF15F069EF1A
:102AC00015F00F50D8A467EF15F069EF15F07BEF04
:102AD00015F0000E016E000E026E000E036E000E69
:102AE000046E0F50D8A477EF15F079EF15F07BEF57
:102AF00015F0000E0D6E0FA080EF15F082EF15F0AF
:102B000085EF15F0038E86EF15F0039ED8900F30F9
:102B1000046E0DAE8EEF15F090EF15F091EF15F0FD
:102B2000048E01C001F002C002F003C003F004C033
:102B300004F012001F50800B0001606F1F501F2413
:102B4000666F1EAEA6EF15F0A8EF15F0A9EF15F011
:102B500066816651D8B4AFEF15F0B1EF15F0C4EF50
:102B600015F06629D8A4B7EF15F0B9EF15F0C1EF4D
:102B700015F0000E1C6E000E1D6E000E1E6E000E77
:102B80001F6E1E8ECCEF15F0000E1C6E000E1D6E1B
:102B9000000E1E6E000E1F6E2350800B601B235014
:102BA0002324616F22AED7EF15F0D9EF15F0DAEFDD
:102BB00015F061816151D8B4E0EF15F0E2EF15F046
:102BC000F5EF15F06129D8A4E8EF15F0EAEF15F05C
:102BD000F2EF15F0000E206E000E216E000E226E38
:102BE000000E236E228EFDEF15F0000E206E000EFB
:102BF000216E000E226E000E236E6151D8B403EFD9
:102C000016F005EF16F00DEF16F06651D8A40BEF95
:102C100016F00DEF16F017EF16F0000E1C6E000EFA
:102C20001D6E000E1E6E000E1F6EAFEF17F02250CD
:102C30001C02F3CF6BF0F4CF6CF06B51626F636BDF
:102C4000646B656B6C51676F686B696B6A6B215065
:102C50001D02F3CF6BF0F4CF6CF06B516227000EC6
:102C60006323642365236C516727000E682369235F
:102C70006A2320501E02F3CF6BF0F4CF6CF06B513F
:102C80006227000E6323642365236C516727000EBF
:102C9000682369236A2364C065F063C064F062C07E
:102CA00063F0626B20501D02F3CF6BF0F4CF6CF039
:102CB0006B5162276C516323000E6423000E652361
:102CC00021501C02F3CF6BF0F4CF6CF06B516227F4
:102CD0006C516323000E6423000E652364C065F00D
:102CE00063C064F062C063F0626B20501C02F3CFDB
:102CF0006BF0F4CF6CF06B5162276C516323000EC4
:102D00006423000E652322501D02F3CF6BF0F4CF35
:102D10006CF06B5167276C516823000E6923000E1D
:102D20006A2321501E02F3CF6BF0F4CF6CF06B518D
:102D300067276C516823000E6923000E6A23225016
:102D40001E02F3CF6BF0F4CF6CF06B51246E6C511C
:102D5000256E266A276A26C027F025C026F024C0E3
:102D600025F0246A245067272550682326506923BC
:102D700027506A2362C024F063C025F064C026F0A7
:102D800065C027F0190ECAEF16F0D8902732263208
:102D900025322432E82EC5EF16F02450672725503F
:102DA00068232650692327506A2364C065F063C0F6
:102DB00064F062C063F0626B615166C024F0256A02
:102DC0002426000E2522820E24246B6FFF0E252060
:102DD0006C6F00EF17F0D8906737683769376A373C
:102DE00065AFF5EF16F0F7EF16F0F8EF16F0678124
:102DF000D89062376337643765376B07D8A06C07A4
:102E000069AF05EF17F007EF17F0EBEF16F0000EC4
:102E1000616F65AF0EEF17F010EF17F034EF17F09A
:102E2000FF0E6215246EFF0E6315256EFF0E6415EE
:102E3000266E7F0E6515276E24502510261027104C
:102E4000D8B425EF17F027EF17F02BEF17F0010E8E
:102E5000616F34EF17F067A130EF17F032EF17F022
:102E600034EF17F027EF17F06151D8B43AEF17F0AD
:102E70003CEF17F060EF17F0010E6727000E682394
:102E800069236A236AA147EF17F049EF17F060EF53
:102E900017F067C024F068C025F069C026F06AC04A
:102EA00027F02734273226322532243224C067F017
:102EB00025C068F026C069F027C06AF06B4B6C2B08
:102EC0006CBF6BEF17F06C5108E16B29D8A06BEF6A
:102ED00017F06DEF17F077EF17F0000E676F000E29
:102EE000686F800E696F7F0E6A6FA5EF17F06CBF79
:102EF00084EF17F06C5106E16B05D8B082EF17F044
:102F000084EF17F090EF17F0000E676F000E686FF8
:102F1000000E696F000E6A6F000E606FA5EF17F06C
:102F20006BC066F0FF0E6717FF0E68177F0E6917FC
:102F3000000E6A1766A19FEF17F0A1EF17F0A2EF3E
:102F400017F0698FD89066316A6F60516A1367C055
:102F50001CF068C01DF069C01EF06AC01FF01200AE
:102F60000450800B0D6E04500424136E03AEBBEFAF
:102F700017F0BDEF17F0BEEF17F013801350D8B461
:102F8000C4EF17F0C6EF17F0D9EF17F01328D8A445
:102F9000CCEF17F0CEEF17F0D6EF17F0000E016E62
:102FA000000E026E000E036E000E046E038EE1EF43
:102FB00017F0000E016E000E026E000E036E000E82
:102FC000046E0850800B0D1A08500824126E07AECC
:102FD000ECEF17F0EEEF17F0EFEF17F01280125052
:102FE000D8B4F5EF17F0F7EF17F00AEF18F0122842
:102FF000D8A4FDEF17F0FFEF17F007EF18F0000E61
:10300000056E000E066E000E076E000E086E078E2F
:1030100012EF18F0000E056E000E066E000E076E21
:10302000000E086E1250D8B418EF18F01AEF18F00E
:1030300022EF18F01350D8A420EF18F022EF18F068
:103040002CEF18F0000E016E000E026E000E036EE3
:10305000000E046EC4EF19F007500102F3CF18F010
:10306000F4CF19F018500E6E0F6A106A116A1950D9
:10307000146E156A166A176A06500202F3CF18F02A
:10308000F4CF19F018500E26000E0F221022112234
:1030900019501426000E152216221722055003027D
:1030A000F3CF18F0F4CF19F018500E26000E0F22AF
:1030B0001022112219501426000E15221622172252
:1030C00010C011F00FC010F00EC00FF00E6A0550C6
:1030D0000202F3CF18F0F4CF19F018500E26195051
:1030E0000F22000E1022000E112206500102F3CF13
:1030F00018F0F4CF19F018500E2619500F22000EB8
:103100001022000E112210C011F00FC010F00EC0DE
:103110000FF00E6A05500102F3CF18F0F4CF19F04A
:1031200018500E2619500F22000E1022000E1122E8
:1031300007500202F3CF18F0F4CF19F018501426FC
:1031400019501522000E1622000E172206500302F7
:10315000F3CF18F0F4CF19F0185014261950152297
:10316000000E1622000E172207500302F3CF18F0AC
:10317000F4CF19F01850096E19500A6E0B6A0C6AD8
:103180000BC00CF00AC00BF009C00AF0096A095024
:1031900014260A5015220B5016220C5017220EC06E
:1031A00009F00FC00AF010C00BF011C00CF0190E9E
:1031B000DFEF18F0D8900C320B320A320932E82EC9
:1031C000DAEF18F0095014260A5015220B50162277
:1031D0000C50172210C011F00FC010F00EC00FF0ED
:1031E0000E6A125013C009F00A6A0926000E0A225C
:1031F000820E0924186EFF0E0A20196E15EF19F0C1
:10320000D890143615361636173611AE0AEF19F067
:103210000CEF19F00DEF19F01480D8900E360F3620
:10322000103611361806D8A0190616AE1AEF19F086
:103230001CEF19F000EF19F0000E126E11AE23EF23
:1032400019F025EF19F049EF19F0FF0E0E14096E71
:10325000FF0E0F140A6EFF0E10140B6E7F0E11146A
:103260000C6E09500A100B100C10D8B43AEF19F07C
:103270003CEF19F040EF19F0010E126E49EF19F012
:1032800014A045EF19F047EF19F049EF19F03CEFA2
:1032900019F01250D8B44FEF19F051EF19F075EF43
:1032A00019F0010E1426000E15221622172217A05F
:1032B0005CEF19F05EEF19F075EF19F014C009F02A
:1032C00015C00AF016C00BF017C00CF00C340C320D
:1032D0000B320A32093209C014F00AC015F00BC0D3
:1032E00016F00CC017F0184A192A19BE80EF19F011
:1032F000195008E11828D8A080EF19F082EF19F0D2
:103300008CEF19F0000E146E000E156E800E166E06
:103310007F0E176EBAEF19F019BE99EF19F0195018
:1033200006E11804D8B097EF19F099EF19F0A5EF5E
:1033300019F0000E146E000E156E000E166E000EC3
:10334000176E000E0D6EBAEF19F018C013F0FF0ED5
:103350001416FF0E15167F0E1616000E171613A064
:10336000B4EF19F0B6EF19F0B7EF19F0168ED89048
:103370001330176E0D50171214C001F015C002F073
:1033800016C003F017C004F012001F50800B00019C
:10339000646F1F501F246B6F1EAED1EF19F0D3EF77
:1033A00019F0D4EF19F06B816B51D8B4DAEF19F042
:1033B000DCEF19F0F1EF19F06B29D8A4E2EF19F066
:1033C000E4EF19F0ECEF19F0000E1C6E000E1D6E0C
:1033D000000E1E6E000E1F6E1E8E000E1F6EF9EF89
:1033E00019F0000E1C6E000E1D6E000E1E6E000EFB
:1033F0001F6E2350800B641B235023246C6F22AE5E
:1034000004EF1AF006EF1AF007EF1AF06C816C5116
:10341000D8B40DEF1AF00FEF1AF024EF1AF06C2960
:10342000D8A415EF1AF017EF1AF01FEF1AF0000EDC
:10343000206E000E216E000E226E000E236E228E74
:10344000000E236E2CEF1AF0000E206E000E216E7F
:10345000000E226E000E236E205021102210231029
:10346000D8A435EF1AF037EF1AF04FEF1AF0000E2C
:103470001C6E000E1D6E000E1E6E000E1F6E800E66
:103480001E127F0E1F1264511F121CC01CF01DC0A3
:103490001DF01EC01EF01FC01FF092EF1BF06B51FD
:1034A000D8A455EF1AF057EF1AF061EF1AF0000E9A
:1034B0001C6E000E1D6E000E1E6E000E1F6E92EF33
:1034C0001BF06C516BC024F0256A245E000E255A57
:1034D0007F0E2424656F000E2520666F1CC060F0EF
:1034E0001DC061F01EC062F01FC063F0000E1C6EB4
:1034F000000E1D6E000E1E6E000E1F6E000E676F1A
:10350000000E686F000E696F000E6A6F000E6C6F20
:10351000C2EF1AF06C51D8B490EF1AF092EF1AF093
:10352000A9EF1AF0D8906037613762376337D890C7
:103530001C361D361E361F366AAFA1EF1AF0A3EFF8
:103540001AF0A4EF1AF01C80D890673768376937F3
:103550006A372050605D21506159225062592350D2
:103560006359D8A0B6EF1AF0B8EF1AF0C1EF1AF00D
:103570006A8D2050605F2150615B2250625B235056
:10358000635B6C2B190E6C65C8EF1AF0CAEF1AF06A
:103590008AEF1AF06051611162116311D8B4D3EF50
:1035A0001AF0D5EF1AF0EDEF1AF06781EDEF1AF08F
:1035B000D8901C361D361E361F366AAFE2EF1AF061
:1035C000E4EF1AF0E5EF1AF01C80D89067376837FF
:1035D00069376A376507D8A066071EAEF2EF1AF0A2
:1035E000F4EF1AF0D8EF1AF0000E6C6F6AAFFBEF31
:1035F0001AF0FDEF1AF021EF1BF0FF0E6715246E95
:10360000FF0E6815256EFF0E6915266E7F0E6A1572
:10361000276E2450251026102710D8B412EF1BF067
:1036200014EF1BF018EF1BF0010E6C6F21EF1BF075
:103630001CA01DEF1BF01FEF1BF021EF1BF014EF80
:103640001BF06C51D8B427EF1BF029EF1BF04DEFA6
:103650001BF0010E1C26000E1D221E221F221FA081
:1036600034EF1BF036EF1BF04DEF1BF01CC024F0C5
:103670001DC025F01EC026F01FC027F027342732BA
:1036800026322532243224C01CF025C01DF026C06D
:103690001EF027C01FF0654B662B66BF58EF1BF06E
:1036A000665108E16529D8A058EF1BF05AEF1BF0CE
:1036B00065EF1BF0000E666F6569000E1C6E000E54
:1036C0001D6E000E1E6E000E1F6E66BF72EF1BF0A9
:1036D000665106E16505D8B070EF1BF072EF1BF084
:1036E00080EF1BF0000E666F000E656F000E1C6E03
:1036F000000E1D6E000E1E6E000E1F6E000E646F1B
:1037000065C06BF06BA187EF1BF089EF1BF08CEFAE
:103710001BF01E8E8DEF1BF01E9ED8906B311F6E1E
:1037200043EF1AF01200C0EC2BF020EC2CF094ECDC
:1037300029F01C0E1C6E3C0E1D6E60EC2CF0F28EFF
:10374000F28C8382090E0101A96F1E0EA86FE40E90
:10375000E82EFED7A82FFCD7A92FFAD700F0838434
:10376000090E0101A96F1E0EA86FE40EE82EFED708
:10377000A82FFCD7A92FFAD700F0848A84848388E5
:10378000090E0101A96F1E0EA86FE40EE82EFED7E8
:10379000A82FFCD7A92FFAD700F0838A090E0101C0
:1037A000A96F1E0EA86FE40EE82EFED7A82FFCD737
:1037B000A92FFAD700F08392090E0101A96F1E0EFE
:1037C000A86FE40EE82EFED7A82FFCD7A92FFAD7B2
:1037D00000F08394090E0101A96F1E0EA86FE40E7C
:1037E000E82EFED7A82FFCD7A92FFAD700F0839890
:1037F000090E0101A96F1E0EA86FE40EE82EFED778
:10380000A82FFCD7A92FFAD700F0839A090E01013F
:10381000A96F1E0EA86FE40EE82EFED7A82FFCD7C6
:10382000A92FFAD700F031C06DF032C06EF033C06E
:103830006FF034C070F0E2C071F0E3C072F0E4C029
:1038400073F0E5C074F0F4EC21F00001D8B02BEF78
:103850001CF02DEF1CF0A9EF1CF0E6C06DF0E7C0E6
:103860006EF0E8C06FF0E9C070F031C071F032C0A6
:1038700072F033C073F034C074F0F4EC21F0000146
:10388000D8B045EF1CF047EF1CF0A9EF1CF0838285
:10389000FE05FF11D8A44FEF1CF051EF1CF078EF9C
:1038A0001CF083B856EF1CF059EF1CF0010E5AEFD4
:1038B0001CF0000EFF0A0101A86FA83B8350A81955
:1038C000EF0BA819836E050E0101A96F0F0EA86FEB
:1038D000F10EE82EFED7A82FFCD7A92FFAD7000E9D
:1038E0000001FF6F000EFE6F000EF56F010EF46F0A
:1038F00065EC23F02DC01CF02EC01DF02FC01EF073
:1039000030C01FF0000E206E000E216E000E226EE1
:10391000000E236EB0EC25F0D8B091EF1CF093EFC1
:103920001CF013EF1CF000EC2CF00009D8B49BEF56
:103930001CF09DEF1CF013EF1CF031C0A4F132C05D
:10394000A5F133C0A6F134C0A7F1E9EC26F013EFDE
:103950001CF08392F405F511D8A4B1EF1CF0B3EF7D
:103960001CF0DAEF1CF083B8B8EF1CF0BBEF1CF0D2
:10397000010EBCEF1CF0000EFF0A0101A86FA83B6E
:103980008350A819EF0BA819836E050E0101A96FCA
:103990000F0EA86FF10EE82EFED7A82FFCD7A92F87
:1039A000FAD7000E0001FF6F010EFE6F000EF56FDB
:1039B000000EF46F65EC23F02DC01CF02EC01DF03E
:1039C0002FC01EF030C01FF0000E206E000E216EC2
:1039D000000E226E000E236EB0EC25F0D8B0F3EF8F
:1039E0001CF0F5EF1CF013EF1CF000EC2CF00009BC
:1039F000D8B4FDEF1CF0FFEF1CF013EF1CF09DEFAF
:103A00001CF09DEF00F0DAC07DF0DBC07EF0DCC082
:103A10007FF0DDC080F06DC07DF06EC07EF06FC0C5
:103A20007FF070C080F0810E0001716FFF0E726F29
:103A30007DC073F07EC074F07FC075F080C076F0FA
:103A4000180E28EF1DF0D890763375337433733326
:103A5000E82E23EF1DF0735171257B6F000E72214C
:103A60007C6F7CBF3DEF1DF07C5109E1170E7B5D43
:103A7000D8A03DEF1DF03FEF1DF049EF1DF06DC0E8
:103A80006DF06EC06EF06FC06FF070C070F00DEF33
:103A90001EF07CBF4EEF1DF050EF1DF0C1EF1DF08A
:103AA0007BC071F0FF0E726FFF0E736F7F0E746F2D
:103AB000000E756F71675FEF1DF067EF1DF07535D4
:103AC0007533743373337233712F5AEF1DF072C034
:103AD00077F073C078F074C079F075C07AF00001A7
:103AE00077517D15716F78517E15726F79517F1501
:103AF000736F7A518015746F715172117311741153
:103B0000D8A485EF1DF087EF1DF089EF1DF03FEF82
:103B10001DF07DC071F07EC072F07FC073F080C078
:103B200074F0200E99EF1DF0D89074337333723314
:103B30007133E82E94EF1DF07151721173117411ED
:103B4000D8B4A5EF1DF0A7EF1DF0AFEF1DF0775132
:103B50007D2778517E2379517F237A518023771DE9
:103B6000716F781D726F791D736F7A1D746F71514B
:103B70007D1772517E1773517F177451801705EFAF
:103B80001EF07DC071F07EC072F07FC073F080C007
:103B900074F0200ED1EF1DF0D8907433733372336C
:103BA0007133E82ECCEF1DF0715172117311741145
:103BB000D8A4DDEF1DF0DFEF1DF0E9EF1DF0000EE2
:103BC0007D6F000E7E6F000E7F6F000E806F05EF21
:103BD0001EF0D8907D35716F7E35726F7F35736FB3
:103BE0008035746F7151721173117411D8B4FBEF79
:103BF0001DF0FDEF1DF005EF1EF0000E7D6F000EB5
:103C00007E6F800E7F6FBF0E806F7DC06DF07EC0B7
:103C10006EF07FC06FF080C070F012004004411061
:103C2000D8A415EF1EF017EF1EF0EBEF1EF083B4D3
:103C30001CEF1EF01FEF1EF0010E20EF1EF0000E15
:103C4000FF0A116E1146114683501118FB0B111813
:103C5000836EFAEC24F06BEC29F0240AD8A433EF3D
:103C60001EF035EF1EF02BEF1EF00BEC2CF00009D0
:103C7000D8B43DEF1EF03FEF1EF035EF1EF06BECB9
:103C800029F0396E3950016E026A036A046A000E27
:103C9000C8EC1FF001C02DF002C02EF003C02FF0C1
:103CA00004C030F00B0E116E620EE82EFED7112EFE
:103CB000FCD700D02DC001F02EC002F02FC003F0C1
:103CC00030C004F0000E056E000E066EA00E076EEA
:103CD000410E086EB0EC17F001C02DF002C02EF0BE
:103CE00003C02FF004C030F00B0E116E620EE82EF0
:103CF000FED7112EFCD700D02DC001F02EC002F04F
:103D00002FC003F030C004F0330E056E330E066E84
:103D1000330E076E3F0E086EB0EC17F001C029F0AD
:103D200002C02AF003C02BF004C02CF00B0E116E61
:103D3000620EE82EFED7112EFCD700D02DC011F058
:103D40002EC012F02FC013F030C014F029C015F0AF
:103D50002AC016F02BC017F02CC018F004EC2AF083
:103D600011C0E6F012C0E7F013C0E8F014C0E9F0AB
:103D70000B0E116E620EE82EFED7112EFCD700D06E
:103D80002DC001F02EC002F02FC003F030C004F0AF
:103D900029C005F02AC006F02BC007F02CC008F09F
:103DA0003AEC13F001C0E2F002C0E3F003C0E4F02B
:103DB00004C0E5F00B0E116E620EE82EFED7112E38
:103DC000FCD700D0000E0001F96F010EF86F000E55
:103DD000416E000E406E12000001606F00016051E4
:103DE000D8B4F5EF1EF0F7EF1EF019EF1FF01FBE6D
:103DF000FEEF1EF0FCEF1EF019EF1FF01CC020F0CC
:103E00001DC021F01EC022F01FC023F0201E211E65
:103E1000221E231E202A000E21222222232220C01D
:103E200062F021C063F022C064F023C065F021EF8E
:103E30001FF01CC062F01DC063F01EC064F01FC004
:103E400065F01C501D101E101F10D8A42AEF1FF083
:103E50002CEF1FF036EF1FF0000E1C6E000E1D6ED3
:103E6000000E1E6E000E1F6EC7EF1FF0960E616FE4
:103E700040EF1FF0612BD8906533643363336233B6
:103E8000000E6215206E000E6315216E000E641583
:103E9000226EFE0E6515236E205021102210231075
:103EA000D8A455EF1FF057EF1FF03AEF1FF065EF62
:103EB0001FF0612B010E6227000E6323642365232C
:103EC000D8906533643363336233000E6215206E1D
:103ED000000E6315216E000E6415226EFF0E65152F
:103EE000236E2050211022102310D8A47AEF1FF047
:103EF0007CEF1FF059EF1FF084EF1FF06107D8909F
:103F0000623763376437653764BF89EF1FF08BEF23
:103F10001FF093EF1FF0020E616191EF1FF093EF1E
:103F20001FF07EEF1FF061B198EF1FF09AEF1FF0C6
:103F30009BEF1FF0649FD890613361C020F0216A2D
:103F4000226A236A20C023F0226A216A206A205054
:103F50006213215063132250641323506513605180
:103F6000D8B4B5EF1FF0B7EF1FF0BFEF1FF01FBEC3
:103F7000BEEF1FF0BCEF1FF0BFEF1FF0658F62C0F8
:103F80001CF063C01DF064C01EF065C01FF012007D
:103F9000096E0950D8B4CFEF1FF0D1EF1FF0F3EF47
:103FA0001FF004BED8EF1FF0D6EF1FF0F3EF1FF0A5
:103FB00001C005F002C006F003C007F004C008F01D
:103FC000051E061E071E081E052A000E06220722D1
:103FD000082205C00BF006C00CF007C00DF008C0A9
:103FE0000EF0FBEF1FF001C00BF002C00CF003C09D
:103FF0000DF004C00EF00150021003100410D8A4FC
:1040000004EF20F006EF20F010EF20F0000E016E1C
:10401000000E026E000E036E000E046EA1EF20F083
:10402000960E0A6E1AEF20F00A2AD8900E320D3240
:104030000C320B32000E0B14056E000E0C14066EC3
:10404000000E0D14076EFE0E0E14086E05500610BD
:1040500007100810D8A42FEF20F031EF20F014EF54
:1040600020F03FEF20F00A2A010E0B26000E0C2252
:104070000D220E22D8900E320D320C320B32000E71
:104080000B14056E000E0C14066E000E0D14076E58
:10409000FF0E0E14086E0550061007100810D8A465
:1040A00054EF20F056EF20F033EF20F05EEF20F0D9
:1040B0000A06D8900B360C360D360E360DBE63EF61
:1040C00020F065EF20F06DEF20F0020E0A606BEF3C
:1040D00020F06DEF20F058EF20F00AB072EF20F0E2
:1040E00074EF20F075EF20F00D9ED8900A320AC0D0
:1040F00005F0066A076A086A05C008F0076A066ADA
:10410000056A05500B1206500C1207500D1208508C
:104110000E120950D8B48FEF20F091EF20F099EFF4
:1041200020F004BE98EF20F096EF20F099EF20F0F9
:104130000E8E0BC001F00CC002F00DC003F00EC0DB
:1041400004F01200000E0001686F000E676F000E91
:10415000616F000E606FAFEF20F0234A242A010E3A
:10416000666F23C0F6FF24C0F7FFF86A0800F55019
:10417000200AD8B4BEEF20F0C0EF20F0DEEF20F030
:10418000F70E256EFF0E266E23C0F6FF24C0F7FF44
:10419000F86A0800F550276E286A25502726265011
:1041A0002822285009E1050E275CD8A0DAEF20F07C
:1041B000DCEF20F0DEEF20F0000E666F66C062F0EC
:1041C000636B62516311D8A4E8EF20F0EAEF20F0AE
:1041D000ADEF20F0F4EF20F0000E616F010E606F84
:1041E000234A242A2CEF21F023C0F6FF24C0F7FF36
:1041F000F86A0800F550256E266A2650000AD8B4E1
:1042000004EF21F02CEF21F025502B0AD8B4F0EF69
:1042100020F0060AD8B4ECEF20F02CEF21F067C0B4
:104220001CF068C01DF0000E1F6E0A0E1E6E9BEC87
:104230002BF023C0F6FF24C0F7FFF86A0800F55002
:104240001C5E000E1D5A300E1C240001676F000E0C
:104250001D20686FF0EF20F0D00E256EFF0E266E49
:1042600023C0F6FF24C0F7FFF86A0800F550276E58
:10427000286A255027262650282228500AE10A0EAF
:10428000275CD8A046EF21F049EF21F0010E4AEF5C
:1042900021F0000E646F656B64516511D8A453EF73
:1042A00021F055EF21F00FEF21F060516111D8A4FA
:1042B0005CEF21F05EEF21F06CEF21F067C025F09C
:1042C00068C026F0251E261E254A262A25C023F072
:1042D00026C024F070EF21F067C023F068C024F0FE
:1042E00012001E341F34256E2550D8A47AEF21F019
:1042F0007CEF21F086EF21F0000E1C6E000E1D6E8B
:10430000000E1E6E000E1F6EF3EF21F01CC020F099
:104310001DC021F01EC022F01FC023F0200E96EF1A
:1043200021F0D8902332223221322032E82E91EF30
:1043300021F02050246E1E8EFF0E1C16FF0E1D163F
:10434000FF0E1E16000E1F16960E255E25BEADEF43
:1043500021F0ABEF21F0C3EF21F02550800A970F39
:10436000D8B0B5EF21F0B7EF21F0B9EF21F07CEF35
:1043700021F0D8901F321E321D321C32253EB9EF7B
:1043800021F0DBEF21F01F0E2564C9EF21F0CBEF08
:1043900021F0D3EF21F07CEF21F0D8901C361D36B0
:1043A0001E361F3625062550D8A4D9EF21F0DBEFA5
:1043B00021F0CDEF21F02450D8B4E1EF21F0E3EF6C
:1043C00021F0EBEF21F01F1E1E1E1D1E1C6C000EA7
:1043D0001D221E221F221CC01CF01DC01DF01EC06D
:1043E0001EF01FC01FF01200000E00016D15756F4A
:1043F000000E6E15766F800E6F15776F7F0E70153D
:10440000786F7551761177117811D8A40AEF22F0E0
:104410000CEF22F014EF22F0000E6D6F000E6E6FA5
:10442000000E6F6F000E706F000E7115756F000E2D
:104430007215766F800E7315776F7F0E7415786F17
:104440007551761177117811D8A429EF22F02BEF4E
:1044500022F033EF22F0000E716F000E726F000E2B
:10446000736F000E746F70AF38EF22F03AEF22F0E6
:1044700043EF22F06D6D6E1FD8B06E2B6F1FD8B05A
:104480006F2B800E705774AF48EF22F04AEF22F086
:1044900053EF22F0716D721FD8B0722B731FD8B01A
:1044A000732B800E7457000E6D1B000E6E1B000EDA
:1044B0006F1B800E701B000E711B000E721B000E16
:1044C000731B800E741B71516D5D72516E59735167
:1044D0006F5974517059D8B070EF22F072EF22F01A
:1044E00075EF22F0D89076EF22F0D8801200DEC06F
:1044F00062F0DFC063F0E0C064F0E1C065F01CC0B2
:1045000062F01DC063F01EC064F01FC065F062C0A1
:1045100020F063C021F064C022F065C023F0180EC3
:1045200097EF22F0D8902332223221322032E82E27
:1045300092EF22F020500001606F616B60516111B9
:10454000D8A4A5EF22F0A7EF22F0C7EF22F0D89071
:104550006235206E6335216E6435226E6535236EBB
:104560002050211022102310D8A4B9EF22F0BBEF65
:1045700022F0C1EF22F0000E1D6E020E1C6EF6EF4F
:1045800022F0000E1D6E030E1C6EF6EF22F0602965
:104590006111D8A4CEEF22F0D0EF22F0F2EF22F09A
:1045A00062C020F063C021F064C022F065C023F037
:1045B000090ED8902036213622362336E82ED9EF40
:1045C00022F02050211022102310D8B4EAEF22F05C
:1045D000EDEF22F0010EEEEF22F0000E1C6E1D6AD0
:1045E000F6EF22F0000E1D6E040E1C6E12001CC0B1
:1045F00023F01DC024F01EC025F01FC026F02006A9
:10460000D8A02106202806E12128D8A40AEF23F00B
:104610000CEF23F019EF23F0000E1D6E000E1C6E40
:1046200064EF23F0234A242A254A262A2006D8A00C
:10463000210623C0D9FF24C0DAFFDF50D8B423EF0E
:1046400023F025EF23F052EF23F025C0F6FF26C01C
:10465000F7FFF86A0800F5500009D8B432EF23F0EC
:1046600034EF23F052EF23F020502110D8B43BEF69
:1046700023F03DEF23F052EF23F023C0D9FF24C0F5
:10468000DAFFDF50226E25C0F6FF26C0F7FFF86A7A
:104690000800F5502218D8B450EF23F052EF23F061
:1046A00012EF23F023C0D9FF24C0DAFFDF50226EBF
:1046B00025C0F6FF26C0F7FFF86A0800F550225C17
:1046C0001C6E1D6AD8A01D06120083BA6AEF23F083
:1046D0006DEF23F0010E6EEF23F0000EFF0A0001D4
:1046E0006D6F6D3B6D4783506D19DF0B6D19836ED8
:1046F000090E00016E6F1E0E6D6FE40EE82EFED7E0
:104700006D2FFCD76E2FFAD700F0000ED7EC2AF0F1
:104710001CC06FF01DC070F06FC01CF070C01DF0A9
:104720001E6A1F6A000EECEC1EF01CC0EAF01DC0F1
:10473000EBF01EC0ECF01FC0EDF0EAC01CF0EBC0C7
:104740001DF0ECC01EF0EDC01FF07B0E206E140EAD
:10475000216EAE0E226E3E0E236E9AEC15F01CC03A
:1047600031F01DC032F01EC033F01FC034F031C034
:104770001CF032C01DF033C01EF034C01FF0000E1C
:10478000206E000E216EC80E226EC20E236ED9EC72
:1047900010F01CC031F01DC032F01EC033F01FC03D
:1047A00034F0120035A0D7EF23F0D9EF23F0E3EF78
:1047B00023F069C060F06AC061F067C062F068C051
:1047C00063F0BCEC29F000016CBFE9EF23F0EBEFE4
:1047D00023F0F1EF23F06BC06FF06CC070F0F5EFD9
:1047E00023F0000E706F000E6F6F000E6E6F000EE4
:1047F0006D6F08EF24F0000E1F6E200E1E6E67C056
:1048000020F068C021F058EC26F000016D4B6E2BB3
:104810006F516D5D6E51800A276E7051800A275866
:10482000D8A015EF24F017EF24F0FBEF23F035B0FC
:104830001CEF24F01EEF24F028EF24F069C060F094
:104840006AC061F067C062F068C063F0BCEC29F038
:1048500069C01CF06AC01DF0BCEC2AF000016F5169
:104860001C24676F70511D20686F1200000E216EAE
:104870001FBE3FEF24F03DEF24F045EF24F01E6C07
:104880001F1ED8B01F2A010E216E1DBE4CEF24F052
:104890004AEF24F052EF24F01C6C1D1ED8B01D2AE4
:1048A000010E211A000E236E000E226E1E501F10E4
:1048B000D8B45DEF24F05FEF24F087EF24F0010E11
:1048C000206E67EF24F0D8901E361F36202A1FAEC8
:1048D0006CEF24F06EEF24F063EF24F0D8902236D2
:1048E00023361E501C5C1F501D58D8A07AEF24F0B0
:1048F0007CEF24F081EF24F01E501C5E1F501D5AE7
:104900002280D8901F321E32202E6EEF24F02150CC
:10491000D8B48DEF24F08FEF24F093EF24F0226CC5
:10492000231ED8B0232A22C01CF023C01DF0120081
:104930002AEC2CF00009D8B4A0EF24F0A2EF24F068
:10494000DDEF24F0B0EF24F08CEC2CF0F9EF24F044
:1049500088EC2CF0F9EF24F080EC2CF0F9EF24F047
:1049600012C10AF013C10BF002D8C1EF24F0050008
:10497000FA6E01010651FD6E0751FE6EFF6AFA5094
:1049800012000C6E0D6A0D50000AD8B4CAEF24F064
:10499000ACEF24F00C50010AD8B4ACEF24F0030AB9
:1049A000D8B4A4EF24F0010AD8B4A8EF24F0070A81
:1049B000D8B4ACEF24F0ACEF24F0010123911DC179
:1049C000D9FF1EC1DAFF1D4B1E2BDF5090EC2CF0DF
:1049D00001011F07D8A020071F512011D8A4F3EF11
:1049E00024F0F5EF24F0F8EF24F0060EF9EF24F0B0
:1049F000030E1200240E3D24D96EDA6A010EDA226B
:104A0000000EDF6E9DA407EF25F009EF25F01DEFE6
:104A100025F0240E3D24D96EDA6A010EDA22010156
:104A2000DF8202D81DEF25F00500FA6EAE51FD6E53
:104A3000AF51FE6EFF6AFA5012009DA222EF25F0E0
:104A400024EF25F038EF25F0240E3D24D96EDA6AE4
:104A5000010EDA220101DF8402D838EF25F00500CB
:104A6000FA6EAC51FD6EAD51FE6EFF6AFA50120047
:104A7000240E3D24D96EDA6A010EDA22DF50D8B452
:104A800044EF25F046EF25F055EF25F002D853EF1F
:104A900025F00500FA6E0101AA51FD6EAB51FE6EC4
:104AA000FF6AFA50120057EF25F072EC2BF012005B
:104AB000000E216E1DBE61EF25F05FEF25F067EF60
:104AC00025F01C6C1D1ED8B01D2A010E216E1FBEC4
:104AD0006EEF25F06CEF25F072EF25F01E6C1F1EB7
:104AE000D8B01F2A1E501F10D8B479EF25F07BEFE5
:104AF00025F09FEF25F0010E206E83EF25F0D89072
:104B00001E361F36202A1FAE88EF25F08AEF25F0CB
:104B10007FEF25F01E501C5C1F501D58D8A093EF4E
:104B200025F095EF25F099EF25F01E501C5E1F50E3
:104B30001D5AD8901F321E32202E8AEF25F02150A8
:104B4000D8B4A5EF25F0A7EF25F0ABEF25F01C6C4E
:104B50001D1ED8B01D2A1CC01CF01DC01DF0120067
:104B6000000E1C14246E000E1D14256E800E1E14E3
:104B7000266E7F0E1F14276E245025102610271036
:104B8000D8A4C5EF25F0C7EF25F0CFEF25F0000E34
:104B90001C6E000E1D6E000E1E6E000E1F6E000EAF
:104BA0002014246E000E2114256E800E2214266E11
:104BB0007F0E2314276E2450251026102710D8A40A
:104BC000E4EF25F0E6EF25F0EEEF25F0000E206E85
:104BD000000E216E000E226E000E236E20501C1857
:104BE0000FE121501D180CE122501E1809E123503D
:104BF0001F18D8B4FEEF25F000EF26F003EF26F0E3
:104C0000D89004EF26F0D8801200B0EC2CF01DC133
:104C1000D9FF1EC1DAFFDF6E01011D4B1E2B1F07DE
:104C2000D8A020071F512011D8B419EF26F01BEF90
:104C300026F020EF26F0A0EC2CF0050E57EF26F022
:104C400023872BEF26F074EC2CF057EF26F078EC4E
:104C50002CF057EF26F00CC10AF00DC10BF002D872
:104C60003BEF26F00500FA6E0051FD6E0151FE6E1D
:104C7000FF6AFA5012000C6E0D6A0D50000AD8B48B
:104C800044EF26F027EF26F00C50010AD8B427EFA6
:104C900026F0030AD8B423EF26F0010AD8B423EF94
:104CA00026F0070AD8B427EF26F027EF26F01200E7
:104CB00020502110D8B45FEF26F061EF26F06AEFA4
:104CC00026F020502110D8A468EF26F06AEF26F0D5
:104CD0006FEF26F01E5056EC2CF0A2EF26F020EEDF
:104CE00004F02050D9262150DA22DE50DE10D8B44C
:104CF0007CEF26F07EEF26F099EF26F020EE04F010
:104D00002050D9262150DA2210EE02F02050E12660
:104D10002150E222DE50E65CE650800A266EDE502C
:104D2000800A2658D8B097EF26F099EF26F0A2EF28
:104D300026F020EE02F02050D9262150DA22DE2A79
:104D4000000EDD221200580EF66E590EF76E000EA0
:104D5000F86E01EEB4F010EE04F00900F5CFEEFFAE
:104D6000E550E150FAE1280EF66E590EF76E000E8E
:104D7000F86E00EEFAF010EE06F00900F5CFEEFF47
:104D8000E550E150FAE1780EF66E590EF76E000E1E
:104D9000F86E0900F5CF40F00900F5CF41F00900A9
:104DA000F5CF42F001EE00F0900EEE6AE806FDE16C
:104DB00000EEDAF0200EEE6AE806FDE100EE29F0E2
:104DC000170EEE6AE806FDE144904492000193EF6D
:104DD0001BF00001F805F911D8A4F1EF26F0F3EF6C
:104DE00026F02AEF27F0F5EC2BF00009D8B4FBEF02
:104DF00026F0FDEF26F0F3EF26F0210E01019E6F65
:104E00000F0E9F6FA4C1A0F1A5C1A1F1A6C1A2F18F
:104E1000A7C1A3F187EC2BF0060E0001D96F300E6D
:104E2000E82EFED7D92FFCD700F0460E01019E6F69
:104E30000F0E9F6F87EC2BF016EC2CF00009D8B406
:104E400024EF27F026EF27F01CEF27F0000E416E2D
:104E5000000E406E1200010123873CEF27F084EC26
:104E60002CF068EF27F09DEC2CF0030E68EF27F094
:104E700080EC2CF068EF27F00CC10AF00DC10BF0AC
:104E800002D84CEF27F00500FA6E0051FD6E01517B
:104E9000FE6EFF6AFA5012000C6E0D6A0D50000A89
:104EA000D8B455EF27F038EF27F00C50010AD8B4EA
:104EB00038EF27F0030AD8B42FEF27F0010AD8B44F
:104EC0002FEF27F0070AD8B433EF27F038EF27F099
:104ED0001200056E01500210D8B471EF27F073EF85
:104EE00027F08DEF27F00550020D000EF324D96E48
:104EF000010EF420DA6E01C0DEFF02C0DDFF0550B6
:104F0000020D0C0EF324D96E010EF420DA6E03C0EC
:104F1000DEFF04C0DDFFA5EF27F00550020D000EF7
:104F2000F324D96E010EF420DA6E6C0EDE6E590E8B
:104F3000DD6E0550020D0C0EF324D96E010EF42027
:104F4000DA6E000EDE6E000EDD6E12000E01C59BE5
:104F5000F40E1C6E490E1D6E60EC2CF00E01C5990E
:104F60004E0E1C6E540E1D6E5BEC2CF0080E9F6EE8
:104F7000900E9D6E240E9E6E9B68020E9C6E7C0EA3
:104F80001C6E590E1D6E6AEC2CF04C0E1C6E590EE8
:104F90001D6E65EC2CF0520E1C6E590E1D6E6FECE2
:104FA0002CF0000E3A6E000E3F6E000E3E6E080EA4
:104FB000436E000E3D6E000E3C6E000E3B6E0E0109
:104FC000C58B12009AEC2CF0010123A1EAEF27F027
:104FD000ECEF27F0F9EF27F02AEC2CF00009D8B419
:104FE000F4EF27F0F6EF27F0F9EF27F00F0E0101AD
:104FF000216F01012151020D010EF324F66E0F0EF7
:10500000F420F76EF86A000EF8220900F5CF0EF0D2
:105010000900F5CF0FF002D817EF28F00500FA6E5F
:105020000E50FD6E0F50FE6EFF6AFA501200010125
:10503000216F1200000E836E000E846E000E856ECE
:10504000890E886EC00E896E7C0E8A6EA00E0F01CE
:10505000216FC00E196F010E116F000E2D6F000E23
:10506000186F000E106F000E206F000E0F6F000EF5
:10507000176F000E1F6F0E6916691E690D6915699D
:105080001D69080E2A6F130E0E01B76F160EB56F4D
:105090000F0EFA6F100EF96F090EFE6F120EB86F39
:1050A000120001012391020E226F5FEF28F084ECC1
:1050B0002CF083EF28F080EC2CF083EF28F010C167
:1050C0000AF011C10BF002D86FEF28F00500FA6E5C
:1050D0000451FD6E0551FE6EFF6AFA5012000C6E0F
:1050E0000D6A0D50000AD8B478EF28F05BEF28F075
:1050F0000C50020AD8B457EF28F0010AD8B457EF81
:1051000028F05BEF28F01200D1C0D5F0D2C0D6F065
:10511000000E0001EF6F000EEE6FA2EF28F0CFC07F
:10512000C5F0D0C0C6F0D50EC76F000EC86FD3C093
:10513000C9F0D4C0CAF0FBEC0DF00001C551EE2758
:10514000C651EF23D5C0F6FFD6C0F7FFF86A0800B6
:10515000F5500009D8A4AFEF28F0B1EF28F08FEF99
:1051600028F0EEC0CFF0EFC0D0F01200BF0E246EDA
:10517000FF0E256E22C026F023C027F024502626DD
:105180002550272227500AE11A0E265CD8A0CBEF23
:1051900028F0CEEF28F0010ECFEF28F0000E00012E
:1051A000606F616B60516111D8B4D9EF28F0DBEF0B
:1051B00028F0E2EF28F0200E2210226E2350236EFA
:1051C000E6EF28F022C022F023C023F012001EC018
:1051D00022F01FC023F01CC024F01DC025F0225077
:1051E000206E2350216E224A232A20C0F6FF21C0C0
:1051F000F7FF000EF86E24C0D9FF25C0DAFF244A5D
:10520000252A0E0EF76403D00800F55005D0F6CF1E
:10521000E9FFF7CFEAFFEF50DF6EDF50D8A413EFBE
:1052200029F015EF29F0EFEF28F012001C6E435023
:10523000D8B41DEF29F01FEF29F017EF29F00E0168
:10524000C5B925EF29F027EF29F02BEF29F01CC075
:105250009AFF40EF29F0C599340E3F24D96EDA6ADF
:10526000010EDA221CC0DFFF3F2A070E3F643BEF2E
:1052700029F03DEF29F03FEF29F0000E3F6E430685
:10528000C5891200010E226E200E1C181D10D8B404
:105290004CEF29F04EEF29F067EF29F0F70E1E6E64
:1052A000FF0E1F6E1CC020F01DC021F01E502026D6
:1052B0001F502122215009E1050E205CD8A063EF88
:1052C00029F065EF29F067EF29F0000E226E22C069
:1052D0001CF01D6A12003B50D8B471EF29F073EF37
:1052E00029F06BEF29F0240E3C24D96EDA6A010E06
:1052F000DA22DF503A6E2C0E3C24D96EDA6A010EA7
:10530000DA22DF50016E3C2A070E3C648AEF29F056
:105310008CEF29F08EEF29F0000E3C6E0E01C59B3C
:105320003B06C58B01501200000E6A6E000E6B6EBC
:10533000000E6C6E000E6D6E000E686E000E696ED3
:10534000000E666E000E0F015F6F000E5D6F000EA7
:105350005E6F000E596F000E5A6F000E5B6F000EED
:10536000656E000E586F000E566F1F0E576FC40EFD
:10537000606E000E5C6F1200000E0001666F000E82
:10538000656FCFEF29F064C01EF01F6A62C020F085
:1053900063C021F058EC26F00001654B662B655187
:1053A0006025D96E66516121DA6EDF50646F6451F9
:1053B000D8A4DDEF29F0DFEF29F0C3EF29F01200C8
:1053C000000E0001711B000E721B000E731B800E7D
:1053D000741B6DC01CF06EC01DF06FC01EF070C05D
:1053E0001FF071C020F072C021F073C022F074C0B1
:1053F00023F0D9EC10F01CC06DF01DC06EF01EC083
:105400006FF01FC070F01200000E151A000E161A71
:10541000000E171A800E181A11C001F012C002F007
:1054200013C003F014C004F015C005F016C006F058
:1054300017C007F018C008F03AEC13F001C011F0E3
:1054400002C012F003C013F004C014F01200080EE2
:1054500043602DEF2AF02FEF2AF045EF2AF0340EAB
:105460003E24D96EDA6A010EDA22DF509A6E3E2AA5
:10547000070E3E643EEF2AF040EF2AF042EF2AF09A
:10548000000E3E6E432A47EF2AF00E01C599120026
:1054900020EE02F00A50D9260B50DA22DECF01F0BE
:1054A000DDCF02F00AC0D9FF0BC0DAFFDECF03F078
:1054B000DDCF04F0AEEC2BF0000E066E000E076E92
:1054C000000E086E000E096EE9EC2BF0020E1200C1
:1054D000BF0E1E6EFF0E1F6E1CC020F01DC021F0FF
:1054E0001E5020261F50212221500AE11A0E205C56
:1054F000D8A07DEF2AF080EF2AF0010E81EF2AF08C
:10550000000E1C6E1D6A12001C501D101E101F1074
:10551000D8B48DEF2AF08FEF2AF097EF2AF0000E23
:105520001C1A000E1D1A000E1E1A800E1F1A1CC017
:105530001CF01DC01DF01EC01EF01FC01FF0120089
:10554000D00E1E6EFF0E1F6E1CC020F01DC021F07D
:105550001E5020261F50212221500AE10A0E205CF5
:10556000D8A0B5EF2AF0B8EF2AF0010EB9EF2AF073
:10557000000E1C6E1D6A12001CC01EF01DC01FF024
:10558000C4EF2AF01C4A1D2A1CC0D9FF1DC0DAFF37
:10559000DF50D8A4CEEF2AF0D0EF2AF0C2EF2AF0E5
:1055A0001E501C5C1C6E1F501D581D6E1200206E7C
:1055B00020C05FFF608E609C608060B0E2EF2AF0E8
:1055C000E4EF2AF0DDEF2AF064501F6E1E6A63508C
:1055D0001E241C6E000E1F201D6E12000AC001F05A
:1055E0000BC002F0000E046E010E036EAEEC2BF049
:1055F000000E066E000E076E000E086E000E096E9D
:10560000E9EC2BF0020E12000AC001F00BC002F010
:10561000000E046E010E036EAEEC2BF0000E066E53
:10562000000E076E000E086E000E096EE9EC2BF0FE
:10563000040E12000AC001F00BC002F0000E046E4E
:10564000010E036EAEEC2BF0000E066E000E076E20
:10565000000E086E000E096EE9EC2BF0040E12002D
:105660000AC001F00BC002F0000E046E020E036EC1
:10567000AEEC2BF0000E066E000E076E000E086EEC
:10568000000E096EE9EC2BF0020E12000AC001F0C8
:105690000BC002F0000E046E010E036EAEEC2BF098
:1056A000000E066E000E076E000E086E000E096EEC
:1056B000E9EC2BF0020E12000AC001F00BC002F060
:1056C000000E046E020E036EAEEC2BF0000E066EA2
:1056D000000E076E000E086E000E096EE9EC2BF04E
:1056E000040E12002C0E3D24D96EDA6A010EDA2265
:1056F00099CFDFFF3D2A070E3D6481EF2BF083EF4A
:105700002BF085EF2BF0000E3D6E3B2A1200A00E11
:105710000001D76F010ED86F000ECF6F000ED06F53
:105720009EC1D1F09FC1D2F0D70ED36F000ED46FBF
:1057300084EC28F012001C501E02F3CF20F0F4CFAE
:1057400021F01C501F02F35021261D501E02F35061
:10575000212620C01CF021C01DF01200010123A74A
:10576000B4EF2BF0B6EF2BF0BFEF2BF001C01DF123
:1057700002C01EF103C01FF104C020F123971200E4
:10578000AEEC2CF0CFEC2BF020EC2CF01AEC28F047
:10579000DDEC2BF094EC29F0A6EC27F01200000EC3
:1057A0000E01E16F000EE26F000EE36F000EE46F7A
:1057B000000EE56F000EE66F1200600E0E01D86F4E
:1057C000000EDA6F000EDC6F060EDE6F000EDD6F6E
:1057D000120006C001F007C002F008C003F009C0C3
:1057E00004F0000E69EC27F012004350D8A4FBEF40
:1057F0002BF0FEEF2BF0010EFFEF2BF0000E12004E
:105800003B50D8A406EF2CF009EF2CF0010E0AEF64
:105810002CF0000E12003B50D8A411EF2CF014EF26
:105820002CF0010E15EF2CF0000E12009EB21BEFB3
:105830002CF01EEF2CF0010E1FEF2CF0000E1200CA
:10584000000E956E080E966E000E976E4F0E936EBC
:10585000969A120097BC2FEF2CF032EF2CF0010E2D
:1058600033EF2CF0000E1200010123811C511C2586
:1058700090EC2CF0030E120001012381D8801C351E
:1058800090EC2CF0050E120001012393000E226F04
:105890000E0E120001012391B2EC2CF0040E120046
:1058A00001012393000E226F0E0E12001D6E1D507B
:1058B00016EC29F012001CC0B2F11DC0B3F11200A9
:1058C0001CC0B0F11DC0B1F112001CC0ACF11DC074
:1058D000ADF112001CC0AEF11DC0AFF112001CC032
:1058E000AAF11DC0ABF11200A3EC2CF0090E1200BE
:1058F000A3EC2CF00A0E1200A0EC2CF0050E120006
:10590000B8EC2CF0000E1200BAEC2CF0010E1200D4
:10591000BAEC2CF0020E1200BAEC2CF0010E1200C0
:10592000016E01C092FF12007B14AE3E0100E2EC5A
:1059300027F012000E01CD9112000E01CD81120050
:10594000979A97881200978A978812009D989D8849
:10595000120072EC2BF012000000003FF29A1200CD
:105960009250120097861200050E1200010E1200CE
:0B5970009784120097821200010027AC
:02597C00120017
:020000040020DA
:10000000FF0FFF0FFF0FFF0FFF0FFF0FFF0FFF0F80
:020000040030CA
:0C0000008CFFFFFF9FFFFFFFFFFFFFFFD3
:00000001FF
