:0400000081EF08F094
:100F000000000000000000000000000000000000E1
:100F100000000000000000000000000000000000D1
:100F20000000000E836E000E846E000E856E810E32
:100F3000886EC00E896EBF0E8A6EE30E0F01216FA0
:100F4000C00E196F410E116F000E2D6F000E186F3D
:100F5000000E106F000E206F000E0F6F000E176F47
:100F6000000E1F6F0E6916691E690D6915691D69EE
:100F7000080E2A6F130E0E01B76F0F0EFA6F100EC8
:100F8000F96F090EFD6F120EB86F1200000E6A6E37
:100F9000000E6B6E000E6C6E000E6D6E000E686EB5
:100FA000000E696E000E666E000E0F015F6F000E80
:100FB0005D6F000E5E6F000E596F000E5A6F000ECF
:100FC0005B6F000E656E000E586F000E566F000EC0
:100FD000576F840E606E000E5C6F12004EEC08F0CE
:100FE00083BCF5EF07F0F8EF07F0010EF9EF07F01B
:100FF000000EFF0A356E353A3546354683503518B2
:10100000BF0B3518836EA30E356E550EE82EFED736
:10101000352EFCD700F0F0EF07F000EF00F0080EDF
:101020000E019F6F800E9D6F240E9E6F190E9B6F99
:10103000000E9C6F000E336E000E346E8FEC08F0C5
:10104000000E336E000E346E8AEC08F0000E336E24
:10105000000E346E94EC08F0000E256E1200080E9F
:101060009F6E900E9D6E240E9E6E190E9B6E000E4E
:101070009C6E000E336E000E346E9EEC08F0000E77
:10108000336E000E346E99EC08F0000E336E000ED5
:10109000346EA3EC08F0000E266E12005DEC08F032
:1010A00077EC08F091EC07F06BEC08F0C6EC07F079
:1010B0002FEC08F00FEC08F01200000E0E01E16FAB
:1010C000000EE26F000EE36F000EE46F000EE56F9E
:1010D000000EE66F1200700E0E01D86F000EDA6F70
:1010E000000EDC6F020EDE6F000EDD6F1200000ED0
:1010F000956E080E966E000E976E030E936E969A7E
:10110000120000EE01F0260EEE6AE806FDE1000195
:10111000EEEF07F033C029F034C02AF0120033C0DC
:101120002BF034C02CF0120033C027F034C028F06C
:10113000120033C02FF034C030F0120033C031F051
:1011400034C032F0120033C02DF034C02EF0120043
:020000040020DA
:10000000FF0FFF0FFF0FFF0FFF0FFF0FFF0FFF0F80
:020000040030CA
:0C000000FCFFFFFF9FFFFFFFFFFFFFFF63
:00000001FF
