:040000005BEF0DF0B5
:100F000000000000000000000000000000000000E1
:100F100000000000000000000000000000000000D1
:100F200000000450800B0D6E04500424136E03AEB9
:100F30009CEF07F09EEF07F09FEF07F01380135030
:100F4000D8B4A5EF07F0A7EF07F0BAEF07F0132822
:100F5000D8A4ADEF07F0AFEF07F0B7EF07F0000E42
:100F6000016E000E026E000E036E000E046E038E04
:100F7000C2EF07F0000E016E000E026E000E036E4F
:100F8000000E046E0850800B0D1A08500824126ED3
:100F900007AECDEF07F0CFEF07F0D0EF07F01280EC
:100FA0001250D8B4D6EF07F0D8EF07F0EBEF07F008
:100FB0001228D8A4DEEF07F0E0EF07F0E8EF07F023
:100FC000000E056E000E066E000E076E000E086E17
:100FD000078EF3EF07F0000E056E000E066E000E92
:100FE000076E000E086E1250D8B4F9EF07F0FBEF51
:100FF00007F003EF08F01350D8A401EF08F003EF57
:1010000008F00DEF08F0000E016E000E026E000EEB
:10101000036E000E046EA5EF09F007500102F3CF36
:1010200018F0F4CF19F018500E6E0F6A106A116A9A
:101030001950146E156A166A176A06500202F3CF29
:1010400018F0F4CF19F018500E26000E0F221022BF
:10105000112219501426000E1522162217220550AF
:101060000302F3CF18F0F4CF19F018500E26000E3B
:101070000F221022112219501426000E15221622BA
:10108000172210C011F00FC010F00EC00FF00E6A42
:1010900005500202F3CF18F0F4CF19F018500E26C5
:1010A00019500F22000E1022000E112206500102CC
:1010B000F3CF18F0F4CF19F018500E2619500F2264
:1010C000000E1022000E112210C011F00FC010F0FF
:1010D0000EC00FF00E6A05500102F3CF18F0F4CFE6
:1010E00019F018500E2619500F22000E1022000E73
:1010F000112207500202F3CF18F0F4CF19F0185064
:10110000142619501522000E1622000E1722065022
:101110000302F3CF18F0F4CF19F018501426195029
:101120001522000E1622000E172207500302F3CFDD
:1011300018F0F4CF19F01850096E19500A6E0B6AA6
:101140000C6A0BC00CF00AC00BF009C00AF0096A67
:10115000095014260A5015220B5016220C50172243
:101160000EC009F00FC00AF010C00BF011C00CF057
:10117000190EC0EF08F0D8900C320B320A32093247
:10118000E82EBBEF08F0095014260A5015220B5028
:1011900016220C50172210C011F00FC010F00EC014
:1011A0000FF00E6A125013C009F00A6A0926000EE9
:1011B0000A22820E0924186EFF0E0A20196EF6EF1D
:1011C00008F0D890143615361636173611AEEBEFF8
:1011D00008F0EDEF08F0EEEF08F01480D8900E362E
:1011E0000F36103611361806D8A0190616AEFBEFCA
:1011F00008F0FDEF08F0E1EF08F0000E126E11AEFE
:1012000004EF09F006EF09F02AEF09F0FF0E0E14C3
:10121000096EFF0E0F140A6EFF0E10140B6E7F0E78
:1012200011140C6E09500A100B100C10D8B41BEFDF
:1012300009F01DEF09F021EF09F0010E126E2AEFFF
:1012400009F014A026EF09F028EF09F02AEF09F0C1
:101250001DEF09F01250D8B430EF09F032EF09F069
:1012600056EF09F0010E1426000E15221622172241
:1012700017A03DEF09F03FEF09F056EF09F014C059
:1012800009F015C00AF016C00BF017C00CF00C34B2
:101290000C320B320A32093209C014F00AC015F0C0
:1012A0000BC016F00CC017F0184A192A19BE61EFCE
:1012B00009F0195008E11828D8A061EF09F063EF90
:1012C00009F06DEF09F0000E146E000E156E800E21
:1012D000166E7F0E176E9BEF09F019BE7AEF09F0BC
:1012E000195006E11804D8B078EF09F07AEF09F048
:1012F00086EF09F0000E146E000E156E000E166ECD
:10130000000E176E000E0D6E9BEF09F018C013F063
:10131000FF0E1416FF0E15167F0E1616000E17166A
:1013200013A095EF09F097EF09F098EF09F0168EEA
:10133000D8901330176E0D50171214C001F015C05D
:1013400002F016C003F017C004F01200096E095035
:10135000D8B4ADEF09F0AFEF09F0D1EF09F004BE5A
:10136000B6EF09F0B4EF09F0D1EF09F001C005F0D4
:1013700002C006F003C007F004C008F0051E061EF8
:10138000071E081E052A000E06220722082205C095
:101390000BF006C00CF007C00DF008C00EF0D9EF3E
:1013A00009F001C00BF002C00CF003C00DF004C046
:1013B0000EF00150021003100410D8A4E2EF09F05F
:1013C000E4EF09F0EEEF09F0000E016E000E026E80
:1013D000000E036E000E046E7FEF0AF0960E0A6E8A
:1013E000F8EF09F00A2AD8900E320D320C320B3287
:1013F000000E0B14056E000E0C14066E000E0D147C
:10140000076EFE0E0E14086E055006100710081029
:10141000D8A40DEF0AF00FEF0AF0F2EF09F01DEF7C
:101420000AF00A2A010E0B26000E0C220D220E22B3
:10143000D8900E320D320C320B32000E0B14056EAA
:10144000000E0C14066E000E0D14076EFF0E0E1427
:10145000086E0550061007100810D8A432EF0AF0E5
:1014600034EF0AF011EF0AF03CEF0AF00A06D890C8
:101470000B360C360D360E360DBE41EF0AF043EF3B
:101480000AF04BEF0AF0020E0A6049EF0AF04BEF48
:101490000AF036EF0AF00AB050EF0AF052EF0AF005
:1014A00053EF0AF00D9ED8900A320AC005F0066A82
:1014B000076A086A05C008F0076A066A056A0550E7
:1014C0000B1206500C1207500D1208500E12095044
:1014D000D8B46DEF0AF06FEF0AF077EF0AF004BEB0
:1014E00076EF0AF074EF0AF077EF0AF00E8E0BC079
:1014F00001F00CC002F00DC003F00EC004F01200A9
:1015000038EC0DF07B0E246E140E256EAE0E266E9A
:101510003E0E276EB1EC0CF08DBE91EF0AF093EF0A
:101520000AF0C6EF0AF085B898EF0AF09BEF0AF0D0
:10153000010E9CEF0AF0000EFF0A1A6E1A3A85504F
:101540001A18EF0B1A18856E110E1B6E3C0E1A6ED0
:10155000CB0EE82EFED71A2EFCD71B2EFAD700F0A2
:10156000000E056E640E046E000E076E050E066E0C
:10157000BAEC0BF0000E056E640E046E000E076EE2
:10158000050E066E1AEC0CF08CEF0AF083BCCBEF64
:101590000AF0CEEF0AF0010ECFEF0AF0000EFF0ABC
:1015A0001A6E1A3A1A461A4683501A18BF0B1A189E
:1015B000836E290E1B6E960E1A6E7F0EE82EFED7D6
:1015C0001A2EFCD71B2EFAD700F0000E13EC0DF0EC
:1015D00001C028F002C029F028C001F029C002F0A3
:1015E000036A046A000EA6EC09F001C01CF002C0F8
:1015F0001DF003C01EF004C01FF024C001F025C080
:1016000002F026C003F027C004F01CC005F01DC086
:1016100006F01EC007F01FC008F091EC07F001C0F3
:1016200020F002C021F003C022F004C023F0000E1D
:10163000016E000E026E8C0E036E420E046E20C010
:1016400005F021C006F022C007F023C008F038ECF6
:101650000BF0D8B02EEF0BF030EF0BF033EF0BF0B8
:101660008D8A8CEF0AF08D9A8CEF0AF000EF00F073
:10167000000E0114096E000E02140A6E800E03148F
:101680000B6E7F0E04140C6E09500A100B100C1018
:10169000D8A44DEF0BF04FEF0BF057EF0BF0000E0F
:1016A000016E000E026E000E036E000E046E000E40
:1016B0000514096E000E06140A6E800E07140B6ED8
:1016C0007F0E08140C6E09500A100B100C10D8A4D1
:1016D0006CEF0BF06EEF0BF076EF0BF0000E056E7B
:1016E000000E066E000E076E000E086E04AE7BEF55
:1016F0000BF07DEF0BF086EF0BF0016C021ED8B003
:10170000022A031ED8B0032A800E045608AE8BEFBF
:101710000BF08DEF0BF096EF0BF0056C061ED8B0BA
:10172000062A071ED8B0072A800E0856000E011A96
:10173000000E021A000E031A800E041A000E051A7B
:10174000000E061A000E071A800E081A0550015CDA
:10175000065002580750035808500458D8B0B3EF49
:101760000BF0B5EF0BF0B8EF0BF0D890B9EF0BF032
:10177000D880120084988492000E0A6E000E096EC2
:1017800008EF0CF0848084948486849A8488848210
:1017900004C001F005C002F0F8EC0CF084988492CB
:1017A000848084948496848A8488848204C001F02E
:1017B00005C002F0F8EC0CF0849884928490848444
:1017C0008496848A8488848204C001F005C002F073
:1017D000F8EC0CF084988492849084848486849AB3
:1017E0008488848204C001F005C002F0F8EC0CF09B
:1017F00084988492848084948486849A8488848261
:1018000004C001F005C002F0F8EC0CF0094A0A2A05
:101810000650095C0A50800A086E0750800A085872
:10182000D8A015EF0CF017EF0CF0C2EF0BF0849876
:101830008492120084988492000E0A6E000E096E43
:1018400068EF0CF0848084948486849A84888482EF
:1018500004C001F005C002F0F8EC0CF0849884920A
:10186000849084848486849A8488848204C001F06D
:1018700005C002F0F8EC0CF0849884928490848483
:101880008496848A8488848204C001F005C002F0B2
:10189000F8EC0CF084988492848084948496848AF2
:1018A0008488848204C001F005C002F0F8EC0CF0DA
:1018B00084988492848084948486849A84888482A0
:1018C00004C001F005C002F0F8EC0CF0094A0A2A45
:1018D0000650095C0A50800A086E0750800A0858B2
:1018E000D8A075EF0CF077EF0CF022EF0CF0849895
:1018F00084921200000E836E000E846E000E856EC0
:10190000810E886EC00E896EBF0E8A6E630E0F0147
:10191000216FC00E196F410E116F000E2D6F000E5A
:10192000186F000E106F000E206F000E0F6F000E6C
:10193000176F000E1F6F0E6916691E690D69156914
:101940001D69080E2A6F130E0E01B76F170EB56FC3
:101950000F0EFA6F100EF96F090EFD6F120EB86FB1
:101960001200000E6A6E000E6B6E000E6C6E000EA2
:101970006D6E000E686E000E696E000E666E000ED3
:101980000F015F6F000E5D6F000E5E6F000E596FEE
:10199000000E5A6F000E5B6F000E656E000E586FE2
:1019A000000E566F1F0E576FC40E606E000E5C6FF8
:1019B0001200080E9F6E900E9D6E240E9E6E820E7B
:1019C0009B6E060E9C6E000E016E000E026E69ECA0
:1019D0000DF0000E016E000E026E64EC0DF0000EB4
:1019E000016E000E026E6EEC0DF0000E4E6E1200D7
:1019F00005EF0DF00106D8A00206150E036E910E3C
:101A0000E82EFED7032EFCD700F002BE12EF0DF039
:101A1000025006E10104D8B010EF0DF012EF0DF006
:101A2000FAEF0CF01200056E05C05FFF608E609C3F
:101A3000608060B01EEF0DF020EF0DF019EF0DF09B
:101A40006450046E036A63500324016E000E042088
:101A5000026E1200000E0E01E16F000EE26F000E2A
:101A6000E36F000EE46F000EE56F000EE66F1200EC
:101A70002AEC0DF051EC0DF07AEC0CF045EC0DF089
:101A8000B1EC0CF0D9EC0CF01200600E0E01D86F26
:101A9000000EDA6F000EDC6F080EDE6F000EDD6FD9
:101AA0001200000E956E080E966E000E976E9F0E39
:101AB000936E969A120000EE2AF0250EEE6AE80662
:101AC000FDE1000180EF0AF001C051F002C052F0C8
:101AD000120001C053F002C054F0120001C04FF0D8
:061AE00002C050F01200EC
:020000040020DA
:10000000FF0FFF0FFF0FFF0FFF0FFF0FFF0FFF0F80
:020000040030CA
:0C0000008CFFFFFF9FFFFFFFFFFFFFFFD3
:00000001FF
