:0400000053EF0FF0BB
:100F000000000000000000000000000000000000E1
:100F100000000000000000000000000000000000D1
:100F200000000450800B0D6E04500424136E03AEB9
:100F30009CEF07F09EEF07F09FEF07F01380135030
:100F4000D8B4A5EF07F0A7EF07F0BAEF07F0132822
:100F5000D8A4ADEF07F0AFEF07F0B7EF07F0000E42
:100F6000016E000E026E000E036E000E046E038E04
:100F7000C2EF07F0000E016E000E026E000E036E4F
:100F8000000E046E0850800B0D1A08500824126ED3
:100F900007AECDEF07F0CFEF07F0D0EF07F01280EC
:100FA0001250D8B4D6EF07F0D8EF07F0EBEF07F008
:100FB0001228D8A4DEEF07F0E0EF07F0E8EF07F023
:100FC000000E056E000E066E000E076E000E086E17
:100FD000078EF3EF07F0000E056E000E066E000E92
:100FE000076E000E086E1250D8B4F9EF07F0FBEF51
:100FF00007F003EF08F01350D8A401EF08F003EF57
:1010000008F00DEF08F0000E016E000E026E000EEB
:10101000036E000E046EA5EF09F007500102F3CF36
:1010200018F0F4CF19F018500E6E0F6A106A116A9A
:101030001950146E156A166A176A06500202F3CF29
:1010400018F0F4CF19F018500E26000E0F221022BF
:10105000112219501426000E1522162217220550AF
:101060000302F3CF18F0F4CF19F018500E26000E3B
:101070000F221022112219501426000E15221622BA
:10108000172210C011F00FC010F00EC00FF00E6A42
:1010900005500202F3CF18F0F4CF19F018500E26C5
:1010A00019500F22000E1022000E112206500102CC
:1010B000F3CF18F0F4CF19F018500E2619500F2264
:1010C000000E1022000E112210C011F00FC010F0FF
:1010D0000EC00FF00E6A05500102F3CF18F0F4CFE6
:1010E00019F018500E2619500F22000E1022000E73
:1010F000112207500202F3CF18F0F4CF19F0185064
:10110000142619501522000E1622000E1722065022
:101110000302F3CF18F0F4CF19F018501426195029
:101120001522000E1622000E172207500302F3CFDD
:1011300018F0F4CF19F01850096E19500A6E0B6AA6
:101140000C6A0BC00CF00AC00BF009C00AF0096A67
:10115000095014260A5015220B5016220C50172243
:101160000EC009F00FC00AF010C00BF011C00CF057
:10117000190EC0EF08F0D8900C320B320A32093247
:10118000E82EBBEF08F0095014260A5015220B5028
:1011900016220C50172210C011F00FC010F00EC014
:1011A0000FF00E6A125013C009F00A6A0926000EE9
:1011B0000A22820E0924186EFF0E0A20196EF6EF1D
:1011C00008F0D890143615361636173611AEEBEFF8
:1011D00008F0EDEF08F0EEEF08F01480D8900E362E
:1011E0000F36103611361806D8A0190616AEFBEFCA
:1011F00008F0FDEF08F0E1EF08F0000E126E11AEFE
:1012000004EF09F006EF09F02AEF09F0FF0E0E14C3
:10121000096EFF0E0F140A6EFF0E10140B6E7F0E78
:1012200011140C6E09500A100B100C10D8B41BEFDF
:1012300009F01DEF09F021EF09F0010E126E2AEFFF
:1012400009F014A026EF09F028EF09F02AEF09F0C1
:101250001DEF09F01250D8B430EF09F032EF09F069
:1012600056EF09F0010E1426000E15221622172241
:1012700017A03DEF09F03FEF09F056EF09F014C059
:1012800009F015C00AF016C00BF017C00CF00C34B2
:101290000C320B320A32093209C014F00AC015F0C0
:1012A0000BC016F00CC017F0184A192A19BE61EFCE
:1012B00009F0195008E11828D8A061EF09F063EF90
:1012C00009F06DEF09F0000E146E000E156E800E21
:1012D000166E7F0E176E9BEF09F019BE7AEF09F0BC
:1012E000195006E11804D8B078EF09F07AEF09F048
:1012F00086EF09F0000E146E000E156E000E166ECD
:10130000000E176E000E0D6E9BEF09F018C013F063
:10131000FF0E1416FF0E15167F0E1616000E17166A
:1013200013A095EF09F097EF09F098EF09F0168EEA
:10133000D8901330176E0D50171214C001F015C05D
:1013400002F016C003F017C004F0120084988492D3
:10135000030E096E700E086E5C0EE82EFED7082E86
:10136000FCD7092EFAD700D0000E0B6E000E0A6EC5
:10137000B2EF0AF084808494D00E086ECA0EE82E74
:10138000FED7082EFCD78486849AD00E086ECA0E2B
:10139000E82EFED7082EFCD784888482030E096EBF
:1013A000700E086E5C0EE82EFED7082EFCD7092EB4
:1013B000FAD700D004C001F005C002F0F0EC0EF046
:1013C00084988492030E096E700E086E5C0EE82EEF
:1013D000FED7082EFCD7092EFAD700D0848084943B
:1013E000D00E086ECA0EE82EFED7082EFCD78496C3
:1013F000848AD00E086ECA0EE82EFED7082EFCD7BF
:1014000084888482030E096E700E086E5C0EE82ECE
:10141000FED7082EFCD7092EFAD700D004C001F061
:1014200005C002F0F0EC0EF084988492030E096E71
:10143000700E086E5C0EE82EFED7082EFCD7092E23
:10144000FAD700D084908484D00E086ECA0EE82E9D
:10145000FED7082EFCD78496848AD00E086ECA0E5A
:10146000E82EFED7082EFCD784888482030E096EEE
:10147000700E086E5C0EE82EFED7082EFCD7092EE3
:10148000FAD700D004C001F005C002F0F0EC0EF075
:1014900084988492030E096E700E086E5C0EE82E1E
:1014A000FED7082EFCD7092EFAD700D0849084846A
:1014B000D00E086ECA0EE82EFED7082EFCD7848602
:1014C000849AD00E086ECA0EE82EFED7082EFCD7DE
:1014D00084888482030E096E700E086E5C0EE82EFE
:1014E000FED7082EFCD7092EFAD700D004C001F091
:1014F00005C002F0F0EC0EF084988492030E096EA1
:10150000700E086E5C0EE82EFED7082EFCD7092E52
:10151000FAD700D084808494D00E086ECA0EE82ECC
:10152000FED7082EFCD78486849AD00E086ECA0E89
:10153000E82EFED7082EFCD784888482030E096E1D
:10154000700E086E5C0EE82EFED7082EFCD7092E12
:10155000FAD700D004C001F005C002F0F0EC0EF0A4
:101560000A4A0B2A06500A5C0B50800A086E075084
:10157000800A0858D8A0BFEF0AF0C1EF0AF0BAEF0E
:1015800009F084988492030E096E700E086E5C0E4A
:10159000E82EFED7082EFCD7092EFAD700D012006D
:1015A00084988492030E096E700E086E5C0EE82E0D
:1015B000FED7082EFCD7092EFAD700D0000E0B6EEE
:1015C000000E0A6EDCEF0BF084808494D00E086E5F
:1015D000CA0EE82EFED7082EFCD78486849AD00E39
:1015E000086ECA0EE82EFED7082EFCD784888482A7
:1015F000030E096E700E086E5C0EE82EFED7082EE4
:10160000FCD7092EFAD700D004C001F005C002F0C3
:10161000F0EC0EF084988492030E096E700E086E42
:101620005C0EE82EFED7082EFCD7092EFAD700D084
:1016300084908484D00E086ECA0EE82EFED7082E41
:10164000FCD78486849AD00E086ECA0EE82EFED788
:10165000082EFCD784888482030E096E700E086EF3
:101660005C0EE82EFED7082EFCD7092EFAD700D044
:1016700004C001F005C002F0F0EC0EF084988492F2
:10168000030E096E700E086E5C0EE82EFED7082E53
:10169000FCD7092EFAD700D084908484D00E086E2F
:1016A000CA0EE82EFED7082EFCD78496848AD00E68
:1016B000086ECA0EE82EFED7082EFCD784888482D6
:1016C000030E096E700E086E5C0EE82EFED7082E13
:1016D000FCD7092EFAD700D004C001F005C002F0F3
:1016E000F0EC0EF084988492030E096E700E086E72
:1016F0005C0EE82EFED7082EFCD7092EFAD700D0B4
:1017000084808494D00E086ECA0EE82EFED7082E70
:10171000FCD78496848AD00E086ECA0EE82EFED7B7
:10172000082EFCD784888482030E096E700E086E22
:101730005C0EE82EFED7082EFCD7092EFAD700D073
:1017400004C001F005C002F0F0EC0EF08498849221
:10175000030E096E700E086E5C0EE82EFED7082E82
:10176000FCD7092EFAD700D084808494D00E086E5E
:10177000CA0EE82EFED7082EFCD78486849AD00E97
:10178000086ECA0EE82EFED7082EFCD78488848205
:10179000030E096E700E086E5C0EE82EFED7082E42
:1017A000FCD7092EFAD700D004C001F005C002F022
:1017B000F0EC0EF00A4A0B2A06500A5C0B50800A25
:1017C000086E0750800A0858D8A0E9EF0BF0EBEF3D
:1017D0000BF0E4EF0AF084988492030E096E700E09
:1017E000086E5C0EE82EFED7082EFCD7092EFAD71D
:1017F00000D0120030EC0FF08382110E1B6E3C0EF5
:101800001A6ECB0EE82EFED71A2EFCD71B2EFAD757
:1018100000F08384110E1B6E3C0E1A6ECB0EE82E68
:10182000FED71A2EFCD71B2EFAD700F08388110E94
:101830001B6E3C0E1A6ECB0EE82EFED71A2EFCD76E
:101840001B2EFAD700F0838A110E1B6E3C0E1A6E07
:10185000CB0EE82EFED71A2EFCD71B2EFAD700F09F
:101860008392110E1B6E3C0E1A6ECB0EE82EFED725
:101870001A2EFCD71B2EFAD700F08394110E1B6E84
:101880003C0E1A6ECB0EE82EFED71A2EFCD71B2E5E
:10189000FAD700F08398110E1B6E3C0E1A6ECB0E19
:1018A000E82EFED71A2EFCD71B2EFAD700F0839A0B
:1018B000110E1B6E3C0E1A6ECB0EE82EFED71A2EA2
:1018C000FCD71B2EFAD700F07B0E246E140E256E6B
:1018D000AE0E266E3E0E276EA9EC0EF08DBE73EF97
:1018E0000CF075EF0CF0A5EF0CF08388110E1B6E59
:1018F0003C0E1A6ECB0EE82EFED71A2EFCD71B2EEE
:10190000FAD700F0000E056E640E046E000E076E2E
:10191000050E066EA6EC09F0000E056E640E046E50
:10192000000E076E050E066ED0EC0AF08398110EBD
:101930001B6E3C0E1A6ECB0EE82EFED71A2EFCD76D
:101940001B2EFAD700F06EEF0CF083BAAAEF0CF062
:10195000ADEF0CF0010EAEEF0CF0000EFF0A1A6EA8
:101960001A3A1A4683501A18DF0B1A18836E110E92
:101970001B6E3C0E1A6ECB0EE82EFED71A2EFCD72D
:101980001B2EFAD700F0000E0BEC0FF001C028F070
:1019900002C029F028C001F029C002F0036A046ADD
:1019A000000E16EC0DF001C01CF002C01DF003C0CB
:1019B0001EF004C01FF024C001F025C002F026C0B4
:1019C00003F027C004F01CC005F01DC006F01EC0C7
:1019D00007F01FC008F091EC07F001C020F002C032
:1019E00021F003C022F004C023F0000E016E000EAF
:1019F000026EC80E036E420E046E20C005F021C0B8
:101A000006F022C007F023C008F0F0EC0DF0D8B0CB
:101A10000CEF0DF00EEF0DF011EF0DF083826EEF75
:101A20000CF083926EEF0CF000EF00F0096E09509D
:101A3000D8B41DEF0DF01FEF0DF041EF0DF004BE17
:101A400026EF0DF024EF0DF041EF0DF001C005F091
:101A500002C006F003C007F004C008F0051E061E11
:101A6000071E081E052A000E06220722082205C0AE
:101A70000BF006C00CF007C00DF008C00EF049EFE7
:101A80000DF001C00BF002C00CF003C00DF004C05B
:101A90000EF00150021003100410D8A452EF0DF004
:101AA00054EF0DF05EEF0DF0000E016E000E026EB1
:101AB000000E036E000E046EEFEF0DF0960E0A6E30
:101AC00068EF0DF00A2AD8900E320D320C320B322C
:101AD000000E0B14056E000E0C14066E000E0D1495
:101AE000076EFE0E0E14086E055006100710081043
:101AF000D8A47DEF0DF07FEF0DF062EF0DF08DEFCC
:101B00000DF00A2A010E0B26000E0C220D220E22C9
:101B1000D8900E320D320C320B32000E0B14056EC3
:101B2000000E0C14066E000E0D14076EFF0E0E1440
:101B3000086E0550061007100810D8A4A2EF0DF08B
:101B4000A4EF0DF081EF0DF0ACEF0DF00A06D89088
:101B50000B360C360D360E360DBEB1EF0DF0B3EF71
:101B60000DF0BBEF0DF0020E0A60B9EF0DF0BBEF08
:101B70000DF0A6EF0DF00AB0C0EF0DF0C2EF0DF0C2
:101B8000C3EF0DF00D9ED8900A320AC005F0066A28
:101B9000076A086A05C008F0076A066A056A055000
:101BA0000B1206500C1207500D1208500E1209505D
:101BB000D8B4DDEF0DF0DFEF0DF0E7EF0DF004BE70
:101BC000E6EF0DF0E4EF0DF0E7EF0DF00E8E0BC039
:101BD00001F00CC002F00DC003F00EC004F01200C2
:101BE000000E0114096E000E02140A6E800E03141A
:101BF0000B6E7F0E04140C6E09500A100B100C10A3
:101C0000D8A405EF0EF007EF0EF00FEF0EF0000E68
:101C1000016E000E026E000E036E000E046E000ECA
:101C20000514096E000E06140A6E800E07140B6E62
:101C30007F0E08140C6E09500A100B100C10D8A45B
:101C400024EF0EF026EF0EF02EEF0EF0000E056ED4
:101C5000000E066E000E076E000E086E04AE33EF27
:101C60000EF035EF0EF03EEF0EF0016C021ED8B014
:101C7000022A031ED8B0032A800E045608AE43EF92
:101C80000EF045EF0EF04EEF0EF0056C061ED8B0CC
:101C9000062A071ED8B0072A800E0856000E011A21
:101CA000000E021A000E031A800E041A000E051A06
:101CB000000E061A000E071A800E081A0550015C65
:101CC000065002580750035808500458D8B06BEF1C
:101CD0000EF06DEF0EF070EF0EF0D89071EF0EF089
:101CE000D8801200000E836E000E846E000E856E8A
:101CF000C90E886EC00E896EBF0E8A6E630E0F010C
:101D0000216FC00E196F410E116F000E2D6F000E66
:101D1000186F000E106F000E206F000E0F6F000E78
:101D2000176F000E1F6F0E6916691E690D69156920
:101D30001D69080E2A6F130E0E01B76F170EB56FCF
:101D40000F0EFA6F100EF96F090EFD6F120EB86FBD
:101D50001200000E6A6E000E6B6E000E6C6E000EAE
:101D60006D6E000E686E000E696E000E666E000EDF
:101D70000F015F6F000E5D6F000E5E6F000E596FFA
:101D8000000E5A6F000E5B6F000E656E000E586FEE
:101D9000000E566F1F0E576FC40E606E000E5C6F04
:101DA0001200080E9F6E900E9D6E240E9E6E820E87
:101DB0009B6E060E9C6E000E016E000E026E61ECB4
:101DC0000FF0000E016E000E026E5CEC0FF0000EC4
:101DD000016E000E026E66EC0FF0000E4E6E1200E9
:101DE000FDEF0EF00106D8A00206150E036E910E4F
:101DF000E82EFED7032EFCD700F002BE0AEF0FF04C
:101E0000025006E10104D8B008EF0FF00AEF0FF01E
:101E1000F2EF0EF01200056E05C05FFF608E609C51
:101E2000608060B016EF0FF018EF0FF011EF0FF0B9
:101E30006450046E036A63500324016E000E042094
:101E4000026E1200000E0E01E16F000EE26F000E36
:101E5000E36F000EE46F000EE56F000EE66F1200F8
:101E600022EC0FF049EC0FF072EC0EF03DEC0FF0AD
:101E7000A9EC0EF0D1EC0EF01200600E0E01D86F3E
:101E8000000EDA6F000EDC6F080EDE6F000EDD6FE5
:101E90001200000E956E080E966E000E976E9F0E45
:101EA000936E969A120000EE2AF0250EEE6AE8066E
:101EB000FDE10001FAEF0BF001C051F002C052F059
:101EC000120001C053F002C054F0120001C04FF0E4
:061ED00002C050F01200F8
:020000040020DA
:10000000FF0FFF0FFF0FFF0FFF0FFF0FFF0FFF0F80
:020000040030CA
:0C0000008CFFFFFF9FFFFFFFFFFFFFFFD3
:00000001FF
