:0400000086EF08F08F
:100F000000000000000000000000000000000000E1
:100F100000000000000000000000000000000000D1
:100F20000000000E836E000E846E000E856E810E32
:100F3000886EC00E896EBF0E8A6E630E0F01216F20
:100F4000C00E196F410E116F000E2D6F000E186F3D
:100F5000000E106F000E206F000E0F6F000E176F47
:100F6000000E1F6F0E6916691E690D6915691D69EE
:100F7000080E2A6F130E0E01B76F170EB56F0F0E06
:100F8000FA6F100EF96F090EFD6F120EB86F120096
:100F9000000E6A6E000E6B6E000E6C6E000E6D6EB3
:100FA000000E686E000E696E000E666E000E0F0178
:100FB0005F6F000E5D6F000E5E6F000E596F000ECA
:100FC0005A6F000E5B6F000E656E000E586F000EBC
:100FD000566F070E576F840E606E000E5C6F120026
:100FE00053EC08F083BCF7EF07F0FAEF07F0010EBF
:100FF000FBEF07F0000EFF0A356E353A35463546F1
:1010000083503518BF0B3518836E0B0E366E260EC7
:10101000356E5E0EE82EFED7352EFCD7362EFAD76B
:10102000F2EF07F000EF00F0080E0E019F6F800E48
:101030009D6F240E9E6FA00E9B6F010E9C6F000E85
:10104000336E000E346E94EC08F0000E336E000E1A
:10105000346E8FEC08F0000E336E000E346E99EC97
:1010600008F0000E256E1200080E9F6E900E9D6E09
:10107000240E9E6EA00E9B6E010E9C6E000E336EB3
:10108000000E346EA3EC08F0000E336E000E346ECA
:101090009EEC08F0000E336E000E346EA8EC08F0E3
:1010A000000E266E120062EC08F07CEC08F091EC69
:1010B00007F070EC08F0C8EC07F034EC08F014EC22
:1010C00008F01200000E0E01E16F000EE26F000E3C
:1010D000E36F000EE46F000EE56F000EE66F120086
:1010E000600E0E01D86F000EDA6F000EDC6F050E79
:1010F000DE6F000EDD6F1200000E956E080E966E0C
:10110000000E976E270E936E969A120000EE01F075
:10111000260EEE6AE806FDE10001F0EF07F033C0AD
:1011200029F034C02AF0120033C02BF034C02CF068
:10113000120033C027F034C028F0120033C02FF063
:1011400034C030F0120033C031F034C032F012003D
:0A11500033C02DF034C02EF0120061
:020000040020DA
:10000000FF0FFF0FFF0FFF0FFF0FFF0FFF0FFF0F80
:020000040030CA
:0C0000008CFFFFFF9FFFFFFFFFFFFFFFD3
:00000001FF
